
RTC_TIME_DATE.elf:     file format elf32-littlearm

Sections:
Idx Name          Size      VMA       LMA       File off  Algn
  0 .isr_vector   00000188  08000000  08000000  00010000  2**0
                  CONTENTS, ALLOC, LOAD, READONLY, DATA
  1 .text         00003374  08000190  08000190  00010190  2**4
                  CONTENTS, ALLOC, LOAD, READONLY, CODE
  2 .rodata       00000120  08003504  08003504  00013504  2**2
                  CONTENTS, ALLOC, LOAD, READONLY, DATA
  3 .ARM.extab    00000000  08003624  08003624  00020070  2**0
                  CONTENTS
  4 .ARM          00000008  08003624  08003624  00013624  2**2
                  CONTENTS, ALLOC, LOAD, READONLY, DATA
  5 .preinit_array 00000000  0800362c  0800362c  00020070  2**0
                  CONTENTS, ALLOC, LOAD, DATA
  6 .init_array   00000004  0800362c  0800362c  0001362c  2**2
                  CONTENTS, ALLOC, LOAD, DATA
  7 .fini_array   00000004  08003630  08003630  00013630  2**2
                  CONTENTS, ALLOC, LOAD, DATA
  8 .data         00000070  20000000  08003634  00020000  2**2
                  CONTENTS, ALLOC, LOAD, DATA
  9 .bss          00000090  20000070  080036a4  00020070  2**2
                  ALLOC
 10 ._user_heap_stack 00000600  20000100  080036a4  00020100  2**0
                  ALLOC
 11 .ARM.attributes 00000030  00000000  00000000  00020070  2**0
                  CONTENTS, READONLY
 12 .debug_info   000083bd  00000000  00000000  000200a0  2**0
                  CONTENTS, READONLY, DEBUGGING
 13 .debug_abbrev 0000165f  00000000  00000000  0002845d  2**0
                  CONTENTS, READONLY, DEBUGGING
 14 .debug_aranges 00000728  00000000  00000000  00029ac0  2**3
                  CONTENTS, READONLY, DEBUGGING
 15 .debug_ranges 00000660  00000000  00000000  0002a1e8  2**3
                  CONTENTS, READONLY, DEBUGGING
 16 .debug_macro  00020891  00000000  00000000  0002a848  2**0
                  CONTENTS, READONLY, DEBUGGING
 17 .debug_line   00006c3f  00000000  00000000  0004b0d9  2**0
                  CONTENTS, READONLY, DEBUGGING
 18 .debug_str    000c6b40  00000000  00000000  00051d18  2**0
                  CONTENTS, READONLY, DEBUGGING
 19 .comment      0000007b  00000000  00000000  00118858  2**0
                  CONTENTS, READONLY
 20 .debug_frame  00001ef4  00000000  00000000  001188d4  2**2
                  CONTENTS, READONLY, DEBUGGING

Disassembly of section .text:

08000190 <__do_global_dtors_aux>:
 8000190:	b510      	push	{r4, lr}
 8000192:	4c05      	ldr	r4, [pc, #20]	; (80001a8 <__do_global_dtors_aux+0x18>)
 8000194:	7823      	ldrb	r3, [r4, #0]
 8000196:	b933      	cbnz	r3, 80001a6 <__do_global_dtors_aux+0x16>
 8000198:	4b04      	ldr	r3, [pc, #16]	; (80001ac <__do_global_dtors_aux+0x1c>)
 800019a:	b113      	cbz	r3, 80001a2 <__do_global_dtors_aux+0x12>
 800019c:	4804      	ldr	r0, [pc, #16]	; (80001b0 <__do_global_dtors_aux+0x20>)
 800019e:	f3af 8000 	nop.w
 80001a2:	2301      	movs	r3, #1
 80001a4:	7023      	strb	r3, [r4, #0]
 80001a6:	bd10      	pop	{r4, pc}
 80001a8:	20000070 	.word	0x20000070
 80001ac:	00000000 	.word	0x00000000
 80001b0:	080034ec 	.word	0x080034ec

080001b4 <frame_dummy>:
 80001b4:	b508      	push	{r3, lr}
 80001b6:	4b03      	ldr	r3, [pc, #12]	; (80001c4 <frame_dummy+0x10>)
 80001b8:	b11b      	cbz	r3, 80001c2 <frame_dummy+0xe>
 80001ba:	4903      	ldr	r1, [pc, #12]	; (80001c8 <frame_dummy+0x14>)
 80001bc:	4803      	ldr	r0, [pc, #12]	; (80001cc <frame_dummy+0x18>)
 80001be:	f3af 8000 	nop.w
 80001c2:	bd08      	pop	{r3, pc}
 80001c4:	00000000 	.word	0x00000000
 80001c8:	20000074 	.word	0x20000074
 80001cc:	080034ec 	.word	0x080034ec

080001d0 <strlen>:
 80001d0:	4603      	mov	r3, r0
 80001d2:	f813 2b01 	ldrb.w	r2, [r3], #1
 80001d6:	2a00      	cmp	r2, #0
 80001d8:	d1fb      	bne.n	80001d2 <strlen+0x2>
 80001da:	1a18      	subs	r0, r3, r0
 80001dc:	3801      	subs	r0, #1
 80001de:	4770      	bx	lr

080001e0 <memchr>:
 80001e0:	f001 01ff 	and.w	r1, r1, #255	; 0xff
 80001e4:	2a10      	cmp	r2, #16
 80001e6:	db2b      	blt.n	8000240 <memchr+0x60>
 80001e8:	f010 0f07 	tst.w	r0, #7
 80001ec:	d008      	beq.n	8000200 <memchr+0x20>
 80001ee:	f810 3b01 	ldrb.w	r3, [r0], #1
 80001f2:	3a01      	subs	r2, #1
 80001f4:	428b      	cmp	r3, r1
 80001f6:	d02d      	beq.n	8000254 <memchr+0x74>
 80001f8:	f010 0f07 	tst.w	r0, #7
 80001fc:	b342      	cbz	r2, 8000250 <memchr+0x70>
 80001fe:	d1f6      	bne.n	80001ee <memchr+0xe>
 8000200:	b4f0      	push	{r4, r5, r6, r7}
 8000202:	ea41 2101 	orr.w	r1, r1, r1, lsl #8
 8000206:	ea41 4101 	orr.w	r1, r1, r1, lsl #16
 800020a:	f022 0407 	bic.w	r4, r2, #7
 800020e:	f07f 0700 	mvns.w	r7, #0
 8000212:	2300      	movs	r3, #0
 8000214:	e8f0 5602 	ldrd	r5, r6, [r0], #8
 8000218:	3c08      	subs	r4, #8
 800021a:	ea85 0501 	eor.w	r5, r5, r1
 800021e:	ea86 0601 	eor.w	r6, r6, r1
 8000222:	fa85 f547 	uadd8	r5, r5, r7
 8000226:	faa3 f587 	sel	r5, r3, r7
 800022a:	fa86 f647 	uadd8	r6, r6, r7
 800022e:	faa5 f687 	sel	r6, r5, r7
 8000232:	b98e      	cbnz	r6, 8000258 <memchr+0x78>
 8000234:	d1ee      	bne.n	8000214 <memchr+0x34>
 8000236:	bcf0      	pop	{r4, r5, r6, r7}
 8000238:	f001 01ff 	and.w	r1, r1, #255	; 0xff
 800023c:	f002 0207 	and.w	r2, r2, #7
 8000240:	b132      	cbz	r2, 8000250 <memchr+0x70>
 8000242:	f810 3b01 	ldrb.w	r3, [r0], #1
 8000246:	3a01      	subs	r2, #1
 8000248:	ea83 0301 	eor.w	r3, r3, r1
 800024c:	b113      	cbz	r3, 8000254 <memchr+0x74>
 800024e:	d1f8      	bne.n	8000242 <memchr+0x62>
 8000250:	2000      	movs	r0, #0
 8000252:	4770      	bx	lr
 8000254:	3801      	subs	r0, #1
 8000256:	4770      	bx	lr
 8000258:	2d00      	cmp	r5, #0
 800025a:	bf06      	itte	eq
 800025c:	4635      	moveq	r5, r6
 800025e:	3803      	subeq	r0, #3
 8000260:	3807      	subne	r0, #7
 8000262:	f015 0f01 	tst.w	r5, #1
 8000266:	d107      	bne.n	8000278 <memchr+0x98>
 8000268:	3001      	adds	r0, #1
 800026a:	f415 7f80 	tst.w	r5, #256	; 0x100
 800026e:	bf02      	ittt	eq
 8000270:	3001      	addeq	r0, #1
 8000272:	f415 3fc0 	tsteq.w	r5, #98304	; 0x18000
 8000276:	3001      	addeq	r0, #1
 8000278:	bcf0      	pop	{r4, r5, r6, r7}
 800027a:	3801      	subs	r0, #1
 800027c:	4770      	bx	lr
 800027e:	bf00      	nop

08000280 <__aeabi_uldivmod>:
 8000280:	b953      	cbnz	r3, 8000298 <__aeabi_uldivmod+0x18>
 8000282:	b94a      	cbnz	r2, 8000298 <__aeabi_uldivmod+0x18>
 8000284:	2900      	cmp	r1, #0
 8000286:	bf08      	it	eq
 8000288:	2800      	cmpeq	r0, #0
 800028a:	bf1c      	itt	ne
 800028c:	f04f 31ff 	movne.w	r1, #4294967295
 8000290:	f04f 30ff 	movne.w	r0, #4294967295
 8000294:	f000 b972 	b.w	800057c <__aeabi_idiv0>
 8000298:	f1ad 0c08 	sub.w	ip, sp, #8
 800029c:	e96d ce04 	strd	ip, lr, [sp, #-16]!
 80002a0:	f000 f806 	bl	80002b0 <__udivmoddi4>
 80002a4:	f8dd e004 	ldr.w	lr, [sp, #4]
 80002a8:	e9dd 2302 	ldrd	r2, r3, [sp, #8]
 80002ac:	b004      	add	sp, #16
 80002ae:	4770      	bx	lr

080002b0 <__udivmoddi4>:
 80002b0:	e92d 47f0 	stmdb	sp!, {r4, r5, r6, r7, r8, r9, sl, lr}
 80002b4:	9e08      	ldr	r6, [sp, #32]
 80002b6:	4604      	mov	r4, r0
 80002b8:	4688      	mov	r8, r1
 80002ba:	2b00      	cmp	r3, #0
 80002bc:	d14b      	bne.n	8000356 <__udivmoddi4+0xa6>
 80002be:	428a      	cmp	r2, r1
 80002c0:	4615      	mov	r5, r2
 80002c2:	d967      	bls.n	8000394 <__udivmoddi4+0xe4>
 80002c4:	fab2 f282 	clz	r2, r2
 80002c8:	b14a      	cbz	r2, 80002de <__udivmoddi4+0x2e>
 80002ca:	f1c2 0720 	rsb	r7, r2, #32
 80002ce:	fa01 f302 	lsl.w	r3, r1, r2
 80002d2:	fa20 f707 	lsr.w	r7, r0, r7
 80002d6:	4095      	lsls	r5, r2
 80002d8:	ea47 0803 	orr.w	r8, r7, r3
 80002dc:	4094      	lsls	r4, r2
 80002de:	ea4f 4e15 	mov.w	lr, r5, lsr #16
 80002e2:	0c23      	lsrs	r3, r4, #16
 80002e4:	fbb8 f7fe 	udiv	r7, r8, lr
 80002e8:	fa1f fc85 	uxth.w	ip, r5
 80002ec:	fb0e 8817 	mls	r8, lr, r7, r8
 80002f0:	ea43 4308 	orr.w	r3, r3, r8, lsl #16
 80002f4:	fb07 f10c 	mul.w	r1, r7, ip
 80002f8:	4299      	cmp	r1, r3
 80002fa:	d909      	bls.n	8000310 <__udivmoddi4+0x60>
 80002fc:	18eb      	adds	r3, r5, r3
 80002fe:	f107 30ff 	add.w	r0, r7, #4294967295
 8000302:	f080 811b 	bcs.w	800053c <__udivmoddi4+0x28c>
 8000306:	4299      	cmp	r1, r3
 8000308:	f240 8118 	bls.w	800053c <__udivmoddi4+0x28c>
 800030c:	3f02      	subs	r7, #2
 800030e:	442b      	add	r3, r5
 8000310:	1a5b      	subs	r3, r3, r1
 8000312:	b2a4      	uxth	r4, r4
 8000314:	fbb3 f0fe 	udiv	r0, r3, lr
 8000318:	fb0e 3310 	mls	r3, lr, r0, r3
 800031c:	ea44 4403 	orr.w	r4, r4, r3, lsl #16
 8000320:	fb00 fc0c 	mul.w	ip, r0, ip
 8000324:	45a4      	cmp	ip, r4
 8000326:	d909      	bls.n	800033c <__udivmoddi4+0x8c>
 8000328:	192c      	adds	r4, r5, r4
 800032a:	f100 33ff 	add.w	r3, r0, #4294967295
 800032e:	f080 8107 	bcs.w	8000540 <__udivmoddi4+0x290>
 8000332:	45a4      	cmp	ip, r4
 8000334:	f240 8104 	bls.w	8000540 <__udivmoddi4+0x290>
 8000338:	3802      	subs	r0, #2
 800033a:	442c      	add	r4, r5
 800033c:	ea40 4007 	orr.w	r0, r0, r7, lsl #16
 8000340:	eba4 040c 	sub.w	r4, r4, ip
 8000344:	2700      	movs	r7, #0
 8000346:	b11e      	cbz	r6, 8000350 <__udivmoddi4+0xa0>
 8000348:	40d4      	lsrs	r4, r2
 800034a:	2300      	movs	r3, #0
 800034c:	e9c6 4300 	strd	r4, r3, [r6]
 8000350:	4639      	mov	r1, r7
 8000352:	e8bd 87f0 	ldmia.w	sp!, {r4, r5, r6, r7, r8, r9, sl, pc}
 8000356:	428b      	cmp	r3, r1
 8000358:	d909      	bls.n	800036e <__udivmoddi4+0xbe>
 800035a:	2e00      	cmp	r6, #0
 800035c:	f000 80eb 	beq.w	8000536 <__udivmoddi4+0x286>
 8000360:	2700      	movs	r7, #0
 8000362:	e9c6 0100 	strd	r0, r1, [r6]
 8000366:	4638      	mov	r0, r7
 8000368:	4639      	mov	r1, r7
 800036a:	e8bd 87f0 	ldmia.w	sp!, {r4, r5, r6, r7, r8, r9, sl, pc}
 800036e:	fab3 f783 	clz	r7, r3
 8000372:	2f00      	cmp	r7, #0
 8000374:	d147      	bne.n	8000406 <__udivmoddi4+0x156>
 8000376:	428b      	cmp	r3, r1
 8000378:	d302      	bcc.n	8000380 <__udivmoddi4+0xd0>
 800037a:	4282      	cmp	r2, r0
 800037c:	f200 80fa 	bhi.w	8000574 <__udivmoddi4+0x2c4>
 8000380:	1a84      	subs	r4, r0, r2
 8000382:	eb61 0303 	sbc.w	r3, r1, r3
 8000386:	2001      	movs	r0, #1
 8000388:	4698      	mov	r8, r3
 800038a:	2e00      	cmp	r6, #0
 800038c:	d0e0      	beq.n	8000350 <__udivmoddi4+0xa0>
 800038e:	e9c6 4800 	strd	r4, r8, [r6]
 8000392:	e7dd      	b.n	8000350 <__udivmoddi4+0xa0>
 8000394:	b902      	cbnz	r2, 8000398 <__udivmoddi4+0xe8>
 8000396:	deff      	udf	#255	; 0xff
 8000398:	fab2 f282 	clz	r2, r2
 800039c:	2a00      	cmp	r2, #0
 800039e:	f040 808f 	bne.w	80004c0 <__udivmoddi4+0x210>
 80003a2:	1b49      	subs	r1, r1, r5
 80003a4:	ea4f 4e15 	mov.w	lr, r5, lsr #16
 80003a8:	fa1f f885 	uxth.w	r8, r5
 80003ac:	2701      	movs	r7, #1
 80003ae:	fbb1 fcfe 	udiv	ip, r1, lr
 80003b2:	0c23      	lsrs	r3, r4, #16
 80003b4:	fb0e 111c 	mls	r1, lr, ip, r1
 80003b8:	ea43 4301 	orr.w	r3, r3, r1, lsl #16
 80003bc:	fb08 f10c 	mul.w	r1, r8, ip
 80003c0:	4299      	cmp	r1, r3
 80003c2:	d907      	bls.n	80003d4 <__udivmoddi4+0x124>
 80003c4:	18eb      	adds	r3, r5, r3
 80003c6:	f10c 30ff 	add.w	r0, ip, #4294967295
 80003ca:	d202      	bcs.n	80003d2 <__udivmoddi4+0x122>
 80003cc:	4299      	cmp	r1, r3
 80003ce:	f200 80cd 	bhi.w	800056c <__udivmoddi4+0x2bc>
 80003d2:	4684      	mov	ip, r0
 80003d4:	1a59      	subs	r1, r3, r1
 80003d6:	b2a3      	uxth	r3, r4
 80003d8:	fbb1 f0fe 	udiv	r0, r1, lr
 80003dc:	fb0e 1410 	mls	r4, lr, r0, r1
 80003e0:	ea43 4404 	orr.w	r4, r3, r4, lsl #16
 80003e4:	fb08 f800 	mul.w	r8, r8, r0
 80003e8:	45a0      	cmp	r8, r4
 80003ea:	d907      	bls.n	80003fc <__udivmoddi4+0x14c>
 80003ec:	192c      	adds	r4, r5, r4
 80003ee:	f100 33ff 	add.w	r3, r0, #4294967295
 80003f2:	d202      	bcs.n	80003fa <__udivmoddi4+0x14a>
 80003f4:	45a0      	cmp	r8, r4
 80003f6:	f200 80b6 	bhi.w	8000566 <__udivmoddi4+0x2b6>
 80003fa:	4618      	mov	r0, r3
 80003fc:	eba4 0408 	sub.w	r4, r4, r8
 8000400:	ea40 400c 	orr.w	r0, r0, ip, lsl #16
 8000404:	e79f      	b.n	8000346 <__udivmoddi4+0x96>
 8000406:	f1c7 0c20 	rsb	ip, r7, #32
 800040a:	40bb      	lsls	r3, r7
 800040c:	fa22 fe0c 	lsr.w	lr, r2, ip
 8000410:	ea4e 0e03 	orr.w	lr, lr, r3
 8000414:	fa01 f407 	lsl.w	r4, r1, r7
 8000418:	fa20 f50c 	lsr.w	r5, r0, ip
 800041c:	fa21 f30c 	lsr.w	r3, r1, ip
 8000420:	ea4f 481e 	mov.w	r8, lr, lsr #16
 8000424:	4325      	orrs	r5, r4
 8000426:	fbb3 f9f8 	udiv	r9, r3, r8
 800042a:	0c2c      	lsrs	r4, r5, #16
 800042c:	fb08 3319 	mls	r3, r8, r9, r3
 8000430:	fa1f fa8e 	uxth.w	sl, lr
 8000434:	ea44 4303 	orr.w	r3, r4, r3, lsl #16
 8000438:	fb09 f40a 	mul.w	r4, r9, sl
 800043c:	429c      	cmp	r4, r3
 800043e:	fa02 f207 	lsl.w	r2, r2, r7
 8000442:	fa00 f107 	lsl.w	r1, r0, r7
 8000446:	d90b      	bls.n	8000460 <__udivmoddi4+0x1b0>
 8000448:	eb1e 0303 	adds.w	r3, lr, r3
 800044c:	f109 30ff 	add.w	r0, r9, #4294967295
 8000450:	f080 8087 	bcs.w	8000562 <__udivmoddi4+0x2b2>
 8000454:	429c      	cmp	r4, r3
 8000456:	f240 8084 	bls.w	8000562 <__udivmoddi4+0x2b2>
 800045a:	f1a9 0902 	sub.w	r9, r9, #2
 800045e:	4473      	add	r3, lr
 8000460:	1b1b      	subs	r3, r3, r4
 8000462:	b2ad      	uxth	r5, r5
 8000464:	fbb3 f0f8 	udiv	r0, r3, r8
 8000468:	fb08 3310 	mls	r3, r8, r0, r3
 800046c:	ea45 4403 	orr.w	r4, r5, r3, lsl #16
 8000470:	fb00 fa0a 	mul.w	sl, r0, sl
 8000474:	45a2      	cmp	sl, r4
 8000476:	d908      	bls.n	800048a <__udivmoddi4+0x1da>
 8000478:	eb1e 0404 	adds.w	r4, lr, r4
 800047c:	f100 33ff 	add.w	r3, r0, #4294967295
 8000480:	d26b      	bcs.n	800055a <__udivmoddi4+0x2aa>
 8000482:	45a2      	cmp	sl, r4
 8000484:	d969      	bls.n	800055a <__udivmoddi4+0x2aa>
 8000486:	3802      	subs	r0, #2
 8000488:	4474      	add	r4, lr
 800048a:	ea40 4009 	orr.w	r0, r0, r9, lsl #16
 800048e:	fba0 8902 	umull	r8, r9, r0, r2
 8000492:	eba4 040a 	sub.w	r4, r4, sl
 8000496:	454c      	cmp	r4, r9
 8000498:	46c2      	mov	sl, r8
 800049a:	464b      	mov	r3, r9
 800049c:	d354      	bcc.n	8000548 <__udivmoddi4+0x298>
 800049e:	d051      	beq.n	8000544 <__udivmoddi4+0x294>
 80004a0:	2e00      	cmp	r6, #0
 80004a2:	d069      	beq.n	8000578 <__udivmoddi4+0x2c8>
 80004a4:	ebb1 050a 	subs.w	r5, r1, sl
 80004a8:	eb64 0403 	sbc.w	r4, r4, r3
 80004ac:	fa04 fc0c 	lsl.w	ip, r4, ip
 80004b0:	40fd      	lsrs	r5, r7
 80004b2:	40fc      	lsrs	r4, r7
 80004b4:	ea4c 0505 	orr.w	r5, ip, r5
 80004b8:	e9c6 5400 	strd	r5, r4, [r6]
 80004bc:	2700      	movs	r7, #0
 80004be:	e747      	b.n	8000350 <__udivmoddi4+0xa0>
 80004c0:	f1c2 0320 	rsb	r3, r2, #32
 80004c4:	fa20 f703 	lsr.w	r7, r0, r3
 80004c8:	4095      	lsls	r5, r2
 80004ca:	fa01 f002 	lsl.w	r0, r1, r2
 80004ce:	fa21 f303 	lsr.w	r3, r1, r3
 80004d2:	ea4f 4e15 	mov.w	lr, r5, lsr #16
 80004d6:	4338      	orrs	r0, r7
 80004d8:	0c01      	lsrs	r1, r0, #16
 80004da:	fbb3 f7fe 	udiv	r7, r3, lr
 80004de:	fa1f f885 	uxth.w	r8, r5
 80004e2:	fb0e 3317 	mls	r3, lr, r7, r3
 80004e6:	ea41 4103 	orr.w	r1, r1, r3, lsl #16
 80004ea:	fb07 f308 	mul.w	r3, r7, r8
 80004ee:	428b      	cmp	r3, r1
 80004f0:	fa04 f402 	lsl.w	r4, r4, r2
 80004f4:	d907      	bls.n	8000506 <__udivmoddi4+0x256>
 80004f6:	1869      	adds	r1, r5, r1
 80004f8:	f107 3cff 	add.w	ip, r7, #4294967295
 80004fc:	d22f      	bcs.n	800055e <__udivmoddi4+0x2ae>
 80004fe:	428b      	cmp	r3, r1
 8000500:	d92d      	bls.n	800055e <__udivmoddi4+0x2ae>
 8000502:	3f02      	subs	r7, #2
 8000504:	4429      	add	r1, r5
 8000506:	1acb      	subs	r3, r1, r3
 8000508:	b281      	uxth	r1, r0
 800050a:	fbb3 f0fe 	udiv	r0, r3, lr
 800050e:	fb0e 3310 	mls	r3, lr, r0, r3
 8000512:	ea41 4103 	orr.w	r1, r1, r3, lsl #16
 8000516:	fb00 f308 	mul.w	r3, r0, r8
 800051a:	428b      	cmp	r3, r1
 800051c:	d907      	bls.n	800052e <__udivmoddi4+0x27e>
 800051e:	1869      	adds	r1, r5, r1
 8000520:	f100 3cff 	add.w	ip, r0, #4294967295
 8000524:	d217      	bcs.n	8000556 <__udivmoddi4+0x2a6>
 8000526:	428b      	cmp	r3, r1
 8000528:	d915      	bls.n	8000556 <__udivmoddi4+0x2a6>
 800052a:	3802      	subs	r0, #2
 800052c:	4429      	add	r1, r5
 800052e:	1ac9      	subs	r1, r1, r3
 8000530:	ea40 4707 	orr.w	r7, r0, r7, lsl #16
 8000534:	e73b      	b.n	80003ae <__udivmoddi4+0xfe>
 8000536:	4637      	mov	r7, r6
 8000538:	4630      	mov	r0, r6
 800053a:	e709      	b.n	8000350 <__udivmoddi4+0xa0>
 800053c:	4607      	mov	r7, r0
 800053e:	e6e7      	b.n	8000310 <__udivmoddi4+0x60>
 8000540:	4618      	mov	r0, r3
 8000542:	e6fb      	b.n	800033c <__udivmoddi4+0x8c>
 8000544:	4541      	cmp	r1, r8
 8000546:	d2ab      	bcs.n	80004a0 <__udivmoddi4+0x1f0>
 8000548:	ebb8 0a02 	subs.w	sl, r8, r2
 800054c:	eb69 020e 	sbc.w	r2, r9, lr
 8000550:	3801      	subs	r0, #1
 8000552:	4613      	mov	r3, r2
 8000554:	e7a4      	b.n	80004a0 <__udivmoddi4+0x1f0>
 8000556:	4660      	mov	r0, ip
 8000558:	e7e9      	b.n	800052e <__udivmoddi4+0x27e>
 800055a:	4618      	mov	r0, r3
 800055c:	e795      	b.n	800048a <__udivmoddi4+0x1da>
 800055e:	4667      	mov	r7, ip
 8000560:	e7d1      	b.n	8000506 <__udivmoddi4+0x256>
 8000562:	4681      	mov	r9, r0
 8000564:	e77c      	b.n	8000460 <__udivmoddi4+0x1b0>
 8000566:	3802      	subs	r0, #2
 8000568:	442c      	add	r4, r5
 800056a:	e747      	b.n	80003fc <__udivmoddi4+0x14c>
 800056c:	f1ac 0c02 	sub.w	ip, ip, #2
 8000570:	442b      	add	r3, r5
 8000572:	e72f      	b.n	80003d4 <__udivmoddi4+0x124>
 8000574:	4638      	mov	r0, r7
 8000576:	e708      	b.n	800038a <__udivmoddi4+0xda>
 8000578:	4637      	mov	r7, r6
 800057a:	e6e9      	b.n	8000350 <__udivmoddi4+0xa0>

0800057c <__aeabi_idiv0>:
 800057c:	4770      	bx	lr
 800057e:	bf00      	nop

08000580 <printmsg>:
void RTC_CalendarConfig(void);

char* getDayofweek(uint8_t number);

void printmsg(char *format,...)
 {
 8000580:	b40f      	push	{r0, r1, r2, r3}
 8000582:	b580      	push	{r7, lr}
 8000584:	b096      	sub	sp, #88	; 0x58
 8000586:	af00      	add	r7, sp, #0

	char str[80];

	/*Extract the the argument list using VA apis */
	va_list args;
	va_start(args, format);
 8000588:	f107 0364 	add.w	r3, r7, #100	; 0x64
 800058c:	607b      	str	r3, [r7, #4]
	vsprintf(str, format,args);
 800058e:	f107 0308 	add.w	r3, r7, #8
 8000592:	687a      	ldr	r2, [r7, #4]
 8000594:	6e39      	ldr	r1, [r7, #96]	; 0x60
 8000596:	4618      	mov	r0, r3
 8000598:	f002 fbb8 	bl	8002d0c <vsiprintf>
	HAL_UART_Transmit(&huart2,(uint8_t *)str, strlen(str),HAL_MAX_DELAY);
 800059c:	f107 0308 	add.w	r3, r7, #8
 80005a0:	4618      	mov	r0, r3
 80005a2:	f7ff fe15 	bl	80001d0 <strlen>
 80005a6:	4603      	mov	r3, r0
 80005a8:	b29a      	uxth	r2, r3
 80005aa:	f107 0108 	add.w	r1, r7, #8
 80005ae:	f04f 33ff 	mov.w	r3, #4294967295
 80005b2:	4805      	ldr	r0, [pc, #20]	; (80005c8 <printmsg+0x48>)
 80005b4:	f001 ff03 	bl	80023be <HAL_UART_Transmit>
	va_end(args);

 }
 80005b8:	bf00      	nop
 80005ba:	3758      	adds	r7, #88	; 0x58
 80005bc:	46bd      	mov	sp, r7
 80005be:	e8bd 4080 	ldmia.w	sp!, {r7, lr}
 80005c2:	b004      	add	sp, #16
 80005c4:	4770      	bx	lr
 80005c6:	bf00      	nop
 80005c8:	200000b8 	.word	0x200000b8

080005cc <main>:
/**
  * @brief  The application entry point.
  * @retval int
  */
int main(void)
{
 80005cc:	b5f0      	push	{r4, r5, r6, r7, lr}
 80005ce:	b093      	sub	sp, #76	; 0x4c
 80005d0:	af02      	add	r7, sp, #8
  /* USER CODE BEGIN 1 */
	 RTC_TimeTypeDef RTC_TimeRead;
	 RTC_DateTypeDef RTC_DateRead;
	 char msg[]  =  "testing the RTC peripheral \r\n";
 80005d2:	4b37      	ldr	r3, [pc, #220]	; (80006b0 <main+0xe4>)
 80005d4:	1d3c      	adds	r4, r7, #4
 80005d6:	461d      	mov	r5, r3
 80005d8:	cd0f      	ldmia	r5!, {r0, r1, r2, r3}
 80005da:	c40f      	stmia	r4!, {r0, r1, r2, r3}
 80005dc:	e895 000f 	ldmia.w	r5, {r0, r1, r2, r3}
 80005e0:	c407      	stmia	r4!, {r0, r1, r2}
 80005e2:	8023      	strh	r3, [r4, #0]
	 uint16_t len_of_data = 0;
 80005e4:	2300      	movs	r3, #0
 80005e6:	87fb      	strh	r3, [r7, #62]	; 0x3e
  /* USER CODE END 1 */

  /* MCU Configuration--------------------------------------------------------*/

  /* Reset of all peripherals, Initializes the Flash interface and the Systick. */
  HAL_Init();
 80005e8:	f000 fafa 	bl	8000be0 <HAL_Init>
  /* USER CODE BEGIN Init */

  /* USER CODE END Init */

  /* Configure the system clock */
  SystemClock_Config();
 80005ec:	f000 f86e 	bl	80006cc <SystemClock_Config>
  /* USER CODE BEGIN SysInit */

  /* USER CODE END SysInit */

  /* Initialize all configured peripherals */
  MX_GPIO_Init();
 80005f0:	f000 f93e 	bl	8000870 <MX_GPIO_Init>
  MX_RTC_Init();
 80005f4:	f000 f8ec 	bl	80007d0 <MX_RTC_Init>
  MX_USART2_UART_Init();
 80005f8:	f000 f910 	bl	800081c <MX_USART2_UART_Init>
  /* USER CODE BEGIN 2 */
  RTC_CalendarConfig();
 80005fc:	f000 f964 	bl	80008c8 <RTC_CalendarConfig>
  /* USER CODE END 2 */

  /* Infinite loop */
  /* USER CODE BEGIN WHILE */
  len_of_data = strlen(msg);
 8000600:	1d3b      	adds	r3, r7, #4
 8000602:	4618      	mov	r0, r3
 8000604:	f7ff fde4 	bl	80001d0 <strlen>
 8000608:	4603      	mov	r3, r0
 800060a:	87fb      	strh	r3, [r7, #62]	; 0x3e
  HAL_UART_Transmit(&huart2, (uint8_t*)msg,len_of_data , HAL_MAX_DELAY);
 800060c:	8ffa      	ldrh	r2, [r7, #62]	; 0x3e
 800060e:	1d39      	adds	r1, r7, #4
 8000610:	f04f 33ff 	mov.w	r3, #4294967295
 8000614:	4827      	ldr	r0, [pc, #156]	; (80006b4 <main+0xe8>)
 8000616:	f001 fed2 	bl	80023be <HAL_UART_Transmit>
  while (1)
  {

    /* USER CODE END WHILE */
  if(HAL_GPIO_ReadPin(GPIOA, GPIO_PIN_0)==GPIO_PIN_SET)
 800061a:	2101      	movs	r1, #1
 800061c:	4826      	ldr	r0, [pc, #152]	; (80006b8 <main+0xec>)
 800061e:	f000 fdf3 	bl	8001208 <HAL_GPIO_ReadPin>
 8000622:	4603      	mov	r3, r0
 8000624:	2b01      	cmp	r3, #1
 8000626:	d1f8      	bne.n	800061a <main+0x4e>
  {
    /* USER CODE BEGIN 3 */
	HAL_UART_Transmit(&huart2, (uint8_t*)msg,len_of_data , HAL_MAX_DELAY);
 8000628:	8ffa      	ldrh	r2, [r7, #62]	; 0x3e
 800062a:	1d39      	adds	r1, r7, #4
 800062c:	f04f 33ff 	mov.w	r3, #4294967295
 8000630:	4820      	ldr	r0, [pc, #128]	; (80006b4 <main+0xe8>)
 8000632:	f001 fec4 	bl	80023be <HAL_UART_Transmit>

	HAL_RTC_GetTime(&hrtc,&RTC_TimeRead,RTC_FORMAT_BIN);
 8000636:	f107 0328 	add.w	r3, r7, #40	; 0x28
 800063a:	2200      	movs	r2, #0
 800063c:	4619      	mov	r1, r3
 800063e:	481f      	ldr	r0, [pc, #124]	; (80006bc <main+0xf0>)
 8000640:	f001 fc8c 	bl	8001f5c <HAL_RTC_GetTime>
	HAL_RTC_GetDate(&hrtc,&RTC_DateRead,RTC_FORMAT_BIN);
 8000644:	f107 0324 	add.w	r3, r7, #36	; 0x24
 8000648:	2200      	movs	r2, #0
 800064a:	4619      	mov	r1, r3
 800064c:	481b      	ldr	r0, [pc, #108]	; (80006bc <main+0xf0>)
 800064e:	f001 fd8a 	bl	8002166 <HAL_RTC_GetDate>

	printmsg("   \r\n");
 8000652:	481b      	ldr	r0, [pc, #108]	; (80006c0 <main+0xf4>)
 8000654:	f7ff ff94 	bl	8000580 <printmsg>
	printmsg("Current Time is : %02d:%02d:%02d\r\n",RTC_TimeRead.Hours, RTC_TimeRead.Minutes,RTC_TimeRead.Seconds);
 8000658:	f897 3028 	ldrb.w	r3, [r7, #40]	; 0x28
 800065c:	4619      	mov	r1, r3
 800065e:	f897 3029 	ldrb.w	r3, [r7, #41]	; 0x29
 8000662:	461a      	mov	r2, r3
 8000664:	f897 302a 	ldrb.w	r3, [r7, #42]	; 0x2a
 8000668:	4816      	ldr	r0, [pc, #88]	; (80006c4 <main+0xf8>)
 800066a:	f7ff ff89 	bl	8000580 <printmsg>
	printmsg("   \r\n");
 800066e:	4814      	ldr	r0, [pc, #80]	; (80006c0 <main+0xf4>)
 8000670:	f7ff ff86 	bl	8000580 <printmsg>
	printmsg("Current Date is : %02d-%2d-%2d  <%s> \r\n",RTC_DateRead.Date,RTC_DateRead.Month, RTC_DateRead.Year,getDayofweek(RTC_DateRead.WeekDay));
 8000674:	f897 3026 	ldrb.w	r3, [r7, #38]	; 0x26
 8000678:	461c      	mov	r4, r3
 800067a:	f897 3025 	ldrb.w	r3, [r7, #37]	; 0x25
 800067e:	461d      	mov	r5, r3
 8000680:	f897 3027 	ldrb.w	r3, [r7, #39]	; 0x27
 8000684:	461e      	mov	r6, r3
 8000686:	f897 3024 	ldrb.w	r3, [r7, #36]	; 0x24
 800068a:	4618      	mov	r0, r3
 800068c:	f000 f942 	bl	8000914 <getDayofweek>
 8000690:	4603      	mov	r3, r0
 8000692:	9300      	str	r3, [sp, #0]
 8000694:	4633      	mov	r3, r6
 8000696:	462a      	mov	r2, r5
 8000698:	4621      	mov	r1, r4
 800069a:	480b      	ldr	r0, [pc, #44]	; (80006c8 <main+0xfc>)
 800069c:	f7ff ff70 	bl	8000580 <printmsg>
	printmsg("   \r\n");
 80006a0:	4807      	ldr	r0, [pc, #28]	; (80006c0 <main+0xf4>)
 80006a2:	f7ff ff6d 	bl	8000580 <printmsg>
	HAL_Delay(10);
 80006a6:	200a      	movs	r0, #10
 80006a8:	f000 fb0c 	bl	8000cc4 <HAL_Delay>
  if(HAL_GPIO_ReadPin(GPIOA, GPIO_PIN_0)==GPIO_PIN_SET)
 80006ac:	e7b5      	b.n	800061a <main+0x4e>
 80006ae:	bf00      	nop
 80006b0:	08003558 	.word	0x08003558
 80006b4:	200000b8 	.word	0x200000b8
 80006b8:	40020000 	.word	0x40020000
 80006bc:	20000098 	.word	0x20000098
 80006c0:	08003504 	.word	0x08003504
 80006c4:	0800350c 	.word	0x0800350c
 80006c8:	08003530 	.word	0x08003530

080006cc <SystemClock_Config>:
/**
  * @brief System Clock Configuration
  * @retval None
  */
void SystemClock_Config(void)
{
 80006cc:	b580      	push	{r7, lr}
 80006ce:	b098      	sub	sp, #96	; 0x60
 80006d0:	af00      	add	r7, sp, #0
  RCC_OscInitTypeDef RCC_OscInitStruct = {0};
 80006d2:	f107 0330 	add.w	r3, r7, #48	; 0x30
 80006d6:	2230      	movs	r2, #48	; 0x30
 80006d8:	2100      	movs	r1, #0
 80006da:	4618      	mov	r0, r3
 80006dc:	f002 faf8 	bl	8002cd0 <memset>
  RCC_ClkInitTypeDef RCC_ClkInitStruct = {0};
 80006e0:	f107 031c 	add.w	r3, r7, #28
 80006e4:	2200      	movs	r2, #0
 80006e6:	601a      	str	r2, [r3, #0]
 80006e8:	605a      	str	r2, [r3, #4]
 80006ea:	609a      	str	r2, [r3, #8]
 80006ec:	60da      	str	r2, [r3, #12]
 80006ee:	611a      	str	r2, [r3, #16]
  RCC_PeriphCLKInitTypeDef PeriphClkInitStruct = {0};
 80006f0:	f107 030c 	add.w	r3, r7, #12
 80006f4:	2200      	movs	r2, #0
 80006f6:	601a      	str	r2, [r3, #0]
 80006f8:	605a      	str	r2, [r3, #4]
 80006fa:	609a      	str	r2, [r3, #8]
 80006fc:	60da      	str	r2, [r3, #12]

  /** Configure the main internal regulator output voltage
  */
  __HAL_RCC_PWR_CLK_ENABLE();
 80006fe:	2300      	movs	r3, #0
 8000700:	60bb      	str	r3, [r7, #8]
 8000702:	4b31      	ldr	r3, [pc, #196]	; (80007c8 <SystemClock_Config+0xfc>)
 8000704:	6c1b      	ldr	r3, [r3, #64]	; 0x40
 8000706:	4a30      	ldr	r2, [pc, #192]	; (80007c8 <SystemClock_Config+0xfc>)
 8000708:	f043 5380 	orr.w	r3, r3, #268435456	; 0x10000000
 800070c:	6413      	str	r3, [r2, #64]	; 0x40
 800070e:	4b2e      	ldr	r3, [pc, #184]	; (80007c8 <SystemClock_Config+0xfc>)
 8000710:	6c1b      	ldr	r3, [r3, #64]	; 0x40
 8000712:	f003 5380 	and.w	r3, r3, #268435456	; 0x10000000
 8000716:	60bb      	str	r3, [r7, #8]
 8000718:	68bb      	ldr	r3, [r7, #8]
  __HAL_PWR_VOLTAGESCALING_CONFIG(PWR_REGULATOR_VOLTAGE_SCALE1);
 800071a:	2300      	movs	r3, #0
 800071c:	607b      	str	r3, [r7, #4]
 800071e:	4b2b      	ldr	r3, [pc, #172]	; (80007cc <SystemClock_Config+0x100>)
 8000720:	681b      	ldr	r3, [r3, #0]
 8000722:	4a2a      	ldr	r2, [pc, #168]	; (80007cc <SystemClock_Config+0x100>)
 8000724:	f443 4380 	orr.w	r3, r3, #16384	; 0x4000
 8000728:	6013      	str	r3, [r2, #0]
 800072a:	4b28      	ldr	r3, [pc, #160]	; (80007cc <SystemClock_Config+0x100>)
 800072c:	681b      	ldr	r3, [r3, #0]
 800072e:	f403 4380 	and.w	r3, r3, #16384	; 0x4000
 8000732:	607b      	str	r3, [r7, #4]
 8000734:	687b      	ldr	r3, [r7, #4]
  /** Initializes the RCC Oscillators according to the specified parameters
  * in the RCC_OscInitTypeDef structure.
  */
  RCC_OscInitStruct.OscillatorType = RCC_OSCILLATORTYPE_HSI|RCC_OSCILLATORTYPE_LSI;
 8000736:	230a      	movs	r3, #10
 8000738:	633b      	str	r3, [r7, #48]	; 0x30
  RCC_OscInitStruct.HSIState = RCC_HSI_ON;
 800073a:	2301      	movs	r3, #1
 800073c:	63fb      	str	r3, [r7, #60]	; 0x3c
  RCC_OscInitStruct.HSICalibrationValue = RCC_HSICALIBRATION_DEFAULT;
 800073e:	2310      	movs	r3, #16
 8000740:	643b      	str	r3, [r7, #64]	; 0x40
  RCC_OscInitStruct.LSIState = RCC_LSI_ON;
 8000742:	2301      	movs	r3, #1
 8000744:	647b      	str	r3, [r7, #68]	; 0x44
  RCC_OscInitStruct.PLL.PLLState = RCC_PLL_ON;
 8000746:	2302      	movs	r3, #2
 8000748:	64bb      	str	r3, [r7, #72]	; 0x48
  RCC_OscInitStruct.PLL.PLLSource = RCC_PLLSOURCE_HSI;
 800074a:	2300      	movs	r3, #0
 800074c:	64fb      	str	r3, [r7, #76]	; 0x4c
  RCC_OscInitStruct.PLL.PLLM = 8;
 800074e:	2308      	movs	r3, #8
 8000750:	653b      	str	r3, [r7, #80]	; 0x50
  RCC_OscInitStruct.PLL.PLLN = 50;
 8000752:	2332      	movs	r3, #50	; 0x32
 8000754:	657b      	str	r3, [r7, #84]	; 0x54
  RCC_OscInitStruct.PLL.PLLP = RCC_PLLP_DIV4;
 8000756:	2304      	movs	r3, #4
 8000758:	65bb      	str	r3, [r7, #88]	; 0x58
  RCC_OscInitStruct.PLL.PLLQ = 7;
 800075a:	2307      	movs	r3, #7
 800075c:	65fb      	str	r3, [r7, #92]	; 0x5c
  if (HAL_RCC_OscConfig(&RCC_OscInitStruct) != HAL_OK)
 800075e:	f107 0330 	add.w	r3, r7, #48	; 0x30
 8000762:	4618      	mov	r0, r3
 8000764:	f000 fd68 	bl	8001238 <HAL_RCC_OscConfig>
 8000768:	4603      	mov	r3, r0
 800076a:	2b00      	cmp	r3, #0
 800076c:	d001      	beq.n	8000772 <SystemClock_Config+0xa6>
  {
    Error_Handler();
 800076e:	f000 f8ef 	bl	8000950 <Error_Handler>
  }
  /** Initializes the CPU, AHB and APB buses clocks
  */
  RCC_ClkInitStruct.ClockType = RCC_CLOCKTYPE_HCLK|RCC_CLOCKTYPE_SYSCLK
 8000772:	230f      	movs	r3, #15
 8000774:	61fb      	str	r3, [r7, #28]
                              |RCC_CLOCKTYPE_PCLK1|RCC_CLOCKTYPE_PCLK2;
  RCC_ClkInitStruct.SYSCLKSource = RCC_SYSCLKSOURCE_PLLCLK;
 8000776:	2302      	movs	r3, #2
 8000778:	623b      	str	r3, [r7, #32]
  RCC_ClkInitStruct.AHBCLKDivider = RCC_SYSCLK_DIV1;
 800077a:	2300      	movs	r3, #0
 800077c:	627b      	str	r3, [r7, #36]	; 0x24
  RCC_ClkInitStruct.APB1CLKDivider = RCC_HCLK_DIV4;
 800077e:	f44f 53a0 	mov.w	r3, #5120	; 0x1400
 8000782:	62bb      	str	r3, [r7, #40]	; 0x28
  RCC_ClkInitStruct.APB2CLKDivider = RCC_HCLK_DIV2;
 8000784:	f44f 5380 	mov.w	r3, #4096	; 0x1000
 8000788:	62fb      	str	r3, [r7, #44]	; 0x2c

  if (HAL_RCC_ClockConfig(&RCC_ClkInitStruct, FLASH_LATENCY_0) != HAL_OK)
 800078a:	f107 031c 	add.w	r3, r7, #28
 800078e:	2100      	movs	r1, #0
 8000790:	4618      	mov	r0, r3
 8000792:	f000 ffc1 	bl	8001718 <HAL_RCC_ClockConfig>
 8000796:	4603      	mov	r3, r0
 8000798:	2b00      	cmp	r3, #0
 800079a:	d001      	beq.n	80007a0 <SystemClock_Config+0xd4>
  {
    Error_Handler();
 800079c:	f000 f8d8 	bl	8000950 <Error_Handler>
  }
  PeriphClkInitStruct.PeriphClockSelection = RCC_PERIPHCLK_RTC;
 80007a0:	2302      	movs	r3, #2
 80007a2:	60fb      	str	r3, [r7, #12]
  PeriphClkInitStruct.RTCClockSelection = RCC_RTCCLKSOURCE_LSI;
 80007a4:	f44f 7300 	mov.w	r3, #512	; 0x200
 80007a8:	61bb      	str	r3, [r7, #24]
  if (HAL_RCCEx_PeriphCLKConfig(&PeriphClkInitStruct) != HAL_OK)
 80007aa:	f107 030c 	add.w	r3, r7, #12
 80007ae:	4618      	mov	r0, r3
 80007b0:	f001 f9a4 	bl	8001afc <HAL_RCCEx_PeriphCLKConfig>
 80007b4:	4603      	mov	r3, r0
 80007b6:	2b00      	cmp	r3, #0
 80007b8:	d001      	beq.n	80007be <SystemClock_Config+0xf2>
  {
    Error_Handler();
 80007ba:	f000 f8c9 	bl	8000950 <Error_Handler>
  }
}
 80007be:	bf00      	nop
 80007c0:	3760      	adds	r7, #96	; 0x60
 80007c2:	46bd      	mov	sp, r7
 80007c4:	bd80      	pop	{r7, pc}
 80007c6:	bf00      	nop
 80007c8:	40023800 	.word	0x40023800
 80007cc:	40007000 	.word	0x40007000

080007d0 <MX_RTC_Init>:
  * @brief RTC Initialization Function
  * @param None
  * @retval None
  */
 void MX_RTC_Init(void)
{
 80007d0:	b580      	push	{r7, lr}
 80007d2:	af00      	add	r7, sp, #0




  /* USER CODE BEGIN RTC_Init 2 */
hrtc.Instance = RTC;
 80007d4:	4b0f      	ldr	r3, [pc, #60]	; (8000814 <MX_RTC_Init+0x44>)
 80007d6:	4a10      	ldr	r2, [pc, #64]	; (8000818 <MX_RTC_Init+0x48>)
 80007d8:	601a      	str	r2, [r3, #0]
hrtc.Init.HourFormat = RTC_HOURFORMAT_12;
 80007da:	4b0e      	ldr	r3, [pc, #56]	; (8000814 <MX_RTC_Init+0x44>)
 80007dc:	2240      	movs	r2, #64	; 0x40
 80007de:	605a      	str	r2, [r3, #4]
hrtc.Init.AsynchPrediv = 0x7f;
 80007e0:	4b0c      	ldr	r3, [pc, #48]	; (8000814 <MX_RTC_Init+0x44>)
 80007e2:	227f      	movs	r2, #127	; 0x7f
 80007e4:	609a      	str	r2, [r3, #8]
hrtc.Init.SynchPrediv = 0xff;
 80007e6:	4b0b      	ldr	r3, [pc, #44]	; (8000814 <MX_RTC_Init+0x44>)
 80007e8:	22ff      	movs	r2, #255	; 0xff
 80007ea:	60da      	str	r2, [r3, #12]
hrtc.Init.OutPut = RTC_OUTPUT_DISABLE;
 80007ec:	4b09      	ldr	r3, [pc, #36]	; (8000814 <MX_RTC_Init+0x44>)
 80007ee:	2200      	movs	r2, #0
 80007f0:	611a      	str	r2, [r3, #16]
hrtc.Init.OutPutPolarity = RTC_OUTPUT_POLARITY_LOW;
 80007f2:	4b08      	ldr	r3, [pc, #32]	; (8000814 <MX_RTC_Init+0x44>)
 80007f4:	f44f 1280 	mov.w	r2, #1048576	; 0x100000
 80007f8:	615a      	str	r2, [r3, #20]
hrtc.Init.OutPutType = RTC_OUTPUT_TYPE_OPENDRAIN;
 80007fa:	4b06      	ldr	r3, [pc, #24]	; (8000814 <MX_RTC_Init+0x44>)
 80007fc:	2200      	movs	r2, #0
 80007fe:	619a      	str	r2, [r3, #24]

if(HAL_RTC_Init(&hrtc)!=HAL_OK)
 8000800:	4804      	ldr	r0, [pc, #16]	; (8000814 <MX_RTC_Init+0x44>)
 8000802:	f001 fa5d 	bl	8001cc0 <HAL_RTC_Init>
 8000806:	4603      	mov	r3, r0
 8000808:	2b00      	cmp	r3, #0
 800080a:	d001      	beq.n	8000810 <MX_RTC_Init+0x40>
{
	Error_Handler();
 800080c:	f000 f8a0 	bl	8000950 <Error_Handler>
}

  /* USER CODE END RTC_Init 2 */

}
 8000810:	bf00      	nop
 8000812:	bd80      	pop	{r7, pc}
 8000814:	20000098 	.word	0x20000098
 8000818:	40002800 	.word	0x40002800

0800081c <MX_USART2_UART_Init>:
  * @brief USART2 Initialization Function
  * @param None
  * @retval None
  */
 void MX_USART2_UART_Init(void)
{
 800081c:	b580      	push	{r7, lr}
 800081e:	af00      	add	r7, sp, #0
  /* USER CODE END USART2_Init 0 */

  /* USER CODE BEGIN USART2_Init 1 */

  /* USER CODE END USART2_Init 1 */
  huart2.Instance = USART2;
 8000820:	4b11      	ldr	r3, [pc, #68]	; (8000868 <MX_USART2_UART_Init+0x4c>)
 8000822:	4a12      	ldr	r2, [pc, #72]	; (800086c <MX_USART2_UART_Init+0x50>)
 8000824:	601a      	str	r2, [r3, #0]
  huart2.Init.BaudRate = 115200;
 8000826:	4b10      	ldr	r3, [pc, #64]	; (8000868 <MX_USART2_UART_Init+0x4c>)
 8000828:	f44f 32e1 	mov.w	r2, #115200	; 0x1c200
 800082c:	605a      	str	r2, [r3, #4]
  huart2.Init.WordLength = UART_WORDLENGTH_8B;
 800082e:	4b0e      	ldr	r3, [pc, #56]	; (8000868 <MX_USART2_UART_Init+0x4c>)
 8000830:	2200      	movs	r2, #0
 8000832:	609a      	str	r2, [r3, #8]
  huart2.Init.StopBits = UART_STOPBITS_1;
 8000834:	4b0c      	ldr	r3, [pc, #48]	; (8000868 <MX_USART2_UART_Init+0x4c>)
 8000836:	2200      	movs	r2, #0
 8000838:	60da      	str	r2, [r3, #12]
  huart2.Init.Parity = UART_PARITY_NONE;
 800083a:	4b0b      	ldr	r3, [pc, #44]	; (8000868 <MX_USART2_UART_Init+0x4c>)
 800083c:	2200      	movs	r2, #0
 800083e:	611a      	str	r2, [r3, #16]
  huart2.Init.Mode = UART_MODE_TX_RX;
 8000840:	4b09      	ldr	r3, [pc, #36]	; (8000868 <MX_USART2_UART_Init+0x4c>)
 8000842:	220c      	movs	r2, #12
 8000844:	615a      	str	r2, [r3, #20]
  huart2.Init.HwFlowCtl = UART_HWCONTROL_NONE;
 8000846:	4b08      	ldr	r3, [pc, #32]	; (8000868 <MX_USART2_UART_Init+0x4c>)
 8000848:	2200      	movs	r2, #0
 800084a:	619a      	str	r2, [r3, #24]
  huart2.Init.OverSampling = UART_OVERSAMPLING_16;
 800084c:	4b06      	ldr	r3, [pc, #24]	; (8000868 <MX_USART2_UART_Init+0x4c>)
 800084e:	2200      	movs	r2, #0
 8000850:	61da      	str	r2, [r3, #28]
  if (HAL_UART_Init(&huart2) != HAL_OK)
 8000852:	4805      	ldr	r0, [pc, #20]	; (8000868 <MX_USART2_UART_Init+0x4c>)
 8000854:	f001 fd66 	bl	8002324 <HAL_UART_Init>
 8000858:	4603      	mov	r3, r0
 800085a:	2b00      	cmp	r3, #0
 800085c:	d001      	beq.n	8000862 <MX_USART2_UART_Init+0x46>
  {
    Error_Handler();
 800085e:	f000 f877 	bl	8000950 <Error_Handler>
  }
  /* USER CODE BEGIN USART2_Init 2 */

  /* USER CODE END USART2_Init 2 */

}
 8000862:	bf00      	nop
 8000864:	bd80      	pop	{r7, pc}
 8000866:	bf00      	nop
 8000868:	200000b8 	.word	0x200000b8
 800086c:	40004400 	.word	0x40004400

08000870 <MX_GPIO_Init>:
  * @brief GPIO Initialization Function
  * @param None
  * @retval None
  */
 void MX_GPIO_Init(void)
{
 8000870:	b580      	push	{r7, lr}
 8000872:	b086      	sub	sp, #24
 8000874:	af00      	add	r7, sp, #0
  GPIO_InitTypeDef GPIO_InitStruct = {0};
 8000876:	1d3b      	adds	r3, r7, #4
 8000878:	2200      	movs	r2, #0
 800087a:	601a      	str	r2, [r3, #0]
 800087c:	605a      	str	r2, [r3, #4]
 800087e:	609a      	str	r2, [r3, #8]
 8000880:	60da      	str	r2, [r3, #12]
 8000882:	611a      	str	r2, [r3, #16]

  /* GPIO Ports Clock Enable */
  __HAL_RCC_GPIOA_CLK_ENABLE();
 8000884:	2300      	movs	r3, #0
 8000886:	603b      	str	r3, [r7, #0]
 8000888:	4b0d      	ldr	r3, [pc, #52]	; (80008c0 <MX_GPIO_Init+0x50>)
 800088a:	6b1b      	ldr	r3, [r3, #48]	; 0x30
 800088c:	4a0c      	ldr	r2, [pc, #48]	; (80008c0 <MX_GPIO_Init+0x50>)
 800088e:	f043 0301 	orr.w	r3, r3, #1
 8000892:	6313      	str	r3, [r2, #48]	; 0x30
 8000894:	4b0a      	ldr	r3, [pc, #40]	; (80008c0 <MX_GPIO_Init+0x50>)
 8000896:	6b1b      	ldr	r3, [r3, #48]	; 0x30
 8000898:	f003 0301 	and.w	r3, r3, #1
 800089c:	603b      	str	r3, [r7, #0]
 800089e:	683b      	ldr	r3, [r7, #0]

  /*Configure GPIO pin : BUTTON_Pin */
  GPIO_InitStruct.Pin = BUTTON_Pin;
 80008a0:	2301      	movs	r3, #1
 80008a2:	607b      	str	r3, [r7, #4]
  GPIO_InitStruct.Mode = GPIO_MODE_INPUT;
 80008a4:	2300      	movs	r3, #0
 80008a6:	60bb      	str	r3, [r7, #8]
  GPIO_InitStruct.Pull = GPIO_NOPULL;
 80008a8:	2300      	movs	r3, #0
 80008aa:	60fb      	str	r3, [r7, #12]
  HAL_GPIO_Init(BUTTON_GPIO_Port, &GPIO_InitStruct);
 80008ac:	1d3b      	adds	r3, r7, #4
 80008ae:	4619      	mov	r1, r3
 80008b0:	4804      	ldr	r0, [pc, #16]	; (80008c4 <MX_GPIO_Init+0x54>)
 80008b2:	f000 fb0f 	bl	8000ed4 <HAL_GPIO_Init>

}
 80008b6:	bf00      	nop
 80008b8:	3718      	adds	r7, #24
 80008ba:	46bd      	mov	sp, r7
 80008bc:	bd80      	pop	{r7, pc}
 80008be:	bf00      	nop
 80008c0:	40023800 	.word	0x40023800
 80008c4:	40020000 	.word	0x40020000

080008c8 <RTC_CalendarConfig>:

/* USER CODE BEGIN 4 */
 void RTC_CalendarConfig(void)
{
 80008c8:	b580      	push	{r7, lr}
 80008ca:	b086      	sub	sp, #24
 80008cc:	af00      	add	r7, sp, #0
	  RTC_TimeTypeDef sTime ;
	  RTC_DateTypeDef sDate ;

	  sTime.Hours = 12;
 80008ce:	230c      	movs	r3, #12
 80008d0:	713b      	strb	r3, [r7, #4]
	  sTime.Minutes = 11;
 80008d2:	230b      	movs	r3, #11
 80008d4:	717b      	strb	r3, [r7, #5]
	  sTime.Seconds = 10;
 80008d6:	230a      	movs	r3, #10
 80008d8:	71bb      	strb	r3, [r7, #6]
	  sTime.TimeFormat = RTC_HOURFORMAT_24;
 80008da:	2300      	movs	r3, #0
 80008dc:	71fb      	strb	r3, [r7, #7]
	  HAL_RTC_SetTime(&hrtc, &sTime, RTC_FORMAT_BIN);
 80008de:	1d3b      	adds	r3, r7, #4
 80008e0:	2200      	movs	r2, #0
 80008e2:	4619      	mov	r1, r3
 80008e4:	480a      	ldr	r0, [pc, #40]	; (8000910 <RTC_CalendarConfig+0x48>)
 80008e6:	f001 fa7c 	bl	8001de2 <HAL_RTC_SetTime>

	  sDate.Date = 21;
 80008ea:	2315      	movs	r3, #21
 80008ec:	70bb      	strb	r3, [r7, #2]
	  sDate.Month = RTC_MONTH_SEPTEMBER;
 80008ee:	2309      	movs	r3, #9
 80008f0:	707b      	strb	r3, [r7, #1]
	  sDate.WeekDay =RTC_WEEKDAY_TUESDAY;
 80008f2:	2302      	movs	r3, #2
 80008f4:	703b      	strb	r3, [r7, #0]
	  sDate.Year = 21;
 80008f6:	2315      	movs	r3, #21
 80008f8:	70fb      	strb	r3, [r7, #3]

	  HAL_RTC_SetDate(&hrtc, &sDate, RTC_FORMAT_BIN);
 80008fa:	463b      	mov	r3, r7
 80008fc:	2200      	movs	r2, #0
 80008fe:	4619      	mov	r1, r3
 8000900:	4803      	ldr	r0, [pc, #12]	; (8000910 <RTC_CalendarConfig+0x48>)
 8000902:	f001 fb89 	bl	8002018 <HAL_RTC_SetDate>
}
 8000906:	bf00      	nop
 8000908:	3718      	adds	r7, #24
 800090a:	46bd      	mov	sp, r7
 800090c:	bd80      	pop	{r7, pc}
 800090e:	bf00      	nop
 8000910:	20000098 	.word	0x20000098

08000914 <getDayofweek>:

 char* getDayofweek(uint8_t number)
 {
 8000914:	b4b0      	push	{r4, r5, r7}
 8000916:	b08b      	sub	sp, #44	; 0x2c
 8000918:	af00      	add	r7, sp, #0
 800091a:	4603      	mov	r3, r0
 800091c:	71fb      	strb	r3, [r7, #7]
 	char *weekday[] = { "Monday", "TuesDay", "Wednesday","Thursday","Friday","Saturday","Sunday"};
 800091e:	4b0b      	ldr	r3, [pc, #44]	; (800094c <getDayofweek+0x38>)
 8000920:	f107 040c 	add.w	r4, r7, #12
 8000924:	461d      	mov	r5, r3
 8000926:	cd0f      	ldmia	r5!, {r0, r1, r2, r3}
 8000928:	c40f      	stmia	r4!, {r0, r1, r2, r3}
 800092a:	e895 0007 	ldmia.w	r5, {r0, r1, r2}
 800092e:	e884 0007 	stmia.w	r4, {r0, r1, r2}

 	return weekday[number-1];
 8000932:	79fb      	ldrb	r3, [r7, #7]
 8000934:	3b01      	subs	r3, #1
 8000936:	009b      	lsls	r3, r3, #2
 8000938:	f107 0228 	add.w	r2, r7, #40	; 0x28
 800093c:	4413      	add	r3, r2
 800093e:	f853 3c1c 	ldr.w	r3, [r3, #-28]
 }
 8000942:	4618      	mov	r0, r3
 8000944:	372c      	adds	r7, #44	; 0x2c
 8000946:	46bd      	mov	sp, r7
 8000948:	bcb0      	pop	{r4, r5, r7}
 800094a:	4770      	bx	lr
 800094c:	080035bc 	.word	0x080035bc

08000950 <Error_Handler>:
/**
  * @brief  This function is executed in case of error occurrence.
  * @retval None
  */
void Error_Handler(void)
{
 8000950:	b480      	push	{r7}
 8000952:	af00      	add	r7, sp, #0
  \details Disables IRQ interrupts by setting the I-bit in the CPSR.
           Can only be executed in Privileged modes.
 */
__STATIC_FORCEINLINE void __disable_irq(void)
{
  __ASM volatile ("cpsid i" : : : "memory");
 8000954:	b672      	cpsid	i
  /* USER CODE BEGIN Error_Handler_Debug */
  /* User can add his own implementation to report the HAL error return state */
  __disable_irq();
  while (1)
 8000956:	e7fe      	b.n	8000956 <Error_Handler+0x6>

08000958 <HAL_MspInit>:
/* USER CODE END 0 */
/**
  * Initializes the Global MSP.
  */
void HAL_MspInit(void)
{
 8000958:	b580      	push	{r7, lr}
 800095a:	b082      	sub	sp, #8
 800095c:	af00      	add	r7, sp, #0
  /* USER CODE BEGIN MspInit 0 */

  /* USER CODE END MspInit 0 */

  __HAL_RCC_SYSCFG_CLK_ENABLE();
 800095e:	2300      	movs	r3, #0
 8000960:	607b      	str	r3, [r7, #4]
 8000962:	4b10      	ldr	r3, [pc, #64]	; (80009a4 <HAL_MspInit+0x4c>)
 8000964:	6c5b      	ldr	r3, [r3, #68]	; 0x44
 8000966:	4a0f      	ldr	r2, [pc, #60]	; (80009a4 <HAL_MspInit+0x4c>)
 8000968:	f443 4380 	orr.w	r3, r3, #16384	; 0x4000
 800096c:	6453      	str	r3, [r2, #68]	; 0x44
 800096e:	4b0d      	ldr	r3, [pc, #52]	; (80009a4 <HAL_MspInit+0x4c>)
 8000970:	6c5b      	ldr	r3, [r3, #68]	; 0x44
 8000972:	f403 4380 	and.w	r3, r3, #16384	; 0x4000
 8000976:	607b      	str	r3, [r7, #4]
 8000978:	687b      	ldr	r3, [r7, #4]
  __HAL_RCC_PWR_CLK_ENABLE();
 800097a:	2300      	movs	r3, #0
 800097c:	603b      	str	r3, [r7, #0]
 800097e:	4b09      	ldr	r3, [pc, #36]	; (80009a4 <HAL_MspInit+0x4c>)
 8000980:	6c1b      	ldr	r3, [r3, #64]	; 0x40
 8000982:	4a08      	ldr	r2, [pc, #32]	; (80009a4 <HAL_MspInit+0x4c>)
 8000984:	f043 5380 	orr.w	r3, r3, #268435456	; 0x10000000
 8000988:	6413      	str	r3, [r2, #64]	; 0x40
 800098a:	4b06      	ldr	r3, [pc, #24]	; (80009a4 <HAL_MspInit+0x4c>)
 800098c:	6c1b      	ldr	r3, [r3, #64]	; 0x40
 800098e:	f003 5380 	and.w	r3, r3, #268435456	; 0x10000000
 8000992:	603b      	str	r3, [r7, #0]
 8000994:	683b      	ldr	r3, [r7, #0]

  HAL_NVIC_SetPriorityGrouping(NVIC_PRIORITYGROUP_0);
 8000996:	2007      	movs	r0, #7
 8000998:	f000 fa68 	bl	8000e6c <HAL_NVIC_SetPriorityGrouping>
  /* System interrupt init*/

  /* USER CODE BEGIN MspInit 1 */

  /* USER CODE END MspInit 1 */
}
 800099c:	bf00      	nop
 800099e:	3708      	adds	r7, #8
 80009a0:	46bd      	mov	sp, r7
 80009a2:	bd80      	pop	{r7, pc}
 80009a4:	40023800 	.word	0x40023800

080009a8 <HAL_RTC_MspInit>:
* This function configures the hardware resources used in this example
* @param hrtc: RTC handle pointer
* @retval None
*/
void HAL_RTC_MspInit(RTC_HandleTypeDef* hrtc)
{
 80009a8:	b580      	push	{r7, lr}
 80009aa:	b092      	sub	sp, #72	; 0x48
 80009ac:	af00      	add	r7, sp, #0
 80009ae:	6078      	str	r0, [r7, #4]

  if(hrtc->Instance==RTC)
 80009b0:	687b      	ldr	r3, [r7, #4]
 80009b2:	681b      	ldr	r3, [r3, #0]
 80009b4:	4a14      	ldr	r2, [pc, #80]	; (8000a08 <HAL_RTC_MspInit+0x60>)
 80009b6:	4293      	cmp	r3, r2
 80009b8:	d121      	bne.n	80009fe <HAL_RTC_MspInit+0x56>
  {
  /* USER CODE BEGIN RTC_MspInit 0 */
RCC_OscInitTypeDef RCC_OscInitStruct;
RCC_PeriphCLKInitTypeDef RCC_RTCPeriClkInit;

RCC_OscInitStruct.OscillatorType = RCC_OSCILLATORTYPE_LSI;
 80009ba:	2308      	movs	r3, #8
 80009bc:	60bb      	str	r3, [r7, #8]
RCC_OscInitStruct.LSIState = RCC_LSI_ON;
 80009be:	2301      	movs	r3, #1
 80009c0:	61fb      	str	r3, [r7, #28]
RCC_OscInitStruct.PLL.PLLState = RCC_PLL_NONE;
 80009c2:	2300      	movs	r3, #0
 80009c4:	623b      	str	r3, [r7, #32]
if(HAL_RCC_OscConfig(&RCC_OscInitStruct)!=HAL_OK)
 80009c6:	f107 0308 	add.w	r3, r7, #8
 80009ca:	4618      	mov	r0, r3
 80009cc:	f000 fc34 	bl	8001238 <HAL_RCC_OscConfig>
 80009d0:	4603      	mov	r3, r0
 80009d2:	2b00      	cmp	r3, #0
 80009d4:	d001      	beq.n	80009da <HAL_RTC_MspInit+0x32>
{
	Error_Handler();
 80009d6:	f7ff ffbb 	bl	8000950 <Error_Handler>
}

RCC_RTCPeriClkInit.PeriphClockSelection = RCC_PERIPHCLK_RTC;
 80009da:	2302      	movs	r3, #2
 80009dc:	63bb      	str	r3, [r7, #56]	; 0x38
RCC_RTCPeriClkInit.RTCClockSelection = RCC_RTCCLKSOURCE_LSI;
 80009de:	f44f 7300 	mov.w	r3, #512	; 0x200
 80009e2:	647b      	str	r3, [r7, #68]	; 0x44
if(HAL_RCCEx_PeriphCLKConfig(&RCC_RTCPeriClkInit)!=HAL_OK)
 80009e4:	f107 0338 	add.w	r3, r7, #56	; 0x38
 80009e8:	4618      	mov	r0, r3
 80009ea:	f001 f887 	bl	8001afc <HAL_RCCEx_PeriphCLKConfig>
 80009ee:	4603      	mov	r3, r0
 80009f0:	2b00      	cmp	r3, #0
 80009f2:	d001      	beq.n	80009f8 <HAL_RTC_MspInit+0x50>
{
	Error_Handler();
 80009f4:	f7ff ffac 	bl	8000950 <Error_Handler>
}

  /* USER CODE END RTC_MspInit 0 */
    /* Peripheral clock enable */
    __HAL_RCC_RTC_ENABLE();
 80009f8:	4b04      	ldr	r3, [pc, #16]	; (8000a0c <HAL_RTC_MspInit+0x64>)
 80009fa:	2201      	movs	r2, #1
 80009fc:	601a      	str	r2, [r3, #0]
  /* USER CODE BEGIN RTC_MspInit 1 */

  /* USER CODE END RTC_MspInit 1 */
  }

}
 80009fe:	bf00      	nop
 8000a00:	3748      	adds	r7, #72	; 0x48
 8000a02:	46bd      	mov	sp, r7
 8000a04:	bd80      	pop	{r7, pc}
 8000a06:	bf00      	nop
 8000a08:	40002800 	.word	0x40002800
 8000a0c:	42470e3c 	.word	0x42470e3c

08000a10 <HAL_UART_MspInit>:
* This function configures the hardware resources used in this example
* @param huart: UART handle pointer
* @retval None
*/
void HAL_UART_MspInit(UART_HandleTypeDef* huart)
{
 8000a10:	b580      	push	{r7, lr}
 8000a12:	b08a      	sub	sp, #40	; 0x28
 8000a14:	af00      	add	r7, sp, #0
 8000a16:	6078      	str	r0, [r7, #4]
  GPIO_InitTypeDef GPIO_InitStruct = {0};
 8000a18:	f107 0314 	add.w	r3, r7, #20
 8000a1c:	2200      	movs	r2, #0
 8000a1e:	601a      	str	r2, [r3, #0]
 8000a20:	605a      	str	r2, [r3, #4]
 8000a22:	609a      	str	r2, [r3, #8]
 8000a24:	60da      	str	r2, [r3, #12]
 8000a26:	611a      	str	r2, [r3, #16]
  if(huart->Instance==USART2)
 8000a28:	687b      	ldr	r3, [r7, #4]
 8000a2a:	681b      	ldr	r3, [r3, #0]
 8000a2c:	4a19      	ldr	r2, [pc, #100]	; (8000a94 <HAL_UART_MspInit+0x84>)
 8000a2e:	4293      	cmp	r3, r2
 8000a30:	d12b      	bne.n	8000a8a <HAL_UART_MspInit+0x7a>
  {
  /* USER CODE BEGIN USART2_MspInit 0 */

  /* USER CODE END USART2_MspInit 0 */
    /* Peripheral clock enable */
    __HAL_RCC_USART2_CLK_ENABLE();
 8000a32:	2300      	movs	r3, #0
 8000a34:	613b      	str	r3, [r7, #16]
 8000a36:	4b18      	ldr	r3, [pc, #96]	; (8000a98 <HAL_UART_MspInit+0x88>)
 8000a38:	6c1b      	ldr	r3, [r3, #64]	; 0x40
 8000a3a:	4a17      	ldr	r2, [pc, #92]	; (8000a98 <HAL_UART_MspInit+0x88>)
 8000a3c:	f443 3300 	orr.w	r3, r3, #131072	; 0x20000
 8000a40:	6413      	str	r3, [r2, #64]	; 0x40
 8000a42:	4b15      	ldr	r3, [pc, #84]	; (8000a98 <HAL_UART_MspInit+0x88>)
 8000a44:	6c1b      	ldr	r3, [r3, #64]	; 0x40
 8000a46:	f403 3300 	and.w	r3, r3, #131072	; 0x20000
 8000a4a:	613b      	str	r3, [r7, #16]
 8000a4c:	693b      	ldr	r3, [r7, #16]

    __HAL_RCC_GPIOA_CLK_ENABLE();
 8000a4e:	2300      	movs	r3, #0
 8000a50:	60fb      	str	r3, [r7, #12]
 8000a52:	4b11      	ldr	r3, [pc, #68]	; (8000a98 <HAL_UART_MspInit+0x88>)
 8000a54:	6b1b      	ldr	r3, [r3, #48]	; 0x30
 8000a56:	4a10      	ldr	r2, [pc, #64]	; (8000a98 <HAL_UART_MspInit+0x88>)
 8000a58:	f043 0301 	orr.w	r3, r3, #1
 8000a5c:	6313      	str	r3, [r2, #48]	; 0x30
 8000a5e:	4b0e      	ldr	r3, [pc, #56]	; (8000a98 <HAL_UART_MspInit+0x88>)
 8000a60:	6b1b      	ldr	r3, [r3, #48]	; 0x30
 8000a62:	f003 0301 	and.w	r3, r3, #1
 8000a66:	60fb      	str	r3, [r7, #12]
 8000a68:	68fb      	ldr	r3, [r7, #12]
    /**USART2 GPIO Configuration
    PA2     ------> USART2_TX
    PA3     ------> USART2_RX
    */
    GPIO_InitStruct.Pin = GPIO_PIN_2|GPIO_PIN_3;
 8000a6a:	230c      	movs	r3, #12
 8000a6c:	617b      	str	r3, [r7, #20]
    GPIO_InitStruct.Mode = GPIO_MODE_AF_PP;
 8000a6e:	2302      	movs	r3, #2
 8000a70:	61bb      	str	r3, [r7, #24]
    GPIO_InitStruct.Pull = GPIO_NOPULL;
 8000a72:	2300      	movs	r3, #0
 8000a74:	61fb      	str	r3, [r7, #28]
    GPIO_InitStruct.Speed = GPIO_SPEED_FREQ_VERY_HIGH;
 8000a76:	2303      	movs	r3, #3
 8000a78:	623b      	str	r3, [r7, #32]
    GPIO_InitStruct.Alternate = GPIO_AF7_USART2;
 8000a7a:	2307      	movs	r3, #7
 8000a7c:	627b      	str	r3, [r7, #36]	; 0x24
    HAL_GPIO_Init(GPIOA, &GPIO_InitStruct);
 8000a7e:	f107 0314 	add.w	r3, r7, #20
 8000a82:	4619      	mov	r1, r3
 8000a84:	4805      	ldr	r0, [pc, #20]	; (8000a9c <HAL_UART_MspInit+0x8c>)
 8000a86:	f000 fa25 	bl	8000ed4 <HAL_GPIO_Init>
  /* USER CODE BEGIN USART2_MspInit 1 */

  /* USER CODE END USART2_MspInit 1 */
  }

}
 8000a8a:	bf00      	nop
 8000a8c:	3728      	adds	r7, #40	; 0x28
 8000a8e:	46bd      	mov	sp, r7
 8000a90:	bd80      	pop	{r7, pc}
 8000a92:	bf00      	nop
 8000a94:	40004400 	.word	0x40004400
 8000a98:	40023800 	.word	0x40023800
 8000a9c:	40020000 	.word	0x40020000

08000aa0 <NMI_Handler>:
/******************************************************************************/
/**
  * @brief This function handles Non maskable interrupt.
  */
void NMI_Handler(void)
{
 8000aa0:	b480      	push	{r7}
 8000aa2:	af00      	add	r7, sp, #0
  /* USER CODE BEGIN NonMaskableInt_IRQn 0 */

  /* USER CODE END NonMaskableInt_IRQn 0 */
  /* USER CODE BEGIN NonMaskableInt_IRQn 1 */
  while (1)
 8000aa4:	e7fe      	b.n	8000aa4 <NMI_Handler+0x4>

08000aa6 <HardFault_Handler>:

/**
  * @brief This function handles Hard fault interrupt.
  */
void HardFault_Handler(void)
{
 8000aa6:	b480      	push	{r7}
 8000aa8:	af00      	add	r7, sp, #0
  /* USER CODE BEGIN HardFault_IRQn 0 */

  /* USER CODE END HardFault_IRQn 0 */
  while (1)
 8000aaa:	e7fe      	b.n	8000aaa <HardFault_Handler+0x4>

08000aac <MemManage_Handler>:

/**
  * @brief This function handles Memory management fault.
  */
void MemManage_Handler(void)
{
 8000aac:	b480      	push	{r7}
 8000aae:	af00      	add	r7, sp, #0
  /* USER CODE BEGIN MemoryManagement_IRQn 0 */

  /* USER CODE END MemoryManagement_IRQn 0 */
  while (1)
 8000ab0:	e7fe      	b.n	8000ab0 <MemManage_Handler+0x4>

08000ab2 <BusFault_Handler>:

/**
  * @brief This function handles Pre-fetch fault, memory access fault.
  */
void BusFault_Handler(void)
{
 8000ab2:	b480      	push	{r7}
 8000ab4:	af00      	add	r7, sp, #0
  /* USER CODE BEGIN BusFault_IRQn 0 */

  /* USER CODE END BusFault_IRQn 0 */
  while (1)
 8000ab6:	e7fe      	b.n	8000ab6 <BusFault_Handler+0x4>

08000ab8 <UsageFault_Handler>:

/**
  * @brief This function handles Undefined instruction or illegal state.
  */
void UsageFault_Handler(void)
{
 8000ab8:	b480      	push	{r7}
 8000aba:	af00      	add	r7, sp, #0
  /* USER CODE BEGIN UsageFault_IRQn 0 */

  /* USER CODE END UsageFault_IRQn 0 */
  while (1)
 8000abc:	e7fe      	b.n	8000abc <UsageFault_Handler+0x4>

08000abe <SVC_Handler>:

/**
  * @brief This function handles System service call via SWI instruction.
  */
void SVC_Handler(void)
{
 8000abe:	b480      	push	{r7}
 8000ac0:	af00      	add	r7, sp, #0

  /* USER CODE END SVCall_IRQn 0 */
  /* USER CODE BEGIN SVCall_IRQn 1 */

  /* USER CODE END SVCall_IRQn 1 */
}
 8000ac2:	bf00      	nop
 8000ac4:	46bd      	mov	sp, r7
 8000ac6:	f85d 7b04 	ldr.w	r7, [sp], #4
 8000aca:	4770      	bx	lr

08000acc <DebugMon_Handler>:

/**
  * @brief This function handles Debug monitor.
  */
void DebugMon_Handler(void)
{
 8000acc:	b480      	push	{r7}
 8000ace:	af00      	add	r7, sp, #0

  /* USER CODE END DebugMonitor_IRQn 0 */
  /* USER CODE BEGIN DebugMonitor_IRQn 1 */

  /* USER CODE END DebugMonitor_IRQn 1 */
}
 8000ad0:	bf00      	nop
 8000ad2:	46bd      	mov	sp, r7
 8000ad4:	f85d 7b04 	ldr.w	r7, [sp], #4
 8000ad8:	4770      	bx	lr

08000ada <PendSV_Handler>:

/**
  * @brief This function handles Pendable request for system service.
  */
void PendSV_Handler(void)
{
 8000ada:	b480      	push	{r7}
 8000adc:	af00      	add	r7, sp, #0

  /* USER CODE END PendSV_IRQn 0 */
  /* USER CODE BEGIN PendSV_IRQn 1 */

  /* USER CODE END PendSV_IRQn 1 */
}
 8000ade:	bf00      	nop
 8000ae0:	46bd      	mov	sp, r7
 8000ae2:	f85d 7b04 	ldr.w	r7, [sp], #4
 8000ae6:	4770      	bx	lr

08000ae8 <SysTick_Handler>:

/**
  * @brief This function handles System tick timer.
  */
void SysTick_Handler(void)
{
 8000ae8:	b580      	push	{r7, lr}
 8000aea:	af00      	add	r7, sp, #0
  /* USER CODE BEGIN SysTick_IRQn 0 */

  /* USER CODE END SysTick_IRQn 0 */
  HAL_IncTick();
 8000aec:	f000 f8ca 	bl	8000c84 <HAL_IncTick>
  /* USER CODE BEGIN SysTick_IRQn 1 */

  /* USER CODE END SysTick_IRQn 1 */
}
 8000af0:	bf00      	nop
 8000af2:	bd80      	pop	{r7, pc}

08000af4 <_sbrk>:
 *
 * @param incr Memory size
 * @return Pointer to allocated memory
 */
void *_sbrk(ptrdiff_t incr)
{
 8000af4:	b580      	push	{r7, lr}
 8000af6:	b086      	sub	sp, #24
 8000af8:	af00      	add	r7, sp, #0
 8000afa:	6078      	str	r0, [r7, #4]
  extern uint8_t _end; /* Symbol defined in the linker script */
  extern uint8_t _estack; /* Symbol defined in the linker script */
  extern uint32_t _Min_Stack_Size; /* Symbol defined in the linker script */
  const uint32_t stack_limit = (uint32_t)&_estack - (uint32_t)&_Min_Stack_Size;
 8000afc:	4a14      	ldr	r2, [pc, #80]	; (8000b50 <_sbrk+0x5c>)
 8000afe:	4b15      	ldr	r3, [pc, #84]	; (8000b54 <_sbrk+0x60>)
 8000b00:	1ad3      	subs	r3, r2, r3
 8000b02:	617b      	str	r3, [r7, #20]
  const uint8_t *max_heap = (uint8_t *)stack_limit;
 8000b04:	697b      	ldr	r3, [r7, #20]
 8000b06:	613b      	str	r3, [r7, #16]
  uint8_t *prev_heap_end;

  /* Initialize heap end at first call */
  if (NULL == __sbrk_heap_end)
 8000b08:	4b13      	ldr	r3, [pc, #76]	; (8000b58 <_sbrk+0x64>)
 8000b0a:	681b      	ldr	r3, [r3, #0]
 8000b0c:	2b00      	cmp	r3, #0
 8000b0e:	d102      	bne.n	8000b16 <_sbrk+0x22>
  {
    __sbrk_heap_end = &_end;
 8000b10:	4b11      	ldr	r3, [pc, #68]	; (8000b58 <_sbrk+0x64>)
 8000b12:	4a12      	ldr	r2, [pc, #72]	; (8000b5c <_sbrk+0x68>)
 8000b14:	601a      	str	r2, [r3, #0]
  }

  /* Protect heap from growing into the reserved MSP stack */
  if (__sbrk_heap_end + incr > max_heap)
 8000b16:	4b10      	ldr	r3, [pc, #64]	; (8000b58 <_sbrk+0x64>)
 8000b18:	681a      	ldr	r2, [r3, #0]
 8000b1a:	687b      	ldr	r3, [r7, #4]
 8000b1c:	4413      	add	r3, r2
 8000b1e:	693a      	ldr	r2, [r7, #16]
 8000b20:	429a      	cmp	r2, r3
 8000b22:	d207      	bcs.n	8000b34 <_sbrk+0x40>
  {
    errno = ENOMEM;
 8000b24:	f002 f8aa 	bl	8002c7c <__errno>
 8000b28:	4602      	mov	r2, r0
 8000b2a:	230c      	movs	r3, #12
 8000b2c:	6013      	str	r3, [r2, #0]
    return (void *)-1;
 8000b2e:	f04f 33ff 	mov.w	r3, #4294967295
 8000b32:	e009      	b.n	8000b48 <_sbrk+0x54>
  }

  prev_heap_end = __sbrk_heap_end;
 8000b34:	4b08      	ldr	r3, [pc, #32]	; (8000b58 <_sbrk+0x64>)
 8000b36:	681b      	ldr	r3, [r3, #0]
 8000b38:	60fb      	str	r3, [r7, #12]
  __sbrk_heap_end += incr;
 8000b3a:	4b07      	ldr	r3, [pc, #28]	; (8000b58 <_sbrk+0x64>)
 8000b3c:	681a      	ldr	r2, [r3, #0]
 8000b3e:	687b      	ldr	r3, [r7, #4]
 8000b40:	4413      	add	r3, r2
 8000b42:	4a05      	ldr	r2, [pc, #20]	; (8000b58 <_sbrk+0x64>)
 8000b44:	6013      	str	r3, [r2, #0]

  return (void *)prev_heap_end;
 8000b46:	68fb      	ldr	r3, [r7, #12]
}
 8000b48:	4618      	mov	r0, r3
 8000b4a:	3718      	adds	r7, #24
 8000b4c:	46bd      	mov	sp, r7
 8000b4e:	bd80      	pop	{r7, pc}
 8000b50:	20020000 	.word	0x20020000
 8000b54:	00000400 	.word	0x00000400
 8000b58:	2000008c 	.word	0x2000008c
 8000b5c:	20000100 	.word	0x20000100

08000b60 <SystemInit>:
  *         configuration.
  * @param  None
  * @retval None
  */
void SystemInit(void)
{
 8000b60:	b480      	push	{r7}
 8000b62:	af00      	add	r7, sp, #0
  /* FPU settings ------------------------------------------------------------*/
  #if (__FPU_PRESENT == 1) && (__FPU_USED == 1)
    SCB->CPACR |= ((3UL << 10*2)|(3UL << 11*2));  /* set CP10 and CP11 Full Access */
 8000b64:	4b08      	ldr	r3, [pc, #32]	; (8000b88 <SystemInit+0x28>)
 8000b66:	f8d3 3088 	ldr.w	r3, [r3, #136]	; 0x88
 8000b6a:	4a07      	ldr	r2, [pc, #28]	; (8000b88 <SystemInit+0x28>)
 8000b6c:	f443 0370 	orr.w	r3, r3, #15728640	; 0xf00000
 8000b70:	f8c2 3088 	str.w	r3, [r2, #136]	; 0x88

  /* Configure the Vector Table location add offset address ------------------*/
#ifdef VECT_TAB_SRAM
  SCB->VTOR = SRAM_BASE | VECT_TAB_OFFSET; /* Vector Table Relocation in Internal SRAM */
#else
  SCB->VTOR = FLASH_BASE | VECT_TAB_OFFSET; /* Vector Table Relocation in Internal FLASH */
 8000b74:	4b04      	ldr	r3, [pc, #16]	; (8000b88 <SystemInit+0x28>)
 8000b76:	f04f 6200 	mov.w	r2, #134217728	; 0x8000000
 8000b7a:	609a      	str	r2, [r3, #8]
#endif
}
 8000b7c:	bf00      	nop
 8000b7e:	46bd      	mov	sp, r7
 8000b80:	f85d 7b04 	ldr.w	r7, [sp], #4
 8000b84:	4770      	bx	lr
 8000b86:	bf00      	nop
 8000b88:	e000ed00 	.word	0xe000ed00

08000b8c <Reset_Handler>:

    .section  .text.Reset_Handler
  .weak  Reset_Handler
  .type  Reset_Handler, %function
Reset_Handler:  
  ldr   sp, =_estack     /* set stack pointer */
 8000b8c:	f8df d034 	ldr.w	sp, [pc, #52]	; 8000bc4 <LoopFillZerobss+0x14>

/* Copy the data segment initializers from flash to SRAM */  
  movs  r1, #0
 8000b90:	2100      	movs	r1, #0
  b  LoopCopyDataInit
 8000b92:	e003      	b.n	8000b9c <LoopCopyDataInit>

08000b94 <CopyDataInit>:

CopyDataInit:
  ldr  r3, =_sidata
 8000b94:	4b0c      	ldr	r3, [pc, #48]	; (8000bc8 <LoopFillZerobss+0x18>)
  ldr  r3, [r3, r1]
 8000b96:	585b      	ldr	r3, [r3, r1]
  str  r3, [r0, r1]
 8000b98:	5043      	str	r3, [r0, r1]
  adds  r1, r1, #4
 8000b9a:	3104      	adds	r1, #4

08000b9c <LoopCopyDataInit>:
    
LoopCopyDataInit:
  ldr  r0, =_sdata
 8000b9c:	480b      	ldr	r0, [pc, #44]	; (8000bcc <LoopFillZerobss+0x1c>)
  ldr  r3, =_edata
 8000b9e:	4b0c      	ldr	r3, [pc, #48]	; (8000bd0 <LoopFillZerobss+0x20>)
  adds  r2, r0, r1
 8000ba0:	1842      	adds	r2, r0, r1
  cmp  r2, r3
 8000ba2:	429a      	cmp	r2, r3
  bcc  CopyDataInit
 8000ba4:	d3f6      	bcc.n	8000b94 <CopyDataInit>
  ldr  r2, =_sbss
 8000ba6:	4a0b      	ldr	r2, [pc, #44]	; (8000bd4 <LoopFillZerobss+0x24>)
  b  LoopFillZerobss
 8000ba8:	e002      	b.n	8000bb0 <LoopFillZerobss>

08000baa <FillZerobss>:
/* Zero fill the bss segment. */  
FillZerobss:
  movs  r3, #0
 8000baa:	2300      	movs	r3, #0
  str  r3, [r2], #4
 8000bac:	f842 3b04 	str.w	r3, [r2], #4

08000bb0 <LoopFillZerobss>:
    
LoopFillZerobss:
  ldr  r3, = _ebss
 8000bb0:	4b09      	ldr	r3, [pc, #36]	; (8000bd8 <LoopFillZerobss+0x28>)
  cmp  r2, r3
 8000bb2:	429a      	cmp	r2, r3
  bcc  FillZerobss
 8000bb4:	d3f9      	bcc.n	8000baa <FillZerobss>

/* Call the clock system intitialization function.*/
  bl  SystemInit   
 8000bb6:	f7ff ffd3 	bl	8000b60 <SystemInit>
/* Call static constructors */
    bl __libc_init_array
 8000bba:	f002 f865 	bl	8002c88 <__libc_init_array>
/* Call the application's entry point.*/
  bl  main
 8000bbe:	f7ff fd05 	bl	80005cc <main>
  bx  lr    
 8000bc2:	4770      	bx	lr
  ldr   sp, =_estack     /* set stack pointer */
 8000bc4:	20020000 	.word	0x20020000
  ldr  r3, =_sidata
 8000bc8:	08003634 	.word	0x08003634
  ldr  r0, =_sdata
 8000bcc:	20000000 	.word	0x20000000
  ldr  r3, =_edata
 8000bd0:	20000070 	.word	0x20000070
  ldr  r2, =_sbss
 8000bd4:	20000070 	.word	0x20000070
  ldr  r3, = _ebss
 8000bd8:	20000100 	.word	0x20000100

08000bdc <ADC_IRQHandler>:
 * @retval None       
*/
    .section  .text.Default_Handler,"ax",%progbits
Default_Handler:
Infinite_Loop:
  b  Infinite_Loop
 8000bdc:	e7fe      	b.n	8000bdc <ADC_IRQHandler>
	...

08000be0 <HAL_Init>:
  *         need to ensure that the SysTick time base is always set to 1 millisecond
  *         to have correct HAL operation.
  * @retval HAL status
  */
HAL_StatusTypeDef HAL_Init(void)
{
 8000be0:	b580      	push	{r7, lr}
 8000be2:	af00      	add	r7, sp, #0
  /* Configure Flash prefetch, Instruction cache, Data cache */ 
#if (INSTRUCTION_CACHE_ENABLE != 0U)
  __HAL_FLASH_INSTRUCTION_CACHE_ENABLE();
 8000be4:	4b0e      	ldr	r3, [pc, #56]	; (8000c20 <HAL_Init+0x40>)
 8000be6:	681b      	ldr	r3, [r3, #0]
 8000be8:	4a0d      	ldr	r2, [pc, #52]	; (8000c20 <HAL_Init+0x40>)
 8000bea:	f443 7300 	orr.w	r3, r3, #512	; 0x200
 8000bee:	6013      	str	r3, [r2, #0]
#endif /* INSTRUCTION_CACHE_ENABLE */

#if (DATA_CACHE_ENABLE != 0U)
  __HAL_FLASH_DATA_CACHE_ENABLE();
 8000bf0:	4b0b      	ldr	r3, [pc, #44]	; (8000c20 <HAL_Init+0x40>)
 8000bf2:	681b      	ldr	r3, [r3, #0]
 8000bf4:	4a0a      	ldr	r2, [pc, #40]	; (8000c20 <HAL_Init+0x40>)
 8000bf6:	f443 6380 	orr.w	r3, r3, #1024	; 0x400
 8000bfa:	6013      	str	r3, [r2, #0]
#endif /* DATA_CACHE_ENABLE */

#if (PREFETCH_ENABLE != 0U)
  __HAL_FLASH_PREFETCH_BUFFER_ENABLE();
 8000bfc:	4b08      	ldr	r3, [pc, #32]	; (8000c20 <HAL_Init+0x40>)
 8000bfe:	681b      	ldr	r3, [r3, #0]
 8000c00:	4a07      	ldr	r2, [pc, #28]	; (8000c20 <HAL_Init+0x40>)
 8000c02:	f443 7380 	orr.w	r3, r3, #256	; 0x100
 8000c06:	6013      	str	r3, [r2, #0]
#endif /* PREFETCH_ENABLE */

  /* Set Interrupt Group Priority */
  HAL_NVIC_SetPriorityGrouping(NVIC_PRIORITYGROUP_4);
 8000c08:	2003      	movs	r0, #3
 8000c0a:	f000 f92f 	bl	8000e6c <HAL_NVIC_SetPriorityGrouping>

  /* Use systick as time base source and configure 1ms tick (default clock after Reset is HSI) */
  HAL_InitTick(TICK_INT_PRIORITY);
 8000c0e:	2000      	movs	r0, #0
 8000c10:	f000 f808 	bl	8000c24 <HAL_InitTick>

  /* Init the low level hardware */
  HAL_MspInit();
 8000c14:	f7ff fea0 	bl	8000958 <HAL_MspInit>

  /* Return function status */
  return HAL_OK;
 8000c18:	2300      	movs	r3, #0
}
 8000c1a:	4618      	mov	r0, r3
 8000c1c:	bd80      	pop	{r7, pc}
 8000c1e:	bf00      	nop
 8000c20:	40023c00 	.word	0x40023c00

08000c24 <HAL_InitTick>:
  *       implementation  in user file.
  * @param TickPriority Tick interrupt priority.
  * @retval HAL status
  */
__weak HAL_StatusTypeDef HAL_InitTick(uint32_t TickPriority)
{
 8000c24:	b580      	push	{r7, lr}
 8000c26:	b082      	sub	sp, #8
 8000c28:	af00      	add	r7, sp, #0
 8000c2a:	6078      	str	r0, [r7, #4]
  /* Configure the SysTick to have interrupt in 1ms time basis*/
  if (HAL_SYSTICK_Config(SystemCoreClock / (1000U / uwTickFreq)) > 0U)
 8000c2c:	4b12      	ldr	r3, [pc, #72]	; (8000c78 <HAL_InitTick+0x54>)
 8000c2e:	681a      	ldr	r2, [r3, #0]
 8000c30:	4b12      	ldr	r3, [pc, #72]	; (8000c7c <HAL_InitTick+0x58>)
 8000c32:	781b      	ldrb	r3, [r3, #0]
 8000c34:	4619      	mov	r1, r3
 8000c36:	f44f 737a 	mov.w	r3, #1000	; 0x3e8
 8000c3a:	fbb3 f3f1 	udiv	r3, r3, r1
 8000c3e:	fbb2 f3f3 	udiv	r3, r2, r3
 8000c42:	4618      	mov	r0, r3
 8000c44:	f000 f939 	bl	8000eba <HAL_SYSTICK_Config>
 8000c48:	4603      	mov	r3, r0
 8000c4a:	2b00      	cmp	r3, #0
 8000c4c:	d001      	beq.n	8000c52 <HAL_InitTick+0x2e>
  {
    return HAL_ERROR;
 8000c4e:	2301      	movs	r3, #1
 8000c50:	e00e      	b.n	8000c70 <HAL_InitTick+0x4c>
  }

  /* Configure the SysTick IRQ priority */
  if (TickPriority < (1UL << __NVIC_PRIO_BITS))
 8000c52:	687b      	ldr	r3, [r7, #4]
 8000c54:	2b0f      	cmp	r3, #15
 8000c56:	d80a      	bhi.n	8000c6e <HAL_InitTick+0x4a>
  {
    HAL_NVIC_SetPriority(SysTick_IRQn, TickPriority, 0U);
 8000c58:	2200      	movs	r2, #0
 8000c5a:	6879      	ldr	r1, [r7, #4]
 8000c5c:	f04f 30ff 	mov.w	r0, #4294967295
 8000c60:	f000 f90f 	bl	8000e82 <HAL_NVIC_SetPriority>
    uwTickPrio = TickPriority;
 8000c64:	4a06      	ldr	r2, [pc, #24]	; (8000c80 <HAL_InitTick+0x5c>)
 8000c66:	687b      	ldr	r3, [r7, #4]
 8000c68:	6013      	str	r3, [r2, #0]
  {
    return HAL_ERROR;
  }

  /* Return function status */
  return HAL_OK;
 8000c6a:	2300      	movs	r3, #0
 8000c6c:	e000      	b.n	8000c70 <HAL_InitTick+0x4c>
    return HAL_ERROR;
 8000c6e:	2301      	movs	r3, #1
}
 8000c70:	4618      	mov	r0, r3
 8000c72:	3708      	adds	r7, #8
 8000c74:	46bd      	mov	sp, r7
 8000c76:	bd80      	pop	{r7, pc}
 8000c78:	20000000 	.word	0x20000000
 8000c7c:	20000008 	.word	0x20000008
 8000c80:	20000004 	.word	0x20000004

08000c84 <HAL_IncTick>:
 * @note This function is declared as __weak to be overwritten in case of other 
  *      implementations in user file.
  * @retval None
  */
__weak void HAL_IncTick(void)
{
 8000c84:	b480      	push	{r7}
 8000c86:	af00      	add	r7, sp, #0
  uwTick += uwTickFreq;
 8000c88:	4b06      	ldr	r3, [pc, #24]	; (8000ca4 <HAL_IncTick+0x20>)
 8000c8a:	781b      	ldrb	r3, [r3, #0]
 8000c8c:	461a      	mov	r2, r3
 8000c8e:	4b06      	ldr	r3, [pc, #24]	; (8000ca8 <HAL_IncTick+0x24>)
 8000c90:	681b      	ldr	r3, [r3, #0]
 8000c92:	4413      	add	r3, r2
 8000c94:	4a04      	ldr	r2, [pc, #16]	; (8000ca8 <HAL_IncTick+0x24>)
 8000c96:	6013      	str	r3, [r2, #0]
}
 8000c98:	bf00      	nop
 8000c9a:	46bd      	mov	sp, r7
 8000c9c:	f85d 7b04 	ldr.w	r7, [sp], #4
 8000ca0:	4770      	bx	lr
 8000ca2:	bf00      	nop
 8000ca4:	20000008 	.word	0x20000008
 8000ca8:	200000f8 	.word	0x200000f8

08000cac <HAL_GetTick>:
  * @note This function is declared as __weak to be overwritten in case of other 
  *       implementations in user file.
  * @retval tick value
  */
__weak uint32_t HAL_GetTick(void)
{
 8000cac:	b480      	push	{r7}
 8000cae:	af00      	add	r7, sp, #0
  return uwTick;
 8000cb0:	4b03      	ldr	r3, [pc, #12]	; (8000cc0 <HAL_GetTick+0x14>)
 8000cb2:	681b      	ldr	r3, [r3, #0]
}
 8000cb4:	4618      	mov	r0, r3
 8000cb6:	46bd      	mov	sp, r7
 8000cb8:	f85d 7b04 	ldr.w	r7, [sp], #4
 8000cbc:	4770      	bx	lr
 8000cbe:	bf00      	nop
 8000cc0:	200000f8 	.word	0x200000f8

08000cc4 <HAL_Delay>:
  *       implementations in user file.
  * @param Delay specifies the delay time length, in milliseconds.
  * @retval None
  */
__weak void HAL_Delay(uint32_t Delay)
{
 8000cc4:	b580      	push	{r7, lr}
 8000cc6:	b084      	sub	sp, #16
 8000cc8:	af00      	add	r7, sp, #0
 8000cca:	6078      	str	r0, [r7, #4]
  uint32_t tickstart = HAL_GetTick();
 8000ccc:	f7ff ffee 	bl	8000cac <HAL_GetTick>
 8000cd0:	60b8      	str	r0, [r7, #8]
  uint32_t wait = Delay;
 8000cd2:	687b      	ldr	r3, [r7, #4]
 8000cd4:	60fb      	str	r3, [r7, #12]

  /* Add a freq to guarantee minimum wait */
  if (wait < HAL_MAX_DELAY)
 8000cd6:	68fb      	ldr	r3, [r7, #12]
 8000cd8:	f1b3 3fff 	cmp.w	r3, #4294967295
 8000cdc:	d005      	beq.n	8000cea <HAL_Delay+0x26>
  {
    wait += (uint32_t)(uwTickFreq);
 8000cde:	4b09      	ldr	r3, [pc, #36]	; (8000d04 <HAL_Delay+0x40>)
 8000ce0:	781b      	ldrb	r3, [r3, #0]
 8000ce2:	461a      	mov	r2, r3
 8000ce4:	68fb      	ldr	r3, [r7, #12]
 8000ce6:	4413      	add	r3, r2
 8000ce8:	60fb      	str	r3, [r7, #12]
  }

  while((HAL_GetTick() - tickstart) < wait)
 8000cea:	bf00      	nop
 8000cec:	f7ff ffde 	bl	8000cac <HAL_GetTick>
 8000cf0:	4602      	mov	r2, r0
 8000cf2:	68bb      	ldr	r3, [r7, #8]
 8000cf4:	1ad3      	subs	r3, r2, r3
 8000cf6:	68fa      	ldr	r2, [r7, #12]
 8000cf8:	429a      	cmp	r2, r3
 8000cfa:	d8f7      	bhi.n	8000cec <HAL_Delay+0x28>
  {
  }
}
 8000cfc:	bf00      	nop
 8000cfe:	3710      	adds	r7, #16
 8000d00:	46bd      	mov	sp, r7
 8000d02:	bd80      	pop	{r7, pc}
 8000d04:	20000008 	.word	0x20000008

08000d08 <__NVIC_SetPriorityGrouping>:
           In case of a conflict between priority grouping and available
           priority bits (__NVIC_PRIO_BITS), the smallest possible priority group is set.
  \param [in]      PriorityGroup  Priority grouping field.
 */
__STATIC_INLINE void __NVIC_SetPriorityGrouping(uint32_t PriorityGroup)
{
 8000d08:	b480      	push	{r7}
 8000d0a:	b085      	sub	sp, #20
 8000d0c:	af00      	add	r7, sp, #0
 8000d0e:	6078      	str	r0, [r7, #4]
  uint32_t reg_value;
  uint32_t PriorityGroupTmp = (PriorityGroup & (uint32_t)0x07UL);             /* only values 0..7 are used          */
 8000d10:	687b      	ldr	r3, [r7, #4]
 8000d12:	f003 0307 	and.w	r3, r3, #7
 8000d16:	60fb      	str	r3, [r7, #12]

  reg_value  =  SCB->AIRCR;                                                   /* read old register configuration    */
 8000d18:	4b0c      	ldr	r3, [pc, #48]	; (8000d4c <__NVIC_SetPriorityGrouping+0x44>)
 8000d1a:	68db      	ldr	r3, [r3, #12]
 8000d1c:	60bb      	str	r3, [r7, #8]
  reg_value &= ~((uint32_t)(SCB_AIRCR_VECTKEY_Msk | SCB_AIRCR_PRIGROUP_Msk)); /* clear bits to change               */
 8000d1e:	68ba      	ldr	r2, [r7, #8]
 8000d20:	f64f 03ff 	movw	r3, #63743	; 0xf8ff
 8000d24:	4013      	ands	r3, r2
 8000d26:	60bb      	str	r3, [r7, #8]
  reg_value  =  (reg_value                                   |
                ((uint32_t)0x5FAUL << SCB_AIRCR_VECTKEY_Pos) |
                (PriorityGroupTmp << SCB_AIRCR_PRIGROUP_Pos)  );              /* Insert write key and priority group */
 8000d28:	68fb      	ldr	r3, [r7, #12]
 8000d2a:	021a      	lsls	r2, r3, #8
                ((uint32_t)0x5FAUL << SCB_AIRCR_VECTKEY_Pos) |
 8000d2c:	68bb      	ldr	r3, [r7, #8]
 8000d2e:	4313      	orrs	r3, r2
  reg_value  =  (reg_value                                   |
 8000d30:	f043 63bf 	orr.w	r3, r3, #100139008	; 0x5f80000
 8000d34:	f443 3300 	orr.w	r3, r3, #131072	; 0x20000
 8000d38:	60bb      	str	r3, [r7, #8]
  SCB->AIRCR =  reg_value;
 8000d3a:	4a04      	ldr	r2, [pc, #16]	; (8000d4c <__NVIC_SetPriorityGrouping+0x44>)
 8000d3c:	68bb      	ldr	r3, [r7, #8]
 8000d3e:	60d3      	str	r3, [r2, #12]
}
 8000d40:	bf00      	nop
 8000d42:	3714      	adds	r7, #20
 8000d44:	46bd      	mov	sp, r7
 8000d46:	f85d 7b04 	ldr.w	r7, [sp], #4
 8000d4a:	4770      	bx	lr
 8000d4c:	e000ed00 	.word	0xe000ed00

08000d50 <__NVIC_GetPriorityGrouping>:
  \brief   Get Priority Grouping
  \details Reads the priority grouping field from the NVIC Interrupt Controller.
  \return                Priority grouping field (SCB->AIRCR [10:8] PRIGROUP field).
 */
__STATIC_INLINE uint32_t __NVIC_GetPriorityGrouping(void)
{
 8000d50:	b480      	push	{r7}
 8000d52:	af00      	add	r7, sp, #0
  return ((uint32_t)((SCB->AIRCR & SCB_AIRCR_PRIGROUP_Msk) >> SCB_AIRCR_PRIGROUP_Pos));
 8000d54:	4b04      	ldr	r3, [pc, #16]	; (8000d68 <__NVIC_GetPriorityGrouping+0x18>)
 8000d56:	68db      	ldr	r3, [r3, #12]
 8000d58:	0a1b      	lsrs	r3, r3, #8
 8000d5a:	f003 0307 	and.w	r3, r3, #7
}
 8000d5e:	4618      	mov	r0, r3
 8000d60:	46bd      	mov	sp, r7
 8000d62:	f85d 7b04 	ldr.w	r7, [sp], #4
 8000d66:	4770      	bx	lr
 8000d68:	e000ed00 	.word	0xe000ed00

08000d6c <__NVIC_SetPriority>:
  \param [in]      IRQn  Interrupt number.
  \param [in]  priority  Priority to set.
  \note    The priority cannot be set for every processor exception.
 */
__STATIC_INLINE void __NVIC_SetPriority(IRQn_Type IRQn, uint32_t priority)
{
 8000d6c:	b480      	push	{r7}
 8000d6e:	b083      	sub	sp, #12
 8000d70:	af00      	add	r7, sp, #0
 8000d72:	4603      	mov	r3, r0
 8000d74:	6039      	str	r1, [r7, #0]
 8000d76:	71fb      	strb	r3, [r7, #7]
  if ((int32_t)(IRQn) >= 0)
 8000d78:	f997 3007 	ldrsb.w	r3, [r7, #7]
 8000d7c:	2b00      	cmp	r3, #0
 8000d7e:	db0a      	blt.n	8000d96 <__NVIC_SetPriority+0x2a>
  {
    NVIC->IP[((uint32_t)IRQn)]               = (uint8_t)((priority << (8U - __NVIC_PRIO_BITS)) & (uint32_t)0xFFUL);
 8000d80:	683b      	ldr	r3, [r7, #0]
 8000d82:	b2da      	uxtb	r2, r3
 8000d84:	490c      	ldr	r1, [pc, #48]	; (8000db8 <__NVIC_SetPriority+0x4c>)
 8000d86:	f997 3007 	ldrsb.w	r3, [r7, #7]
 8000d8a:	0112      	lsls	r2, r2, #4
 8000d8c:	b2d2      	uxtb	r2, r2
 8000d8e:	440b      	add	r3, r1
 8000d90:	f883 2300 	strb.w	r2, [r3, #768]	; 0x300
  }
  else
  {
    SCB->SHP[(((uint32_t)IRQn) & 0xFUL)-4UL] = (uint8_t)((priority << (8U - __NVIC_PRIO_BITS)) & (uint32_t)0xFFUL);
  }
}
 8000d94:	e00a      	b.n	8000dac <__NVIC_SetPriority+0x40>
    SCB->SHP[(((uint32_t)IRQn) & 0xFUL)-4UL] = (uint8_t)((priority << (8U - __NVIC_PRIO_BITS)) & (uint32_t)0xFFUL);
 8000d96:	683b      	ldr	r3, [r7, #0]
 8000d98:	b2da      	uxtb	r2, r3
 8000d9a:	4908      	ldr	r1, [pc, #32]	; (8000dbc <__NVIC_SetPriority+0x50>)
 8000d9c:	79fb      	ldrb	r3, [r7, #7]
 8000d9e:	f003 030f 	and.w	r3, r3, #15
 8000da2:	3b04      	subs	r3, #4
 8000da4:	0112      	lsls	r2, r2, #4
 8000da6:	b2d2      	uxtb	r2, r2
 8000da8:	440b      	add	r3, r1
 8000daa:	761a      	strb	r2, [r3, #24]
}
 8000dac:	bf00      	nop
 8000dae:	370c      	adds	r7, #12
 8000db0:	46bd      	mov	sp, r7
 8000db2:	f85d 7b04 	ldr.w	r7, [sp], #4
 8000db6:	4770      	bx	lr
 8000db8:	e000e100 	.word	0xe000e100
 8000dbc:	e000ed00 	.word	0xe000ed00

08000dc0 <NVIC_EncodePriority>:
  \param [in]   PreemptPriority  Preemptive priority value (starting from 0).
  \param [in]       SubPriority  Subpriority value (starting from 0).
  \return                        Encoded priority. Value can be used in the function \ref NVIC_SetPriority().
 */
__STATIC_INLINE uint32_t NVIC_EncodePriority (uint32_t PriorityGroup, uint32_t PreemptPriority, uint32_t SubPriority)
{
 8000dc0:	b480      	push	{r7}
 8000dc2:	b089      	sub	sp, #36	; 0x24
 8000dc4:	af00      	add	r7, sp, #0
 8000dc6:	60f8      	str	r0, [r7, #12]
 8000dc8:	60b9      	str	r1, [r7, #8]
 8000dca:	607a      	str	r2, [r7, #4]
  uint32_t PriorityGroupTmp = (PriorityGroup & (uint32_t)0x07UL);   /* only values 0..7 are used          */
 8000dcc:	68fb      	ldr	r3, [r7, #12]
 8000dce:	f003 0307 	and.w	r3, r3, #7
 8000dd2:	61fb      	str	r3, [r7, #28]
  uint32_t PreemptPriorityBits;
  uint32_t SubPriorityBits;

  PreemptPriorityBits = ((7UL - PriorityGroupTmp) > (uint32_t)(__NVIC_PRIO_BITS)) ? (uint32_t)(__NVIC_PRIO_BITS) : (uint32_t)(7UL - PriorityGroupTmp);
 8000dd4:	69fb      	ldr	r3, [r7, #28]
 8000dd6:	f1c3 0307 	rsb	r3, r3, #7
 8000dda:	2b04      	cmp	r3, #4
 8000ddc:	bf28      	it	cs
 8000dde:	2304      	movcs	r3, #4
 8000de0:	61bb      	str	r3, [r7, #24]
  SubPriorityBits     = ((PriorityGroupTmp + (uint32_t)(__NVIC_PRIO_BITS)) < (uint32_t)7UL) ? (uint32_t)0UL : (uint32_t)((PriorityGroupTmp - 7UL) + (uint32_t)(__NVIC_PRIO_BITS));
 8000de2:	69fb      	ldr	r3, [r7, #28]
 8000de4:	3304      	adds	r3, #4
 8000de6:	2b06      	cmp	r3, #6
 8000de8:	d902      	bls.n	8000df0 <NVIC_EncodePriority+0x30>
 8000dea:	69fb      	ldr	r3, [r7, #28]
 8000dec:	3b03      	subs	r3, #3
 8000dee:	e000      	b.n	8000df2 <NVIC_EncodePriority+0x32>
 8000df0:	2300      	movs	r3, #0
 8000df2:	617b      	str	r3, [r7, #20]

  return (
           ((PreemptPriority & (uint32_t)((1UL << (PreemptPriorityBits)) - 1UL)) << SubPriorityBits) |
 8000df4:	f04f 32ff 	mov.w	r2, #4294967295
 8000df8:	69bb      	ldr	r3, [r7, #24]
 8000dfa:	fa02 f303 	lsl.w	r3, r2, r3
 8000dfe:	43da      	mvns	r2, r3
 8000e00:	68bb      	ldr	r3, [r7, #8]
 8000e02:	401a      	ands	r2, r3
 8000e04:	697b      	ldr	r3, [r7, #20]
 8000e06:	409a      	lsls	r2, r3
           ((SubPriority     & (uint32_t)((1UL << (SubPriorityBits    )) - 1UL)))
 8000e08:	f04f 31ff 	mov.w	r1, #4294967295
 8000e0c:	697b      	ldr	r3, [r7, #20]
 8000e0e:	fa01 f303 	lsl.w	r3, r1, r3
 8000e12:	43d9      	mvns	r1, r3
 8000e14:	687b      	ldr	r3, [r7, #4]
 8000e16:	400b      	ands	r3, r1
           ((PreemptPriority & (uint32_t)((1UL << (PreemptPriorityBits)) - 1UL)) << SubPriorityBits) |
 8000e18:	4313      	orrs	r3, r2
         );
}
 8000e1a:	4618      	mov	r0, r3
 8000e1c:	3724      	adds	r7, #36	; 0x24
 8000e1e:	46bd      	mov	sp, r7
 8000e20:	f85d 7b04 	ldr.w	r7, [sp], #4
 8000e24:	4770      	bx	lr
	...

08000e28 <SysTick_Config>:
  \note    When the variable <b>__Vendor_SysTickConfig</b> is set to 1, then the
           function <b>SysTick_Config</b> is not included. In this case, the file <b><i>device</i>.h</b>
           must contain a vendor-specific implementation of this function.
 */
__STATIC_INLINE uint32_t SysTick_Config(uint32_t ticks)
{
 8000e28:	b580      	push	{r7, lr}
 8000e2a:	b082      	sub	sp, #8
 8000e2c:	af00      	add	r7, sp, #0
 8000e2e:	6078      	str	r0, [r7, #4]
  if ((ticks - 1UL) > SysTick_LOAD_RELOAD_Msk)
 8000e30:	687b      	ldr	r3, [r7, #4]
 8000e32:	3b01      	subs	r3, #1
 8000e34:	f1b3 7f80 	cmp.w	r3, #16777216	; 0x1000000
 8000e38:	d301      	bcc.n	8000e3e <SysTick_Config+0x16>
  {
    return (1UL);                                                   /* Reload value impossible */
 8000e3a:	2301      	movs	r3, #1
 8000e3c:	e00f      	b.n	8000e5e <SysTick_Config+0x36>
  }

  SysTick->LOAD  = (uint32_t)(ticks - 1UL);                         /* set reload register */
 8000e3e:	4a0a      	ldr	r2, [pc, #40]	; (8000e68 <SysTick_Config+0x40>)
 8000e40:	687b      	ldr	r3, [r7, #4]
 8000e42:	3b01      	subs	r3, #1
 8000e44:	6053      	str	r3, [r2, #4]
  NVIC_SetPriority (SysTick_IRQn, (1UL << __NVIC_PRIO_BITS) - 1UL); /* set Priority for Systick Interrupt */
 8000e46:	210f      	movs	r1, #15
 8000e48:	f04f 30ff 	mov.w	r0, #4294967295
 8000e4c:	f7ff ff8e 	bl	8000d6c <__NVIC_SetPriority>
  SysTick->VAL   = 0UL;                                             /* Load the SysTick Counter Value */
 8000e50:	4b05      	ldr	r3, [pc, #20]	; (8000e68 <SysTick_Config+0x40>)
 8000e52:	2200      	movs	r2, #0
 8000e54:	609a      	str	r2, [r3, #8]
  SysTick->CTRL  = SysTick_CTRL_CLKSOURCE_Msk |
 8000e56:	4b04      	ldr	r3, [pc, #16]	; (8000e68 <SysTick_Config+0x40>)
 8000e58:	2207      	movs	r2, #7
 8000e5a:	601a      	str	r2, [r3, #0]
                   SysTick_CTRL_TICKINT_Msk   |
                   SysTick_CTRL_ENABLE_Msk;                         /* Enable SysTick IRQ and SysTick Timer */
  return (0UL);                                                     /* Function successful */
 8000e5c:	2300      	movs	r3, #0
}
 8000e5e:	4618      	mov	r0, r3
 8000e60:	3708      	adds	r7, #8
 8000e62:	46bd      	mov	sp, r7
 8000e64:	bd80      	pop	{r7, pc}
 8000e66:	bf00      	nop
 8000e68:	e000e010 	.word	0xe000e010

08000e6c <HAL_NVIC_SetPriorityGrouping>:
  * @note   When the NVIC_PriorityGroup_0 is selected, IRQ preemption is no more possible. 
  *         The pending IRQ priority will be managed only by the subpriority. 
  * @retval None
  */
void HAL_NVIC_SetPriorityGrouping(uint32_t PriorityGroup)
{
 8000e6c:	b580      	push	{r7, lr}
 8000e6e:	b082      	sub	sp, #8
 8000e70:	af00      	add	r7, sp, #0
 8000e72:	6078      	str	r0, [r7, #4]
  /* Check the parameters */
  assert_param(IS_NVIC_PRIORITY_GROUP(PriorityGroup));
  
  /* Set the PRIGROUP[10:8] bits according to the PriorityGroup parameter value */
  NVIC_SetPriorityGrouping(PriorityGroup);
 8000e74:	6878      	ldr	r0, [r7, #4]
 8000e76:	f7ff ff47 	bl	8000d08 <__NVIC_SetPriorityGrouping>
}
 8000e7a:	bf00      	nop
 8000e7c:	3708      	adds	r7, #8
 8000e7e:	46bd      	mov	sp, r7
 8000e80:	bd80      	pop	{r7, pc}

08000e82 <HAL_NVIC_SetPriority>:
  *         This parameter can be a value between 0 and 15
  *         A lower priority value indicates a higher priority.          
  * @retval None
  */
void HAL_NVIC_SetPriority(IRQn_Type IRQn, uint32_t PreemptPriority, uint32_t SubPriority)
{ 
 8000e82:	b580      	push	{r7, lr}
 8000e84:	b086      	sub	sp, #24
 8000e86:	af00      	add	r7, sp, #0
 8000e88:	4603      	mov	r3, r0
 8000e8a:	60b9      	str	r1, [r7, #8]
 8000e8c:	607a      	str	r2, [r7, #4]
 8000e8e:	73fb      	strb	r3, [r7, #15]
  uint32_t prioritygroup = 0x00U;
 8000e90:	2300      	movs	r3, #0
 8000e92:	617b      	str	r3, [r7, #20]
  
  /* Check the parameters */
  assert_param(IS_NVIC_SUB_PRIORITY(SubPriority));
  assert_param(IS_NVIC_PREEMPTION_PRIORITY(PreemptPriority));
  
  prioritygroup = NVIC_GetPriorityGrouping();
 8000e94:	f7ff ff5c 	bl	8000d50 <__NVIC_GetPriorityGrouping>
 8000e98:	6178      	str	r0, [r7, #20]
  
  NVIC_SetPriority(IRQn, NVIC_EncodePriority(prioritygroup, PreemptPriority, SubPriority));
 8000e9a:	687a      	ldr	r2, [r7, #4]
 8000e9c:	68b9      	ldr	r1, [r7, #8]
 8000e9e:	6978      	ldr	r0, [r7, #20]
 8000ea0:	f7ff ff8e 	bl	8000dc0 <NVIC_EncodePriority>
 8000ea4:	4602      	mov	r2, r0
 8000ea6:	f997 300f 	ldrsb.w	r3, [r7, #15]
 8000eaa:	4611      	mov	r1, r2
 8000eac:	4618      	mov	r0, r3
 8000eae:	f7ff ff5d 	bl	8000d6c <__NVIC_SetPriority>
}
 8000eb2:	bf00      	nop
 8000eb4:	3718      	adds	r7, #24
 8000eb6:	46bd      	mov	sp, r7
 8000eb8:	bd80      	pop	{r7, pc}

08000eba <HAL_SYSTICK_Config>:
  * @param  TicksNumb Specifies the ticks Number of ticks between two interrupts.
  * @retval status:  - 0  Function succeeded.
  *                  - 1  Function failed.
  */
uint32_t HAL_SYSTICK_Config(uint32_t TicksNumb)
{
 8000eba:	b580      	push	{r7, lr}
 8000ebc:	b082      	sub	sp, #8
 8000ebe:	af00      	add	r7, sp, #0
 8000ec0:	6078      	str	r0, [r7, #4]
   return SysTick_Config(TicksNumb);
 8000ec2:	6878      	ldr	r0, [r7, #4]
 8000ec4:	f7ff ffb0 	bl	8000e28 <SysTick_Config>
 8000ec8:	4603      	mov	r3, r0
}
 8000eca:	4618      	mov	r0, r3
 8000ecc:	3708      	adds	r7, #8
 8000ece:	46bd      	mov	sp, r7
 8000ed0:	bd80      	pop	{r7, pc}
	...

08000ed4 <HAL_GPIO_Init>:
  * @param  GPIO_Init pointer to a GPIO_InitTypeDef structure that contains
  *         the configuration information for the specified GPIO peripheral.
  * @retval None
  */
void HAL_GPIO_Init(GPIO_TypeDef  *GPIOx, GPIO_InitTypeDef *GPIO_Init)
{
 8000ed4:	b480      	push	{r7}
 8000ed6:	b089      	sub	sp, #36	; 0x24
 8000ed8:	af00      	add	r7, sp, #0
 8000eda:	6078      	str	r0, [r7, #4]
 8000edc:	6039      	str	r1, [r7, #0]
  uint32_t position;
  uint32_t ioposition = 0x00U;
 8000ede:	2300      	movs	r3, #0
 8000ee0:	617b      	str	r3, [r7, #20]
  uint32_t iocurrent = 0x00U;
 8000ee2:	2300      	movs	r3, #0
 8000ee4:	613b      	str	r3, [r7, #16]
  uint32_t temp = 0x00U;
 8000ee6:	2300      	movs	r3, #0
 8000ee8:	61bb      	str	r3, [r7, #24]
  assert_param(IS_GPIO_PIN(GPIO_Init->Pin));
  assert_param(IS_GPIO_MODE(GPIO_Init->Mode));
  assert_param(IS_GPIO_PULL(GPIO_Init->Pull));

  /* Configure the port pins */
  for(position = 0U; position < GPIO_NUMBER; position++)
 8000eea:	2300      	movs	r3, #0
 8000eec:	61fb      	str	r3, [r7, #28]
 8000eee:	e16b      	b.n	80011c8 <HAL_GPIO_Init+0x2f4>
  {
    /* Get the IO position */
    ioposition = 0x01U << position;
 8000ef0:	2201      	movs	r2, #1
 8000ef2:	69fb      	ldr	r3, [r7, #28]
 8000ef4:	fa02 f303 	lsl.w	r3, r2, r3
 8000ef8:	617b      	str	r3, [r7, #20]
    /* Get the current IO position */
    iocurrent = (uint32_t)(GPIO_Init->Pin) & ioposition;
 8000efa:	683b      	ldr	r3, [r7, #0]
 8000efc:	681b      	ldr	r3, [r3, #0]
 8000efe:	697a      	ldr	r2, [r7, #20]
 8000f00:	4013      	ands	r3, r2
 8000f02:	613b      	str	r3, [r7, #16]

    if(iocurrent == ioposition)
 8000f04:	693a      	ldr	r2, [r7, #16]
 8000f06:	697b      	ldr	r3, [r7, #20]
 8000f08:	429a      	cmp	r2, r3
 8000f0a:	f040 815a 	bne.w	80011c2 <HAL_GPIO_Init+0x2ee>
    {
      /*--------------------- GPIO Mode Configuration ------------------------*/
      /* In case of Output or Alternate function mode selection */
      if((GPIO_Init->Mode == GPIO_MODE_OUTPUT_PP) || (GPIO_Init->Mode == GPIO_MODE_AF_PP) ||
 8000f0e:	683b      	ldr	r3, [r7, #0]
 8000f10:	685b      	ldr	r3, [r3, #4]
 8000f12:	2b01      	cmp	r3, #1
 8000f14:	d00b      	beq.n	8000f2e <HAL_GPIO_Init+0x5a>
 8000f16:	683b      	ldr	r3, [r7, #0]
 8000f18:	685b      	ldr	r3, [r3, #4]
 8000f1a:	2b02      	cmp	r3, #2
 8000f1c:	d007      	beq.n	8000f2e <HAL_GPIO_Init+0x5a>
         (GPIO_Init->Mode == GPIO_MODE_OUTPUT_OD) || (GPIO_Init->Mode == GPIO_MODE_AF_OD))
 8000f1e:	683b      	ldr	r3, [r7, #0]
 8000f20:	685b      	ldr	r3, [r3, #4]
      if((GPIO_Init->Mode == GPIO_MODE_OUTPUT_PP) || (GPIO_Init->Mode == GPIO_MODE_AF_PP) ||
 8000f22:	2b11      	cmp	r3, #17
 8000f24:	d003      	beq.n	8000f2e <HAL_GPIO_Init+0x5a>
         (GPIO_Init->Mode == GPIO_MODE_OUTPUT_OD) || (GPIO_Init->Mode == GPIO_MODE_AF_OD))
 8000f26:	683b      	ldr	r3, [r7, #0]
 8000f28:	685b      	ldr	r3, [r3, #4]
 8000f2a:	2b12      	cmp	r3, #18
 8000f2c:	d130      	bne.n	8000f90 <HAL_GPIO_Init+0xbc>
      {
        /* Check the Speed parameter */
        assert_param(IS_GPIO_SPEED(GPIO_Init->Speed));
        /* Configure the IO Speed */
        temp = GPIOx->OSPEEDR; 
 8000f2e:	687b      	ldr	r3, [r7, #4]
 8000f30:	689b      	ldr	r3, [r3, #8]
 8000f32:	61bb      	str	r3, [r7, #24]
        temp &= ~(GPIO_OSPEEDER_OSPEEDR0 << (position * 2U));
 8000f34:	69fb      	ldr	r3, [r7, #28]
 8000f36:	005b      	lsls	r3, r3, #1
 8000f38:	2203      	movs	r2, #3
 8000f3a:	fa02 f303 	lsl.w	r3, r2, r3
 8000f3e:	43db      	mvns	r3, r3
 8000f40:	69ba      	ldr	r2, [r7, #24]
 8000f42:	4013      	ands	r3, r2
 8000f44:	61bb      	str	r3, [r7, #24]
        temp |= (GPIO_Init->Speed << (position * 2U));
 8000f46:	683b      	ldr	r3, [r7, #0]
 8000f48:	68da      	ldr	r2, [r3, #12]
 8000f4a:	69fb      	ldr	r3, [r7, #28]
 8000f4c:	005b      	lsls	r3, r3, #1
 8000f4e:	fa02 f303 	lsl.w	r3, r2, r3
 8000f52:	69ba      	ldr	r2, [r7, #24]
 8000f54:	4313      	orrs	r3, r2
 8000f56:	61bb      	str	r3, [r7, #24]
        GPIOx->OSPEEDR = temp;
 8000f58:	687b      	ldr	r3, [r7, #4]
 8000f5a:	69ba      	ldr	r2, [r7, #24]
 8000f5c:	609a      	str	r2, [r3, #8]

        /* Configure the IO Output Type */
        temp = GPIOx->OTYPER;
 8000f5e:	687b      	ldr	r3, [r7, #4]
 8000f60:	685b      	ldr	r3, [r3, #4]
 8000f62:	61bb      	str	r3, [r7, #24]
        temp &= ~(GPIO_OTYPER_OT_0 << position) ;
 8000f64:	2201      	movs	r2, #1
 8000f66:	69fb      	ldr	r3, [r7, #28]
 8000f68:	fa02 f303 	lsl.w	r3, r2, r3
 8000f6c:	43db      	mvns	r3, r3
 8000f6e:	69ba      	ldr	r2, [r7, #24]
 8000f70:	4013      	ands	r3, r2
 8000f72:	61bb      	str	r3, [r7, #24]
        temp |= (((GPIO_Init->Mode & GPIO_OUTPUT_TYPE) >> 4U) << position);
 8000f74:	683b      	ldr	r3, [r7, #0]
 8000f76:	685b      	ldr	r3, [r3, #4]
 8000f78:	091b      	lsrs	r3, r3, #4
 8000f7a:	f003 0201 	and.w	r2, r3, #1
 8000f7e:	69fb      	ldr	r3, [r7, #28]
 8000f80:	fa02 f303 	lsl.w	r3, r2, r3
 8000f84:	69ba      	ldr	r2, [r7, #24]
 8000f86:	4313      	orrs	r3, r2
 8000f88:	61bb      	str	r3, [r7, #24]
        GPIOx->OTYPER = temp;
 8000f8a:	687b      	ldr	r3, [r7, #4]
 8000f8c:	69ba      	ldr	r2, [r7, #24]
 8000f8e:	605a      	str	r2, [r3, #4]
       }

      /* Activate the Pull-up or Pull down resistor for the current IO */
      temp = GPIOx->PUPDR;
 8000f90:	687b      	ldr	r3, [r7, #4]
 8000f92:	68db      	ldr	r3, [r3, #12]
 8000f94:	61bb      	str	r3, [r7, #24]
      temp &= ~(GPIO_PUPDR_PUPDR0 << (position * 2U));
 8000f96:	69fb      	ldr	r3, [r7, #28]
 8000f98:	005b      	lsls	r3, r3, #1
 8000f9a:	2203      	movs	r2, #3
 8000f9c:	fa02 f303 	lsl.w	r3, r2, r3
 8000fa0:	43db      	mvns	r3, r3
 8000fa2:	69ba      	ldr	r2, [r7, #24]
 8000fa4:	4013      	ands	r3, r2
 8000fa6:	61bb      	str	r3, [r7, #24]
      temp |= ((GPIO_Init->Pull) << (position * 2U));
 8000fa8:	683b      	ldr	r3, [r7, #0]
 8000faa:	689a      	ldr	r2, [r3, #8]
 8000fac:	69fb      	ldr	r3, [r7, #28]
 8000fae:	005b      	lsls	r3, r3, #1
 8000fb0:	fa02 f303 	lsl.w	r3, r2, r3
 8000fb4:	69ba      	ldr	r2, [r7, #24]
 8000fb6:	4313      	orrs	r3, r2
 8000fb8:	61bb      	str	r3, [r7, #24]
      GPIOx->PUPDR = temp;
 8000fba:	687b      	ldr	r3, [r7, #4]
 8000fbc:	69ba      	ldr	r2, [r7, #24]
 8000fbe:	60da      	str	r2, [r3, #12]

      /* In case of Alternate function mode selection */
      if((GPIO_Init->Mode == GPIO_MODE_AF_PP) || (GPIO_Init->Mode == GPIO_MODE_AF_OD))
 8000fc0:	683b      	ldr	r3, [r7, #0]
 8000fc2:	685b      	ldr	r3, [r3, #4]
 8000fc4:	2b02      	cmp	r3, #2
 8000fc6:	d003      	beq.n	8000fd0 <HAL_GPIO_Init+0xfc>
 8000fc8:	683b      	ldr	r3, [r7, #0]
 8000fca:	685b      	ldr	r3, [r3, #4]
 8000fcc:	2b12      	cmp	r3, #18
 8000fce:	d123      	bne.n	8001018 <HAL_GPIO_Init+0x144>
      {
        /* Check the Alternate function parameter */
        assert_param(IS_GPIO_AF(GPIO_Init->Alternate));
        /* Configure Alternate function mapped with the current IO */
        temp = GPIOx->AFR[position >> 3U];
 8000fd0:	69fb      	ldr	r3, [r7, #28]
 8000fd2:	08da      	lsrs	r2, r3, #3
 8000fd4:	687b      	ldr	r3, [r7, #4]
 8000fd6:	3208      	adds	r2, #8
 8000fd8:	f853 3022 	ldr.w	r3, [r3, r2, lsl #2]
 8000fdc:	61bb      	str	r3, [r7, #24]
        temp &= ~(0xFU << ((uint32_t)(position & 0x07U) * 4U)) ;
 8000fde:	69fb      	ldr	r3, [r7, #28]
 8000fe0:	f003 0307 	and.w	r3, r3, #7
 8000fe4:	009b      	lsls	r3, r3, #2
 8000fe6:	220f      	movs	r2, #15
 8000fe8:	fa02 f303 	lsl.w	r3, r2, r3
 8000fec:	43db      	mvns	r3, r3
 8000fee:	69ba      	ldr	r2, [r7, #24]
 8000ff0:	4013      	ands	r3, r2
 8000ff2:	61bb      	str	r3, [r7, #24]
        temp |= ((uint32_t)(GPIO_Init->Alternate) << (((uint32_t)position & 0x07U) * 4U));
 8000ff4:	683b      	ldr	r3, [r7, #0]
 8000ff6:	691a      	ldr	r2, [r3, #16]
 8000ff8:	69fb      	ldr	r3, [r7, #28]
 8000ffa:	f003 0307 	and.w	r3, r3, #7
 8000ffe:	009b      	lsls	r3, r3, #2
 8001000:	fa02 f303 	lsl.w	r3, r2, r3
 8001004:	69ba      	ldr	r2, [r7, #24]
 8001006:	4313      	orrs	r3, r2
 8001008:	61bb      	str	r3, [r7, #24]
        GPIOx->AFR[position >> 3U] = temp;
 800100a:	69fb      	ldr	r3, [r7, #28]
 800100c:	08da      	lsrs	r2, r3, #3
 800100e:	687b      	ldr	r3, [r7, #4]
 8001010:	3208      	adds	r2, #8
 8001012:	69b9      	ldr	r1, [r7, #24]
 8001014:	f843 1022 	str.w	r1, [r3, r2, lsl #2]
      }

      /* Configure IO Direction mode (Input, Output, Alternate or Analog) */
      temp = GPIOx->MODER;
 8001018:	687b      	ldr	r3, [r7, #4]
 800101a:	681b      	ldr	r3, [r3, #0]
 800101c:	61bb      	str	r3, [r7, #24]
      temp &= ~(GPIO_MODER_MODER0 << (position * 2U));
 800101e:	69fb      	ldr	r3, [r7, #28]
 8001020:	005b      	lsls	r3, r3, #1
 8001022:	2203      	movs	r2, #3
 8001024:	fa02 f303 	lsl.w	r3, r2, r3
 8001028:	43db      	mvns	r3, r3
 800102a:	69ba      	ldr	r2, [r7, #24]
 800102c:	4013      	ands	r3, r2
 800102e:	61bb      	str	r3, [r7, #24]
      temp |= ((GPIO_Init->Mode & GPIO_MODE) << (position * 2U));
 8001030:	683b      	ldr	r3, [r7, #0]
 8001032:	685b      	ldr	r3, [r3, #4]
 8001034:	f003 0203 	and.w	r2, r3, #3
 8001038:	69fb      	ldr	r3, [r7, #28]
 800103a:	005b      	lsls	r3, r3, #1
 800103c:	fa02 f303 	lsl.w	r3, r2, r3
 8001040:	69ba      	ldr	r2, [r7, #24]
 8001042:	4313      	orrs	r3, r2
 8001044:	61bb      	str	r3, [r7, #24]
      GPIOx->MODER = temp;
 8001046:	687b      	ldr	r3, [r7, #4]
 8001048:	69ba      	ldr	r2, [r7, #24]
 800104a:	601a      	str	r2, [r3, #0]

      /*--------------------- EXTI Mode Configuration ------------------------*/
      /* Configure the External Interrupt or event for the current IO */
      if((GPIO_Init->Mode & EXTI_MODE) == EXTI_MODE)
 800104c:	683b      	ldr	r3, [r7, #0]
 800104e:	685b      	ldr	r3, [r3, #4]
 8001050:	f003 5380 	and.w	r3, r3, #268435456	; 0x10000000
 8001054:	2b00      	cmp	r3, #0
 8001056:	f000 80b4 	beq.w	80011c2 <HAL_GPIO_Init+0x2ee>
      {
        /* Enable SYSCFG Clock */
        __HAL_RCC_SYSCFG_CLK_ENABLE();
 800105a:	2300      	movs	r3, #0
 800105c:	60fb      	str	r3, [r7, #12]
 800105e:	4b5f      	ldr	r3, [pc, #380]	; (80011dc <HAL_GPIO_Init+0x308>)
 8001060:	6c5b      	ldr	r3, [r3, #68]	; 0x44
 8001062:	4a5e      	ldr	r2, [pc, #376]	; (80011dc <HAL_GPIO_Init+0x308>)
 8001064:	f443 4380 	orr.w	r3, r3, #16384	; 0x4000
 8001068:	6453      	str	r3, [r2, #68]	; 0x44
 800106a:	4b5c      	ldr	r3, [pc, #368]	; (80011dc <HAL_GPIO_Init+0x308>)
 800106c:	6c5b      	ldr	r3, [r3, #68]	; 0x44
 800106e:	f403 4380 	and.w	r3, r3, #16384	; 0x4000
 8001072:	60fb      	str	r3, [r7, #12]
 8001074:	68fb      	ldr	r3, [r7, #12]

        temp = SYSCFG->EXTICR[position >> 2U];
 8001076:	4a5a      	ldr	r2, [pc, #360]	; (80011e0 <HAL_GPIO_Init+0x30c>)
 8001078:	69fb      	ldr	r3, [r7, #28]
 800107a:	089b      	lsrs	r3, r3, #2
 800107c:	3302      	adds	r3, #2
 800107e:	f852 3023 	ldr.w	r3, [r2, r3, lsl #2]
 8001082:	61bb      	str	r3, [r7, #24]
        temp &= ~(0x0FU << (4U * (position & 0x03U)));
 8001084:	69fb      	ldr	r3, [r7, #28]
 8001086:	f003 0303 	and.w	r3, r3, #3
 800108a:	009b      	lsls	r3, r3, #2
 800108c:	220f      	movs	r2, #15
 800108e:	fa02 f303 	lsl.w	r3, r2, r3
 8001092:	43db      	mvns	r3, r3
 8001094:	69ba      	ldr	r2, [r7, #24]
 8001096:	4013      	ands	r3, r2
 8001098:	61bb      	str	r3, [r7, #24]
        temp |= ((uint32_t)(GPIO_GET_INDEX(GPIOx)) << (4U * (position & 0x03U)));
 800109a:	687b      	ldr	r3, [r7, #4]
 800109c:	4a51      	ldr	r2, [pc, #324]	; (80011e4 <HAL_GPIO_Init+0x310>)
 800109e:	4293      	cmp	r3, r2
 80010a0:	d02b      	beq.n	80010fa <HAL_GPIO_Init+0x226>
 80010a2:	687b      	ldr	r3, [r7, #4]
 80010a4:	4a50      	ldr	r2, [pc, #320]	; (80011e8 <HAL_GPIO_Init+0x314>)
 80010a6:	4293      	cmp	r3, r2
 80010a8:	d025      	beq.n	80010f6 <HAL_GPIO_Init+0x222>
 80010aa:	687b      	ldr	r3, [r7, #4]
 80010ac:	4a4f      	ldr	r2, [pc, #316]	; (80011ec <HAL_GPIO_Init+0x318>)
 80010ae:	4293      	cmp	r3, r2
 80010b0:	d01f      	beq.n	80010f2 <HAL_GPIO_Init+0x21e>
 80010b2:	687b      	ldr	r3, [r7, #4]
 80010b4:	4a4e      	ldr	r2, [pc, #312]	; (80011f0 <HAL_GPIO_Init+0x31c>)
 80010b6:	4293      	cmp	r3, r2
 80010b8:	d019      	beq.n	80010ee <HAL_GPIO_Init+0x21a>
 80010ba:	687b      	ldr	r3, [r7, #4]
 80010bc:	4a4d      	ldr	r2, [pc, #308]	; (80011f4 <HAL_GPIO_Init+0x320>)
 80010be:	4293      	cmp	r3, r2
 80010c0:	d013      	beq.n	80010ea <HAL_GPIO_Init+0x216>
 80010c2:	687b      	ldr	r3, [r7, #4]
 80010c4:	4a4c      	ldr	r2, [pc, #304]	; (80011f8 <HAL_GPIO_Init+0x324>)
 80010c6:	4293      	cmp	r3, r2
 80010c8:	d00d      	beq.n	80010e6 <HAL_GPIO_Init+0x212>
 80010ca:	687b      	ldr	r3, [r7, #4]
 80010cc:	4a4b      	ldr	r2, [pc, #300]	; (80011fc <HAL_GPIO_Init+0x328>)
 80010ce:	4293      	cmp	r3, r2
 80010d0:	d007      	beq.n	80010e2 <HAL_GPIO_Init+0x20e>
 80010d2:	687b      	ldr	r3, [r7, #4]
 80010d4:	4a4a      	ldr	r2, [pc, #296]	; (8001200 <HAL_GPIO_Init+0x32c>)
 80010d6:	4293      	cmp	r3, r2
 80010d8:	d101      	bne.n	80010de <HAL_GPIO_Init+0x20a>
 80010da:	2307      	movs	r3, #7
 80010dc:	e00e      	b.n	80010fc <HAL_GPIO_Init+0x228>
 80010de:	2308      	movs	r3, #8
 80010e0:	e00c      	b.n	80010fc <HAL_GPIO_Init+0x228>
 80010e2:	2306      	movs	r3, #6
 80010e4:	e00a      	b.n	80010fc <HAL_GPIO_Init+0x228>
 80010e6:	2305      	movs	r3, #5
 80010e8:	e008      	b.n	80010fc <HAL_GPIO_Init+0x228>
 80010ea:	2304      	movs	r3, #4
 80010ec:	e006      	b.n	80010fc <HAL_GPIO_Init+0x228>
 80010ee:	2303      	movs	r3, #3
 80010f0:	e004      	b.n	80010fc <HAL_GPIO_Init+0x228>
 80010f2:	2302      	movs	r3, #2
 80010f4:	e002      	b.n	80010fc <HAL_GPIO_Init+0x228>
 80010f6:	2301      	movs	r3, #1
 80010f8:	e000      	b.n	80010fc <HAL_GPIO_Init+0x228>
 80010fa:	2300      	movs	r3, #0
 80010fc:	69fa      	ldr	r2, [r7, #28]
 80010fe:	f002 0203 	and.w	r2, r2, #3
 8001102:	0092      	lsls	r2, r2, #2
 8001104:	4093      	lsls	r3, r2
 8001106:	69ba      	ldr	r2, [r7, #24]
 8001108:	4313      	orrs	r3, r2
 800110a:	61bb      	str	r3, [r7, #24]
        SYSCFG->EXTICR[position >> 2U] = temp;
 800110c:	4934      	ldr	r1, [pc, #208]	; (80011e0 <HAL_GPIO_Init+0x30c>)
 800110e:	69fb      	ldr	r3, [r7, #28]
 8001110:	089b      	lsrs	r3, r3, #2
 8001112:	3302      	adds	r3, #2
 8001114:	69ba      	ldr	r2, [r7, #24]
 8001116:	f841 2023 	str.w	r2, [r1, r3, lsl #2]

        /* Clear EXTI line configuration */
        temp = EXTI->IMR;
 800111a:	4b3a      	ldr	r3, [pc, #232]	; (8001204 <HAL_GPIO_Init+0x330>)
 800111c:	681b      	ldr	r3, [r3, #0]
 800111e:	61bb      	str	r3, [r7, #24]
        temp &= ~((uint32_t)iocurrent);
 8001120:	693b      	ldr	r3, [r7, #16]
 8001122:	43db      	mvns	r3, r3
 8001124:	69ba      	ldr	r2, [r7, #24]
 8001126:	4013      	ands	r3, r2
 8001128:	61bb      	str	r3, [r7, #24]
        if((GPIO_Init->Mode & GPIO_MODE_IT) == GPIO_MODE_IT)
 800112a:	683b      	ldr	r3, [r7, #0]
 800112c:	685b      	ldr	r3, [r3, #4]
 800112e:	f403 3380 	and.w	r3, r3, #65536	; 0x10000
 8001132:	2b00      	cmp	r3, #0
 8001134:	d003      	beq.n	800113e <HAL_GPIO_Init+0x26a>
        {
          temp |= iocurrent;
 8001136:	69ba      	ldr	r2, [r7, #24]
 8001138:	693b      	ldr	r3, [r7, #16]
 800113a:	4313      	orrs	r3, r2
 800113c:	61bb      	str	r3, [r7, #24]
        }
        EXTI->IMR = temp;
 800113e:	4a31      	ldr	r2, [pc, #196]	; (8001204 <HAL_GPIO_Init+0x330>)
 8001140:	69bb      	ldr	r3, [r7, #24]
 8001142:	6013      	str	r3, [r2, #0]

        temp = EXTI->EMR;
 8001144:	4b2f      	ldr	r3, [pc, #188]	; (8001204 <HAL_GPIO_Init+0x330>)
 8001146:	685b      	ldr	r3, [r3, #4]
 8001148:	61bb      	str	r3, [r7, #24]
        temp &= ~((uint32_t)iocurrent);
 800114a:	693b      	ldr	r3, [r7, #16]
 800114c:	43db      	mvns	r3, r3
 800114e:	69ba      	ldr	r2, [r7, #24]
 8001150:	4013      	ands	r3, r2
 8001152:	61bb      	str	r3, [r7, #24]
        if((GPIO_Init->Mode & GPIO_MODE_EVT) == GPIO_MODE_EVT)
 8001154:	683b      	ldr	r3, [r7, #0]
 8001156:	685b      	ldr	r3, [r3, #4]
 8001158:	f403 3300 	and.w	r3, r3, #131072	; 0x20000
 800115c:	2b00      	cmp	r3, #0
 800115e:	d003      	beq.n	8001168 <HAL_GPIO_Init+0x294>
        {
          temp |= iocurrent;
 8001160:	69ba      	ldr	r2, [r7, #24]
 8001162:	693b      	ldr	r3, [r7, #16]
 8001164:	4313      	orrs	r3, r2
 8001166:	61bb      	str	r3, [r7, #24]
        }
        EXTI->EMR = temp;
 8001168:	4a26      	ldr	r2, [pc, #152]	; (8001204 <HAL_GPIO_Init+0x330>)
 800116a:	69bb      	ldr	r3, [r7, #24]
 800116c:	6053      	str	r3, [r2, #4]

        /* Clear Rising Falling edge configuration */
        temp = EXTI->RTSR;
 800116e:	4b25      	ldr	r3, [pc, #148]	; (8001204 <HAL_GPIO_Init+0x330>)
 8001170:	689b      	ldr	r3, [r3, #8]
 8001172:	61bb      	str	r3, [r7, #24]
        temp &= ~((uint32_t)iocurrent);
 8001174:	693b      	ldr	r3, [r7, #16]
 8001176:	43db      	mvns	r3, r3
 8001178:	69ba      	ldr	r2, [r7, #24]
 800117a:	4013      	ands	r3, r2
 800117c:	61bb      	str	r3, [r7, #24]
        if((GPIO_Init->Mode & RISING_EDGE) == RISING_EDGE)
 800117e:	683b      	ldr	r3, [r7, #0]
 8001180:	685b      	ldr	r3, [r3, #4]
 8001182:	f403 1380 	and.w	r3, r3, #1048576	; 0x100000
 8001186:	2b00      	cmp	r3, #0
 8001188:	d003      	beq.n	8001192 <HAL_GPIO_Init+0x2be>
        {
          temp |= iocurrent;
 800118a:	69ba      	ldr	r2, [r7, #24]
 800118c:	693b      	ldr	r3, [r7, #16]
 800118e:	4313      	orrs	r3, r2
 8001190:	61bb      	str	r3, [r7, #24]
        }
        EXTI->RTSR = temp;
 8001192:	4a1c      	ldr	r2, [pc, #112]	; (8001204 <HAL_GPIO_Init+0x330>)
 8001194:	69bb      	ldr	r3, [r7, #24]
 8001196:	6093      	str	r3, [r2, #8]

        temp = EXTI->FTSR;
 8001198:	4b1a      	ldr	r3, [pc, #104]	; (8001204 <HAL_GPIO_Init+0x330>)
 800119a:	68db      	ldr	r3, [r3, #12]
 800119c:	61bb      	str	r3, [r7, #24]
        temp &= ~((uint32_t)iocurrent);
 800119e:	693b      	ldr	r3, [r7, #16]
 80011a0:	43db      	mvns	r3, r3
 80011a2:	69ba      	ldr	r2, [r7, #24]
 80011a4:	4013      	ands	r3, r2
 80011a6:	61bb      	str	r3, [r7, #24]
        if((GPIO_Init->Mode & FALLING_EDGE) == FALLING_EDGE)
 80011a8:	683b      	ldr	r3, [r7, #0]
 80011aa:	685b      	ldr	r3, [r3, #4]
 80011ac:	f403 1300 	and.w	r3, r3, #2097152	; 0x200000
 80011b0:	2b00      	cmp	r3, #0
 80011b2:	d003      	beq.n	80011bc <HAL_GPIO_Init+0x2e8>
        {
          temp |= iocurrent;
 80011b4:	69ba      	ldr	r2, [r7, #24]
 80011b6:	693b      	ldr	r3, [r7, #16]
 80011b8:	4313      	orrs	r3, r2
 80011ba:	61bb      	str	r3, [r7, #24]
        }
        EXTI->FTSR = temp;
 80011bc:	4a11      	ldr	r2, [pc, #68]	; (8001204 <HAL_GPIO_Init+0x330>)
 80011be:	69bb      	ldr	r3, [r7, #24]
 80011c0:	60d3      	str	r3, [r2, #12]
  for(position = 0U; position < GPIO_NUMBER; position++)
 80011c2:	69fb      	ldr	r3, [r7, #28]
 80011c4:	3301      	adds	r3, #1
 80011c6:	61fb      	str	r3, [r7, #28]
 80011c8:	69fb      	ldr	r3, [r7, #28]
 80011ca:	2b0f      	cmp	r3, #15
 80011cc:	f67f ae90 	bls.w	8000ef0 <HAL_GPIO_Init+0x1c>
      }
    }
  }
}
 80011d0:	bf00      	nop
 80011d2:	3724      	adds	r7, #36	; 0x24
 80011d4:	46bd      	mov	sp, r7
 80011d6:	f85d 7b04 	ldr.w	r7, [sp], #4
 80011da:	4770      	bx	lr
 80011dc:	40023800 	.word	0x40023800
 80011e0:	40013800 	.word	0x40013800
 80011e4:	40020000 	.word	0x40020000
 80011e8:	40020400 	.word	0x40020400
 80011ec:	40020800 	.word	0x40020800
 80011f0:	40020c00 	.word	0x40020c00
 80011f4:	40021000 	.word	0x40021000
 80011f8:	40021400 	.word	0x40021400
 80011fc:	40021800 	.word	0x40021800
 8001200:	40021c00 	.word	0x40021c00
 8001204:	40013c00 	.word	0x40013c00

08001208 <HAL_GPIO_ReadPin>:
  * @param  GPIO_Pin specifies the port bit to read.
  *         This parameter can be GPIO_PIN_x where x can be (0..15).
  * @retval The input port pin value.
  */
GPIO_PinState HAL_GPIO_ReadPin(GPIO_TypeDef* GPIOx, uint16_t GPIO_Pin)
{
 8001208:	b480      	push	{r7}
 800120a:	b085      	sub	sp, #20
 800120c:	af00      	add	r7, sp, #0
 800120e:	6078      	str	r0, [r7, #4]
 8001210:	460b      	mov	r3, r1
 8001212:	807b      	strh	r3, [r7, #2]
  GPIO_PinState bitstatus;

  /* Check the parameters */
  assert_param(IS_GPIO_PIN(GPIO_Pin));

  if((GPIOx->IDR & GPIO_Pin) != (uint32_t)GPIO_PIN_RESET)
 8001214:	687b      	ldr	r3, [r7, #4]
 8001216:	691a      	ldr	r2, [r3, #16]
 8001218:	887b      	ldrh	r3, [r7, #2]
 800121a:	4013      	ands	r3, r2
 800121c:	2b00      	cmp	r3, #0
 800121e:	d002      	beq.n	8001226 <HAL_GPIO_ReadPin+0x1e>
  {
    bitstatus = GPIO_PIN_SET;
 8001220:	2301      	movs	r3, #1
 8001222:	73fb      	strb	r3, [r7, #15]
 8001224:	e001      	b.n	800122a <HAL_GPIO_ReadPin+0x22>
  }
  else
  {
    bitstatus = GPIO_PIN_RESET;
 8001226:	2300      	movs	r3, #0
 8001228:	73fb      	strb	r3, [r7, #15]
  }
  return bitstatus;
 800122a:	7bfb      	ldrb	r3, [r7, #15]
}
 800122c:	4618      	mov	r0, r3
 800122e:	3714      	adds	r7, #20
 8001230:	46bd      	mov	sp, r7
 8001232:	f85d 7b04 	ldr.w	r7, [sp], #4
 8001236:	4770      	bx	lr

08001238 <HAL_RCC_OscConfig>:
  *         supported by this API. User should request a transition to HSE Off
  *         first and then HSE On or HSE Bypass.
  * @retval HAL status
  */
__weak HAL_StatusTypeDef HAL_RCC_OscConfig(RCC_OscInitTypeDef  *RCC_OscInitStruct)
{
 8001238:	b580      	push	{r7, lr}
 800123a:	b086      	sub	sp, #24
 800123c:	af00      	add	r7, sp, #0
 800123e:	6078      	str	r0, [r7, #4]
  uint32_t tickstart, pll_config;

  /* Check Null pointer */
  if(RCC_OscInitStruct == NULL)
 8001240:	687b      	ldr	r3, [r7, #4]
 8001242:	2b00      	cmp	r3, #0
 8001244:	d101      	bne.n	800124a <HAL_RCC_OscConfig+0x12>
  {
    return HAL_ERROR;
 8001246:	2301      	movs	r3, #1
 8001248:	e25b      	b.n	8001702 <HAL_RCC_OscConfig+0x4ca>
  }

  /* Check the parameters */
  assert_param(IS_RCC_OSCILLATORTYPE(RCC_OscInitStruct->OscillatorType));
  /*------------------------------- HSE Configuration ------------------------*/
  if(((RCC_OscInitStruct->OscillatorType) & RCC_OSCILLATORTYPE_HSE) == RCC_OSCILLATORTYPE_HSE)
 800124a:	687b      	ldr	r3, [r7, #4]
 800124c:	681b      	ldr	r3, [r3, #0]
 800124e:	f003 0301 	and.w	r3, r3, #1
 8001252:	2b00      	cmp	r3, #0
 8001254:	d075      	beq.n	8001342 <HAL_RCC_OscConfig+0x10a>
  {
    /* Check the parameters */
    assert_param(IS_RCC_HSE(RCC_OscInitStruct->HSEState));
    /* When the HSE is used as system clock or clock source for PLL in these cases HSE will not disabled */
    if((__HAL_RCC_GET_SYSCLK_SOURCE() == RCC_CFGR_SWS_HSE) ||\
 8001256:	4ba3      	ldr	r3, [pc, #652]	; (80014e4 <HAL_RCC_OscConfig+0x2ac>)
 8001258:	689b      	ldr	r3, [r3, #8]
 800125a:	f003 030c 	and.w	r3, r3, #12
 800125e:	2b04      	cmp	r3, #4
 8001260:	d00c      	beq.n	800127c <HAL_RCC_OscConfig+0x44>
      ((__HAL_RCC_GET_SYSCLK_SOURCE() == RCC_CFGR_SWS_PLL) && ((RCC->PLLCFGR & RCC_PLLCFGR_PLLSRC) == RCC_PLLCFGR_PLLSRC_HSE)))
 8001262:	4ba0      	ldr	r3, [pc, #640]	; (80014e4 <HAL_RCC_OscConfig+0x2ac>)
 8001264:	689b      	ldr	r3, [r3, #8]
 8001266:	f003 030c 	and.w	r3, r3, #12
    if((__HAL_RCC_GET_SYSCLK_SOURCE() == RCC_CFGR_SWS_HSE) ||\
 800126a:	2b08      	cmp	r3, #8
 800126c:	d112      	bne.n	8001294 <HAL_RCC_OscConfig+0x5c>
      ((__HAL_RCC_GET_SYSCLK_SOURCE() == RCC_CFGR_SWS_PLL) && ((RCC->PLLCFGR & RCC_PLLCFGR_PLLSRC) == RCC_PLLCFGR_PLLSRC_HSE)))
 800126e:	4b9d      	ldr	r3, [pc, #628]	; (80014e4 <HAL_RCC_OscConfig+0x2ac>)
 8001270:	685b      	ldr	r3, [r3, #4]
 8001272:	f403 0380 	and.w	r3, r3, #4194304	; 0x400000
 8001276:	f5b3 0f80 	cmp.w	r3, #4194304	; 0x400000
 800127a:	d10b      	bne.n	8001294 <HAL_RCC_OscConfig+0x5c>
    {
      if((__HAL_RCC_GET_FLAG(RCC_FLAG_HSERDY) != RESET) && (RCC_OscInitStruct->HSEState == RCC_HSE_OFF))
 800127c:	4b99      	ldr	r3, [pc, #612]	; (80014e4 <HAL_RCC_OscConfig+0x2ac>)
 800127e:	681b      	ldr	r3, [r3, #0]
 8001280:	f403 3300 	and.w	r3, r3, #131072	; 0x20000
 8001284:	2b00      	cmp	r3, #0
 8001286:	d05b      	beq.n	8001340 <HAL_RCC_OscConfig+0x108>
 8001288:	687b      	ldr	r3, [r7, #4]
 800128a:	685b      	ldr	r3, [r3, #4]
 800128c:	2b00      	cmp	r3, #0
 800128e:	d157      	bne.n	8001340 <HAL_RCC_OscConfig+0x108>
      {
        return HAL_ERROR;
 8001290:	2301      	movs	r3, #1
 8001292:	e236      	b.n	8001702 <HAL_RCC_OscConfig+0x4ca>
      }
    }
    else
    {
      /* Set the new HSE configuration ---------------------------------------*/
      __HAL_RCC_HSE_CONFIG(RCC_OscInitStruct->HSEState);
 8001294:	687b      	ldr	r3, [r7, #4]
 8001296:	685b      	ldr	r3, [r3, #4]
 8001298:	f5b3 3f80 	cmp.w	r3, #65536	; 0x10000
 800129c:	d106      	bne.n	80012ac <HAL_RCC_OscConfig+0x74>
 800129e:	4b91      	ldr	r3, [pc, #580]	; (80014e4 <HAL_RCC_OscConfig+0x2ac>)
 80012a0:	681b      	ldr	r3, [r3, #0]
 80012a2:	4a90      	ldr	r2, [pc, #576]	; (80014e4 <HAL_RCC_OscConfig+0x2ac>)
 80012a4:	f443 3380 	orr.w	r3, r3, #65536	; 0x10000
 80012a8:	6013      	str	r3, [r2, #0]
 80012aa:	e01d      	b.n	80012e8 <HAL_RCC_OscConfig+0xb0>
 80012ac:	687b      	ldr	r3, [r7, #4]
 80012ae:	685b      	ldr	r3, [r3, #4]
 80012b0:	f5b3 2fa0 	cmp.w	r3, #327680	; 0x50000
 80012b4:	d10c      	bne.n	80012d0 <HAL_RCC_OscConfig+0x98>
 80012b6:	4b8b      	ldr	r3, [pc, #556]	; (80014e4 <HAL_RCC_OscConfig+0x2ac>)
 80012b8:	681b      	ldr	r3, [r3, #0]
 80012ba:	4a8a      	ldr	r2, [pc, #552]	; (80014e4 <HAL_RCC_OscConfig+0x2ac>)
 80012bc:	f443 2380 	orr.w	r3, r3, #262144	; 0x40000
 80012c0:	6013      	str	r3, [r2, #0]
 80012c2:	4b88      	ldr	r3, [pc, #544]	; (80014e4 <HAL_RCC_OscConfig+0x2ac>)
 80012c4:	681b      	ldr	r3, [r3, #0]
 80012c6:	4a87      	ldr	r2, [pc, #540]	; (80014e4 <HAL_RCC_OscConfig+0x2ac>)
 80012c8:	f443 3380 	orr.w	r3, r3, #65536	; 0x10000
 80012cc:	6013      	str	r3, [r2, #0]
 80012ce:	e00b      	b.n	80012e8 <HAL_RCC_OscConfig+0xb0>
 80012d0:	4b84      	ldr	r3, [pc, #528]	; (80014e4 <HAL_RCC_OscConfig+0x2ac>)
 80012d2:	681b      	ldr	r3, [r3, #0]
 80012d4:	4a83      	ldr	r2, [pc, #524]	; (80014e4 <HAL_RCC_OscConfig+0x2ac>)
 80012d6:	f423 3380 	bic.w	r3, r3, #65536	; 0x10000
 80012da:	6013      	str	r3, [r2, #0]
 80012dc:	4b81      	ldr	r3, [pc, #516]	; (80014e4 <HAL_RCC_OscConfig+0x2ac>)
 80012de:	681b      	ldr	r3, [r3, #0]
 80012e0:	4a80      	ldr	r2, [pc, #512]	; (80014e4 <HAL_RCC_OscConfig+0x2ac>)
 80012e2:	f423 2380 	bic.w	r3, r3, #262144	; 0x40000
 80012e6:	6013      	str	r3, [r2, #0]

      /* Check the HSE State */
      if((RCC_OscInitStruct->HSEState) != RCC_HSE_OFF)
 80012e8:	687b      	ldr	r3, [r7, #4]
 80012ea:	685b      	ldr	r3, [r3, #4]
 80012ec:	2b00      	cmp	r3, #0
 80012ee:	d013      	beq.n	8001318 <HAL_RCC_OscConfig+0xe0>
      {
        /* Get Start Tick */
        tickstart = HAL_GetTick();
 80012f0:	f7ff fcdc 	bl	8000cac <HAL_GetTick>
 80012f4:	6138      	str	r0, [r7, #16]

        /* Wait till HSE is ready */
        while(__HAL_RCC_GET_FLAG(RCC_FLAG_HSERDY) == RESET)
 80012f6:	e008      	b.n	800130a <HAL_RCC_OscConfig+0xd2>
        {
          if((HAL_GetTick() - tickstart ) > HSE_TIMEOUT_VALUE)
 80012f8:	f7ff fcd8 	bl	8000cac <HAL_GetTick>
 80012fc:	4602      	mov	r2, r0
 80012fe:	693b      	ldr	r3, [r7, #16]
 8001300:	1ad3      	subs	r3, r2, r3
 8001302:	2b64      	cmp	r3, #100	; 0x64
 8001304:	d901      	bls.n	800130a <HAL_RCC_OscConfig+0xd2>
          {
            return HAL_TIMEOUT;
 8001306:	2303      	movs	r3, #3
 8001308:	e1fb      	b.n	8001702 <HAL_RCC_OscConfig+0x4ca>
        while(__HAL_RCC_GET_FLAG(RCC_FLAG_HSERDY) == RESET)
 800130a:	4b76      	ldr	r3, [pc, #472]	; (80014e4 <HAL_RCC_OscConfig+0x2ac>)
 800130c:	681b      	ldr	r3, [r3, #0]
 800130e:	f403 3300 	and.w	r3, r3, #131072	; 0x20000
 8001312:	2b00      	cmp	r3, #0
 8001314:	d0f0      	beq.n	80012f8 <HAL_RCC_OscConfig+0xc0>
 8001316:	e014      	b.n	8001342 <HAL_RCC_OscConfig+0x10a>
        }
      }
      else
      {
        /* Get Start Tick */
        tickstart = HAL_GetTick();
 8001318:	f7ff fcc8 	bl	8000cac <HAL_GetTick>
 800131c:	6138      	str	r0, [r7, #16]

        /* Wait till HSE is bypassed or disabled */
        while(__HAL_RCC_GET_FLAG(RCC_FLAG_HSERDY) != RESET)
 800131e:	e008      	b.n	8001332 <HAL_RCC_OscConfig+0xfa>
        {
          if((HAL_GetTick() - tickstart ) > HSE_TIMEOUT_VALUE)
 8001320:	f7ff fcc4 	bl	8000cac <HAL_GetTick>
 8001324:	4602      	mov	r2, r0
 8001326:	693b      	ldr	r3, [r7, #16]
 8001328:	1ad3      	subs	r3, r2, r3
 800132a:	2b64      	cmp	r3, #100	; 0x64
 800132c:	d901      	bls.n	8001332 <HAL_RCC_OscConfig+0xfa>
          {
            return HAL_TIMEOUT;
 800132e:	2303      	movs	r3, #3
 8001330:	e1e7      	b.n	8001702 <HAL_RCC_OscConfig+0x4ca>
        while(__HAL_RCC_GET_FLAG(RCC_FLAG_HSERDY) != RESET)
 8001332:	4b6c      	ldr	r3, [pc, #432]	; (80014e4 <HAL_RCC_OscConfig+0x2ac>)
 8001334:	681b      	ldr	r3, [r3, #0]
 8001336:	f403 3300 	and.w	r3, r3, #131072	; 0x20000
 800133a:	2b00      	cmp	r3, #0
 800133c:	d1f0      	bne.n	8001320 <HAL_RCC_OscConfig+0xe8>
 800133e:	e000      	b.n	8001342 <HAL_RCC_OscConfig+0x10a>
      if((__HAL_RCC_GET_FLAG(RCC_FLAG_HSERDY) != RESET) && (RCC_OscInitStruct->HSEState == RCC_HSE_OFF))
 8001340:	bf00      	nop
        }
      }
    }
  }
  /*----------------------------- HSI Configuration --------------------------*/
  if(((RCC_OscInitStruct->OscillatorType) & RCC_OSCILLATORTYPE_HSI) == RCC_OSCILLATORTYPE_HSI)
 8001342:	687b      	ldr	r3, [r7, #4]
 8001344:	681b      	ldr	r3, [r3, #0]
 8001346:	f003 0302 	and.w	r3, r3, #2
 800134a:	2b00      	cmp	r3, #0
 800134c:	d063      	beq.n	8001416 <HAL_RCC_OscConfig+0x1de>
    /* Check the parameters */
    assert_param(IS_RCC_HSI(RCC_OscInitStruct->HSIState));
    assert_param(IS_RCC_CALIBRATION_VALUE(RCC_OscInitStruct->HSICalibrationValue));

    /* Check if HSI is used as system clock or as PLL source when PLL is selected as system clock */
    if((__HAL_RCC_GET_SYSCLK_SOURCE() == RCC_CFGR_SWS_HSI) ||\
 800134e:	4b65      	ldr	r3, [pc, #404]	; (80014e4 <HAL_RCC_OscConfig+0x2ac>)
 8001350:	689b      	ldr	r3, [r3, #8]
 8001352:	f003 030c 	and.w	r3, r3, #12
 8001356:	2b00      	cmp	r3, #0
 8001358:	d00b      	beq.n	8001372 <HAL_RCC_OscConfig+0x13a>
      ((__HAL_RCC_GET_SYSCLK_SOURCE() == RCC_CFGR_SWS_PLL) && ((RCC->PLLCFGR & RCC_PLLCFGR_PLLSRC) == RCC_PLLCFGR_PLLSRC_HSI)))
 800135a:	4b62      	ldr	r3, [pc, #392]	; (80014e4 <HAL_RCC_OscConfig+0x2ac>)
 800135c:	689b      	ldr	r3, [r3, #8]
 800135e:	f003 030c 	and.w	r3, r3, #12
    if((__HAL_RCC_GET_SYSCLK_SOURCE() == RCC_CFGR_SWS_HSI) ||\
 8001362:	2b08      	cmp	r3, #8
 8001364:	d11c      	bne.n	80013a0 <HAL_RCC_OscConfig+0x168>
      ((__HAL_RCC_GET_SYSCLK_SOURCE() == RCC_CFGR_SWS_PLL) && ((RCC->PLLCFGR & RCC_PLLCFGR_PLLSRC) == RCC_PLLCFGR_PLLSRC_HSI)))
 8001366:	4b5f      	ldr	r3, [pc, #380]	; (80014e4 <HAL_RCC_OscConfig+0x2ac>)
 8001368:	685b      	ldr	r3, [r3, #4]
 800136a:	f403 0380 	and.w	r3, r3, #4194304	; 0x400000
 800136e:	2b00      	cmp	r3, #0
 8001370:	d116      	bne.n	80013a0 <HAL_RCC_OscConfig+0x168>
    {
      /* When HSI is used as system clock it will not disabled */
      if((__HAL_RCC_GET_FLAG(RCC_FLAG_HSIRDY) != RESET) && (RCC_OscInitStruct->HSIState != RCC_HSI_ON))
 8001372:	4b5c      	ldr	r3, [pc, #368]	; (80014e4 <HAL_RCC_OscConfig+0x2ac>)
 8001374:	681b      	ldr	r3, [r3, #0]
 8001376:	f003 0302 	and.w	r3, r3, #2
 800137a:	2b00      	cmp	r3, #0
 800137c:	d005      	beq.n	800138a <HAL_RCC_OscConfig+0x152>
 800137e:	687b      	ldr	r3, [r7, #4]
 8001380:	68db      	ldr	r3, [r3, #12]
 8001382:	2b01      	cmp	r3, #1
 8001384:	d001      	beq.n	800138a <HAL_RCC_OscConfig+0x152>
      {
        return HAL_ERROR;
 8001386:	2301      	movs	r3, #1
 8001388:	e1bb      	b.n	8001702 <HAL_RCC_OscConfig+0x4ca>
      }
      /* Otherwise, just the calibration is allowed */
      else
      {
        /* Adjusts the Internal High Speed oscillator (HSI) calibration value.*/
        __HAL_RCC_HSI_CALIBRATIONVALUE_ADJUST(RCC_OscInitStruct->HSICalibrationValue);
 800138a:	4b56      	ldr	r3, [pc, #344]	; (80014e4 <HAL_RCC_OscConfig+0x2ac>)
 800138c:	681b      	ldr	r3, [r3, #0]
 800138e:	f023 02f8 	bic.w	r2, r3, #248	; 0xf8
 8001392:	687b      	ldr	r3, [r7, #4]
 8001394:	691b      	ldr	r3, [r3, #16]
 8001396:	00db      	lsls	r3, r3, #3
 8001398:	4952      	ldr	r1, [pc, #328]	; (80014e4 <HAL_RCC_OscConfig+0x2ac>)
 800139a:	4313      	orrs	r3, r2
 800139c:	600b      	str	r3, [r1, #0]
      if((__HAL_RCC_GET_FLAG(RCC_FLAG_HSIRDY) != RESET) && (RCC_OscInitStruct->HSIState != RCC_HSI_ON))
 800139e:	e03a      	b.n	8001416 <HAL_RCC_OscConfig+0x1de>
      }
    }
    else
    {
      /* Check the HSI State */
      if((RCC_OscInitStruct->HSIState)!= RCC_HSI_OFF)
 80013a0:	687b      	ldr	r3, [r7, #4]
 80013a2:	68db      	ldr	r3, [r3, #12]
 80013a4:	2b00      	cmp	r3, #0
 80013a6:	d020      	beq.n	80013ea <HAL_RCC_OscConfig+0x1b2>
      {
        /* Enable the Internal High Speed oscillator (HSI). */
        __HAL_RCC_HSI_ENABLE();
 80013a8:	4b4f      	ldr	r3, [pc, #316]	; (80014e8 <HAL_RCC_OscConfig+0x2b0>)
 80013aa:	2201      	movs	r2, #1
 80013ac:	601a      	str	r2, [r3, #0]

        /* Get Start Tick*/
        tickstart = HAL_GetTick();
 80013ae:	f7ff fc7d 	bl	8000cac <HAL_GetTick>
 80013b2:	6138      	str	r0, [r7, #16]

        /* Wait till HSI is ready */
        while(__HAL_RCC_GET_FLAG(RCC_FLAG_HSIRDY) == RESET)
 80013b4:	e008      	b.n	80013c8 <HAL_RCC_OscConfig+0x190>
        {
          if((HAL_GetTick() - tickstart ) > HSI_TIMEOUT_VALUE)
 80013b6:	f7ff fc79 	bl	8000cac <HAL_GetTick>
 80013ba:	4602      	mov	r2, r0
 80013bc:	693b      	ldr	r3, [r7, #16]
 80013be:	1ad3      	subs	r3, r2, r3
 80013c0:	2b02      	cmp	r3, #2
 80013c2:	d901      	bls.n	80013c8 <HAL_RCC_OscConfig+0x190>
          {
            return HAL_TIMEOUT;
 80013c4:	2303      	movs	r3, #3
 80013c6:	e19c      	b.n	8001702 <HAL_RCC_OscConfig+0x4ca>
        while(__HAL_RCC_GET_FLAG(RCC_FLAG_HSIRDY) == RESET)
 80013c8:	4b46      	ldr	r3, [pc, #280]	; (80014e4 <HAL_RCC_OscConfig+0x2ac>)
 80013ca:	681b      	ldr	r3, [r3, #0]
 80013cc:	f003 0302 	and.w	r3, r3, #2
 80013d0:	2b00      	cmp	r3, #0
 80013d2:	d0f0      	beq.n	80013b6 <HAL_RCC_OscConfig+0x17e>
          }
        }

        /* Adjusts the Internal High Speed oscillator (HSI) calibration value. */
        __HAL_RCC_HSI_CALIBRATIONVALUE_ADJUST(RCC_OscInitStruct->HSICalibrationValue);
 80013d4:	4b43      	ldr	r3, [pc, #268]	; (80014e4 <HAL_RCC_OscConfig+0x2ac>)
 80013d6:	681b      	ldr	r3, [r3, #0]
 80013d8:	f023 02f8 	bic.w	r2, r3, #248	; 0xf8
 80013dc:	687b      	ldr	r3, [r7, #4]
 80013de:	691b      	ldr	r3, [r3, #16]
 80013e0:	00db      	lsls	r3, r3, #3
 80013e2:	4940      	ldr	r1, [pc, #256]	; (80014e4 <HAL_RCC_OscConfig+0x2ac>)
 80013e4:	4313      	orrs	r3, r2
 80013e6:	600b      	str	r3, [r1, #0]
 80013e8:	e015      	b.n	8001416 <HAL_RCC_OscConfig+0x1de>
      }
      else
      {
        /* Disable the Internal High Speed oscillator (HSI). */
        __HAL_RCC_HSI_DISABLE();
 80013ea:	4b3f      	ldr	r3, [pc, #252]	; (80014e8 <HAL_RCC_OscConfig+0x2b0>)
 80013ec:	2200      	movs	r2, #0
 80013ee:	601a      	str	r2, [r3, #0]

        /* Get Start Tick*/
        tickstart = HAL_GetTick();
 80013f0:	f7ff fc5c 	bl	8000cac <HAL_GetTick>
 80013f4:	6138      	str	r0, [r7, #16]

        /* Wait till HSI is ready */
        while(__HAL_RCC_GET_FLAG(RCC_FLAG_HSIRDY) != RESET)
 80013f6:	e008      	b.n	800140a <HAL_RCC_OscConfig+0x1d2>
        {
          if((HAL_GetTick() - tickstart ) > HSI_TIMEOUT_VALUE)
 80013f8:	f7ff fc58 	bl	8000cac <HAL_GetTick>
 80013fc:	4602      	mov	r2, r0
 80013fe:	693b      	ldr	r3, [r7, #16]
 8001400:	1ad3      	subs	r3, r2, r3
 8001402:	2b02      	cmp	r3, #2
 8001404:	d901      	bls.n	800140a <HAL_RCC_OscConfig+0x1d2>
          {
            return HAL_TIMEOUT;
 8001406:	2303      	movs	r3, #3
 8001408:	e17b      	b.n	8001702 <HAL_RCC_OscConfig+0x4ca>
        while(__HAL_RCC_GET_FLAG(RCC_FLAG_HSIRDY) != RESET)
 800140a:	4b36      	ldr	r3, [pc, #216]	; (80014e4 <HAL_RCC_OscConfig+0x2ac>)
 800140c:	681b      	ldr	r3, [r3, #0]
 800140e:	f003 0302 	and.w	r3, r3, #2
 8001412:	2b00      	cmp	r3, #0
 8001414:	d1f0      	bne.n	80013f8 <HAL_RCC_OscConfig+0x1c0>
        }
      }
    }
  }
  /*------------------------------ LSI Configuration -------------------------*/
  if(((RCC_OscInitStruct->OscillatorType) & RCC_OSCILLATORTYPE_LSI) == RCC_OSCILLATORTYPE_LSI)
 8001416:	687b      	ldr	r3, [r7, #4]
 8001418:	681b      	ldr	r3, [r3, #0]
 800141a:	f003 0308 	and.w	r3, r3, #8
 800141e:	2b00      	cmp	r3, #0
 8001420:	d030      	beq.n	8001484 <HAL_RCC_OscConfig+0x24c>
  {
    /* Check the parameters */
    assert_param(IS_RCC_LSI(RCC_OscInitStruct->LSIState));

    /* Check the LSI State */
    if((RCC_OscInitStruct->LSIState)!= RCC_LSI_OFF)
 8001422:	687b      	ldr	r3, [r7, #4]
 8001424:	695b      	ldr	r3, [r3, #20]
 8001426:	2b00      	cmp	r3, #0
 8001428:	d016      	beq.n	8001458 <HAL_RCC_OscConfig+0x220>
    {
      /* Enable the Internal Low Speed oscillator (LSI). */
      __HAL_RCC_LSI_ENABLE();
 800142a:	4b30      	ldr	r3, [pc, #192]	; (80014ec <HAL_RCC_OscConfig+0x2b4>)
 800142c:	2201      	movs	r2, #1
 800142e:	601a      	str	r2, [r3, #0]

      /* Get Start Tick*/
      tickstart = HAL_GetTick();
 8001430:	f7ff fc3c 	bl	8000cac <HAL_GetTick>
 8001434:	6138      	str	r0, [r7, #16]

      /* Wait till LSI is ready */
      while(__HAL_RCC_GET_FLAG(RCC_FLAG_LSIRDY) == RESET)
 8001436:	e008      	b.n	800144a <HAL_RCC_OscConfig+0x212>
      {
        if((HAL_GetTick() - tickstart ) > LSI_TIMEOUT_VALUE)
 8001438:	f7ff fc38 	bl	8000cac <HAL_GetTick>
 800143c:	4602      	mov	r2, r0
 800143e:	693b      	ldr	r3, [r7, #16]
 8001440:	1ad3      	subs	r3, r2, r3
 8001442:	2b02      	cmp	r3, #2
 8001444:	d901      	bls.n	800144a <HAL_RCC_OscConfig+0x212>
        {
          return HAL_TIMEOUT;
 8001446:	2303      	movs	r3, #3
 8001448:	e15b      	b.n	8001702 <HAL_RCC_OscConfig+0x4ca>
      while(__HAL_RCC_GET_FLAG(RCC_FLAG_LSIRDY) == RESET)
 800144a:	4b26      	ldr	r3, [pc, #152]	; (80014e4 <HAL_RCC_OscConfig+0x2ac>)
 800144c:	6f5b      	ldr	r3, [r3, #116]	; 0x74
 800144e:	f003 0302 	and.w	r3, r3, #2
 8001452:	2b00      	cmp	r3, #0
 8001454:	d0f0      	beq.n	8001438 <HAL_RCC_OscConfig+0x200>
 8001456:	e015      	b.n	8001484 <HAL_RCC_OscConfig+0x24c>
      }
    }
    else
    {
      /* Disable the Internal Low Speed oscillator (LSI). */
      __HAL_RCC_LSI_DISABLE();
 8001458:	4b24      	ldr	r3, [pc, #144]	; (80014ec <HAL_RCC_OscConfig+0x2b4>)
 800145a:	2200      	movs	r2, #0
 800145c:	601a      	str	r2, [r3, #0]

      /* Get Start Tick */
      tickstart = HAL_GetTick();
 800145e:	f7ff fc25 	bl	8000cac <HAL_GetTick>
 8001462:	6138      	str	r0, [r7, #16]

      /* Wait till LSI is ready */
      while(__HAL_RCC_GET_FLAG(RCC_FLAG_LSIRDY) != RESET)
 8001464:	e008      	b.n	8001478 <HAL_RCC_OscConfig+0x240>
      {
        if((HAL_GetTick() - tickstart ) > LSI_TIMEOUT_VALUE)
 8001466:	f7ff fc21 	bl	8000cac <HAL_GetTick>
 800146a:	4602      	mov	r2, r0
 800146c:	693b      	ldr	r3, [r7, #16]
 800146e:	1ad3      	subs	r3, r2, r3
 8001470:	2b02      	cmp	r3, #2
 8001472:	d901      	bls.n	8001478 <HAL_RCC_OscConfig+0x240>
        {
          return HAL_TIMEOUT;
 8001474:	2303      	movs	r3, #3
 8001476:	e144      	b.n	8001702 <HAL_RCC_OscConfig+0x4ca>
      while(__HAL_RCC_GET_FLAG(RCC_FLAG_LSIRDY) != RESET)
 8001478:	4b1a      	ldr	r3, [pc, #104]	; (80014e4 <HAL_RCC_OscConfig+0x2ac>)
 800147a:	6f5b      	ldr	r3, [r3, #116]	; 0x74
 800147c:	f003 0302 	and.w	r3, r3, #2
 8001480:	2b00      	cmp	r3, #0
 8001482:	d1f0      	bne.n	8001466 <HAL_RCC_OscConfig+0x22e>
        }
      }
    }
  }
  /*------------------------------ LSE Configuration -------------------------*/
  if(((RCC_OscInitStruct->OscillatorType) & RCC_OSCILLATORTYPE_LSE) == RCC_OSCILLATORTYPE_LSE)
 8001484:	687b      	ldr	r3, [r7, #4]
 8001486:	681b      	ldr	r3, [r3, #0]
 8001488:	f003 0304 	and.w	r3, r3, #4
 800148c:	2b00      	cmp	r3, #0
 800148e:	f000 80a0 	beq.w	80015d2 <HAL_RCC_OscConfig+0x39a>
  {
    FlagStatus       pwrclkchanged = RESET;
 8001492:	2300      	movs	r3, #0
 8001494:	75fb      	strb	r3, [r7, #23]
    /* Check the parameters */
    assert_param(IS_RCC_LSE(RCC_OscInitStruct->LSEState));

    /* Update LSE configuration in Backup Domain control register    */
    /* Requires to enable write access to Backup Domain of necessary */
    if(__HAL_RCC_PWR_IS_CLK_DISABLED())
 8001496:	4b13      	ldr	r3, [pc, #76]	; (80014e4 <HAL_RCC_OscConfig+0x2ac>)
 8001498:	6c1b      	ldr	r3, [r3, #64]	; 0x40
 800149a:	f003 5380 	and.w	r3, r3, #268435456	; 0x10000000
 800149e:	2b00      	cmp	r3, #0
 80014a0:	d10f      	bne.n	80014c2 <HAL_RCC_OscConfig+0x28a>
    {
      __HAL_RCC_PWR_CLK_ENABLE();
 80014a2:	2300      	movs	r3, #0
 80014a4:	60bb      	str	r3, [r7, #8]
 80014a6:	4b0f      	ldr	r3, [pc, #60]	; (80014e4 <HAL_RCC_OscConfig+0x2ac>)
 80014a8:	6c1b      	ldr	r3, [r3, #64]	; 0x40
 80014aa:	4a0e      	ldr	r2, [pc, #56]	; (80014e4 <HAL_RCC_OscConfig+0x2ac>)
 80014ac:	f043 5380 	orr.w	r3, r3, #268435456	; 0x10000000
 80014b0:	6413      	str	r3, [r2, #64]	; 0x40
 80014b2:	4b0c      	ldr	r3, [pc, #48]	; (80014e4 <HAL_RCC_OscConfig+0x2ac>)
 80014b4:	6c1b      	ldr	r3, [r3, #64]	; 0x40
 80014b6:	f003 5380 	and.w	r3, r3, #268435456	; 0x10000000
 80014ba:	60bb      	str	r3, [r7, #8]
 80014bc:	68bb      	ldr	r3, [r7, #8]
      pwrclkchanged = SET;
 80014be:	2301      	movs	r3, #1
 80014c0:	75fb      	strb	r3, [r7, #23]
    }

    if(HAL_IS_BIT_CLR(PWR->CR, PWR_CR_DBP))
 80014c2:	4b0b      	ldr	r3, [pc, #44]	; (80014f0 <HAL_RCC_OscConfig+0x2b8>)
 80014c4:	681b      	ldr	r3, [r3, #0]
 80014c6:	f403 7380 	and.w	r3, r3, #256	; 0x100
 80014ca:	2b00      	cmp	r3, #0
 80014cc:	d121      	bne.n	8001512 <HAL_RCC_OscConfig+0x2da>
    {
      /* Enable write access to Backup domain */
      SET_BIT(PWR->CR, PWR_CR_DBP);
 80014ce:	4b08      	ldr	r3, [pc, #32]	; (80014f0 <HAL_RCC_OscConfig+0x2b8>)
 80014d0:	681b      	ldr	r3, [r3, #0]
 80014d2:	4a07      	ldr	r2, [pc, #28]	; (80014f0 <HAL_RCC_OscConfig+0x2b8>)
 80014d4:	f443 7380 	orr.w	r3, r3, #256	; 0x100
 80014d8:	6013      	str	r3, [r2, #0]

      /* Wait for Backup domain Write protection disable */
      tickstart = HAL_GetTick();
 80014da:	f7ff fbe7 	bl	8000cac <HAL_GetTick>
 80014de:	6138      	str	r0, [r7, #16]

      while(HAL_IS_BIT_CLR(PWR->CR, PWR_CR_DBP))
 80014e0:	e011      	b.n	8001506 <HAL_RCC_OscConfig+0x2ce>
 80014e2:	bf00      	nop
 80014e4:	40023800 	.word	0x40023800
 80014e8:	42470000 	.word	0x42470000
 80014ec:	42470e80 	.word	0x42470e80
 80014f0:	40007000 	.word	0x40007000
      {
        if((HAL_GetTick() - tickstart) > RCC_DBP_TIMEOUT_VALUE)
 80014f4:	f7ff fbda 	bl	8000cac <HAL_GetTick>
 80014f8:	4602      	mov	r2, r0
 80014fa:	693b      	ldr	r3, [r7, #16]
 80014fc:	1ad3      	subs	r3, r2, r3
 80014fe:	2b02      	cmp	r3, #2
 8001500:	d901      	bls.n	8001506 <HAL_RCC_OscConfig+0x2ce>
        {
          return HAL_TIMEOUT;
 8001502:	2303      	movs	r3, #3
 8001504:	e0fd      	b.n	8001702 <HAL_RCC_OscConfig+0x4ca>
      while(HAL_IS_BIT_CLR(PWR->CR, PWR_CR_DBP))
 8001506:	4b81      	ldr	r3, [pc, #516]	; (800170c <HAL_RCC_OscConfig+0x4d4>)
 8001508:	681b      	ldr	r3, [r3, #0]
 800150a:	f403 7380 	and.w	r3, r3, #256	; 0x100
 800150e:	2b00      	cmp	r3, #0
 8001510:	d0f0      	beq.n	80014f4 <HAL_RCC_OscConfig+0x2bc>
        }
      }
    }

    /* Set the new LSE configuration -----------------------------------------*/
    __HAL_RCC_LSE_CONFIG(RCC_OscInitStruct->LSEState);
 8001512:	687b      	ldr	r3, [r7, #4]
 8001514:	689b      	ldr	r3, [r3, #8]
 8001516:	2b01      	cmp	r3, #1
 8001518:	d106      	bne.n	8001528 <HAL_RCC_OscConfig+0x2f0>
 800151a:	4b7d      	ldr	r3, [pc, #500]	; (8001710 <HAL_RCC_OscConfig+0x4d8>)
 800151c:	6f1b      	ldr	r3, [r3, #112]	; 0x70
 800151e:	4a7c      	ldr	r2, [pc, #496]	; (8001710 <HAL_RCC_OscConfig+0x4d8>)
 8001520:	f043 0301 	orr.w	r3, r3, #1
 8001524:	6713      	str	r3, [r2, #112]	; 0x70
 8001526:	e01c      	b.n	8001562 <HAL_RCC_OscConfig+0x32a>
 8001528:	687b      	ldr	r3, [r7, #4]
 800152a:	689b      	ldr	r3, [r3, #8]
 800152c:	2b05      	cmp	r3, #5
 800152e:	d10c      	bne.n	800154a <HAL_RCC_OscConfig+0x312>
 8001530:	4b77      	ldr	r3, [pc, #476]	; (8001710 <HAL_RCC_OscConfig+0x4d8>)
 8001532:	6f1b      	ldr	r3, [r3, #112]	; 0x70
 8001534:	4a76      	ldr	r2, [pc, #472]	; (8001710 <HAL_RCC_OscConfig+0x4d8>)
 8001536:	f043 0304 	orr.w	r3, r3, #4
 800153a:	6713      	str	r3, [r2, #112]	; 0x70
 800153c:	4b74      	ldr	r3, [pc, #464]	; (8001710 <HAL_RCC_OscConfig+0x4d8>)
 800153e:	6f1b      	ldr	r3, [r3, #112]	; 0x70
 8001540:	4a73      	ldr	r2, [pc, #460]	; (8001710 <HAL_RCC_OscConfig+0x4d8>)
 8001542:	f043 0301 	orr.w	r3, r3, #1
 8001546:	6713      	str	r3, [r2, #112]	; 0x70
 8001548:	e00b      	b.n	8001562 <HAL_RCC_OscConfig+0x32a>
 800154a:	4b71      	ldr	r3, [pc, #452]	; (8001710 <HAL_RCC_OscConfig+0x4d8>)
 800154c:	6f1b      	ldr	r3, [r3, #112]	; 0x70
 800154e:	4a70      	ldr	r2, [pc, #448]	; (8001710 <HAL_RCC_OscConfig+0x4d8>)
 8001550:	f023 0301 	bic.w	r3, r3, #1
 8001554:	6713      	str	r3, [r2, #112]	; 0x70
 8001556:	4b6e      	ldr	r3, [pc, #440]	; (8001710 <HAL_RCC_OscConfig+0x4d8>)
 8001558:	6f1b      	ldr	r3, [r3, #112]	; 0x70
 800155a:	4a6d      	ldr	r2, [pc, #436]	; (8001710 <HAL_RCC_OscConfig+0x4d8>)
 800155c:	f023 0304 	bic.w	r3, r3, #4
 8001560:	6713      	str	r3, [r2, #112]	; 0x70
    /* Check the LSE State */
    if((RCC_OscInitStruct->LSEState) != RCC_LSE_OFF)
 8001562:	687b      	ldr	r3, [r7, #4]
 8001564:	689b      	ldr	r3, [r3, #8]
 8001566:	2b00      	cmp	r3, #0
 8001568:	d015      	beq.n	8001596 <HAL_RCC_OscConfig+0x35e>
    {
      /* Get Start Tick*/
      tickstart = HAL_GetTick();
 800156a:	f7ff fb9f 	bl	8000cac <HAL_GetTick>
 800156e:	6138      	str	r0, [r7, #16]

      /* Wait till LSE is ready */
      while(__HAL_RCC_GET_FLAG(RCC_FLAG_LSERDY) == RESET)
 8001570:	e00a      	b.n	8001588 <HAL_RCC_OscConfig+0x350>
      {
        if((HAL_GetTick() - tickstart ) > RCC_LSE_TIMEOUT_VALUE)
 8001572:	f7ff fb9b 	bl	8000cac <HAL_GetTick>
 8001576:	4602      	mov	r2, r0
 8001578:	693b      	ldr	r3, [r7, #16]
 800157a:	1ad3      	subs	r3, r2, r3
 800157c:	f241 3288 	movw	r2, #5000	; 0x1388
 8001580:	4293      	cmp	r3, r2
 8001582:	d901      	bls.n	8001588 <HAL_RCC_OscConfig+0x350>
        {
          return HAL_TIMEOUT;
 8001584:	2303      	movs	r3, #3
 8001586:	e0bc      	b.n	8001702 <HAL_RCC_OscConfig+0x4ca>
      while(__HAL_RCC_GET_FLAG(RCC_FLAG_LSERDY) == RESET)
 8001588:	4b61      	ldr	r3, [pc, #388]	; (8001710 <HAL_RCC_OscConfig+0x4d8>)
 800158a:	6f1b      	ldr	r3, [r3, #112]	; 0x70
 800158c:	f003 0302 	and.w	r3, r3, #2
 8001590:	2b00      	cmp	r3, #0
 8001592:	d0ee      	beq.n	8001572 <HAL_RCC_OscConfig+0x33a>
 8001594:	e014      	b.n	80015c0 <HAL_RCC_OscConfig+0x388>
      }
    }
    else
    {
      /* Get Start Tick */
      tickstart = HAL_GetTick();
 8001596:	f7ff fb89 	bl	8000cac <HAL_GetTick>
 800159a:	6138      	str	r0, [r7, #16]

      /* Wait till LSE is ready */
      while(__HAL_RCC_GET_FLAG(RCC_FLAG_LSERDY) != RESET)
 800159c:	e00a      	b.n	80015b4 <HAL_RCC_OscConfig+0x37c>
      {
        if((HAL_GetTick() - tickstart ) > RCC_LSE_TIMEOUT_VALUE)
 800159e:	f7ff fb85 	bl	8000cac <HAL_GetTick>
 80015a2:	4602      	mov	r2, r0
 80015a4:	693b      	ldr	r3, [r7, #16]
 80015a6:	1ad3      	subs	r3, r2, r3
 80015a8:	f241 3288 	movw	r2, #5000	; 0x1388
 80015ac:	4293      	cmp	r3, r2
 80015ae:	d901      	bls.n	80015b4 <HAL_RCC_OscConfig+0x37c>
        {
          return HAL_TIMEOUT;
 80015b0:	2303      	movs	r3, #3
 80015b2:	e0a6      	b.n	8001702 <HAL_RCC_OscConfig+0x4ca>
      while(__HAL_RCC_GET_FLAG(RCC_FLAG_LSERDY) != RESET)
 80015b4:	4b56      	ldr	r3, [pc, #344]	; (8001710 <HAL_RCC_OscConfig+0x4d8>)
 80015b6:	6f1b      	ldr	r3, [r3, #112]	; 0x70
 80015b8:	f003 0302 	and.w	r3, r3, #2
 80015bc:	2b00      	cmp	r3, #0
 80015be:	d1ee      	bne.n	800159e <HAL_RCC_OscConfig+0x366>
        }
      }
    }

    /* Restore clock configuration if changed */
    if(pwrclkchanged == SET)
 80015c0:	7dfb      	ldrb	r3, [r7, #23]
 80015c2:	2b01      	cmp	r3, #1
 80015c4:	d105      	bne.n	80015d2 <HAL_RCC_OscConfig+0x39a>
    {
      __HAL_RCC_PWR_CLK_DISABLE();
 80015c6:	4b52      	ldr	r3, [pc, #328]	; (8001710 <HAL_RCC_OscConfig+0x4d8>)
 80015c8:	6c1b      	ldr	r3, [r3, #64]	; 0x40
 80015ca:	4a51      	ldr	r2, [pc, #324]	; (8001710 <HAL_RCC_OscConfig+0x4d8>)
 80015cc:	f023 5380 	bic.w	r3, r3, #268435456	; 0x10000000
 80015d0:	6413      	str	r3, [r2, #64]	; 0x40
    }
  }
  /*-------------------------------- PLL Configuration -----------------------*/
  /* Check the parameters */
  assert_param(IS_RCC_PLL(RCC_OscInitStruct->PLL.PLLState));
  if ((RCC_OscInitStruct->PLL.PLLState) != RCC_PLL_NONE)
 80015d2:	687b      	ldr	r3, [r7, #4]
 80015d4:	699b      	ldr	r3, [r3, #24]
 80015d6:	2b00      	cmp	r3, #0
 80015d8:	f000 8092 	beq.w	8001700 <HAL_RCC_OscConfig+0x4c8>
  {
    /* Check if the PLL is used as system clock or not */
    if(__HAL_RCC_GET_SYSCLK_SOURCE() != RCC_CFGR_SWS_PLL)
 80015dc:	4b4c      	ldr	r3, [pc, #304]	; (8001710 <HAL_RCC_OscConfig+0x4d8>)
 80015de:	689b      	ldr	r3, [r3, #8]
 80015e0:	f003 030c 	and.w	r3, r3, #12
 80015e4:	2b08      	cmp	r3, #8
 80015e6:	d05c      	beq.n	80016a2 <HAL_RCC_OscConfig+0x46a>
    {
      if((RCC_OscInitStruct->PLL.PLLState) == RCC_PLL_ON)
 80015e8:	687b      	ldr	r3, [r7, #4]
 80015ea:	699b      	ldr	r3, [r3, #24]
 80015ec:	2b02      	cmp	r3, #2
 80015ee:	d141      	bne.n	8001674 <HAL_RCC_OscConfig+0x43c>
        assert_param(IS_RCC_PLLN_VALUE(RCC_OscInitStruct->PLL.PLLN));
        assert_param(IS_RCC_PLLP_VALUE(RCC_OscInitStruct->PLL.PLLP));
        assert_param(IS_RCC_PLLQ_VALUE(RCC_OscInitStruct->PLL.PLLQ));

        /* Disable the main PLL. */
        __HAL_RCC_PLL_DISABLE();
 80015f0:	4b48      	ldr	r3, [pc, #288]	; (8001714 <HAL_RCC_OscConfig+0x4dc>)
 80015f2:	2200      	movs	r2, #0
 80015f4:	601a      	str	r2, [r3, #0]

        /* Get Start Tick */
        tickstart = HAL_GetTick();
 80015f6:	f7ff fb59 	bl	8000cac <HAL_GetTick>
 80015fa:	6138      	str	r0, [r7, #16]

        /* Wait till PLL is ready */
        while(__HAL_RCC_GET_FLAG(RCC_FLAG_PLLRDY) != RESET)
 80015fc:	e008      	b.n	8001610 <HAL_RCC_OscConfig+0x3d8>
        {
          if((HAL_GetTick() - tickstart ) > PLL_TIMEOUT_VALUE)
 80015fe:	f7ff fb55 	bl	8000cac <HAL_GetTick>
 8001602:	4602      	mov	r2, r0
 8001604:	693b      	ldr	r3, [r7, #16]
 8001606:	1ad3      	subs	r3, r2, r3
 8001608:	2b02      	cmp	r3, #2
 800160a:	d901      	bls.n	8001610 <HAL_RCC_OscConfig+0x3d8>
          {
            return HAL_TIMEOUT;
 800160c:	2303      	movs	r3, #3
 800160e:	e078      	b.n	8001702 <HAL_RCC_OscConfig+0x4ca>
        while(__HAL_RCC_GET_FLAG(RCC_FLAG_PLLRDY) != RESET)
 8001610:	4b3f      	ldr	r3, [pc, #252]	; (8001710 <HAL_RCC_OscConfig+0x4d8>)
 8001612:	681b      	ldr	r3, [r3, #0]
 8001614:	f003 7300 	and.w	r3, r3, #33554432	; 0x2000000
 8001618:	2b00      	cmp	r3, #0
 800161a:	d1f0      	bne.n	80015fe <HAL_RCC_OscConfig+0x3c6>
          }
        }

        /* Configure the main PLL clock source, multiplication and division factors. */
        WRITE_REG(RCC->PLLCFGR, (RCC_OscInitStruct->PLL.PLLSource                                            | \
 800161c:	687b      	ldr	r3, [r7, #4]
 800161e:	69da      	ldr	r2, [r3, #28]
 8001620:	687b      	ldr	r3, [r7, #4]
 8001622:	6a1b      	ldr	r3, [r3, #32]
 8001624:	431a      	orrs	r2, r3
 8001626:	687b      	ldr	r3, [r7, #4]
 8001628:	6a5b      	ldr	r3, [r3, #36]	; 0x24
 800162a:	019b      	lsls	r3, r3, #6
 800162c:	431a      	orrs	r2, r3
 800162e:	687b      	ldr	r3, [r7, #4]
 8001630:	6a9b      	ldr	r3, [r3, #40]	; 0x28
 8001632:	085b      	lsrs	r3, r3, #1
 8001634:	3b01      	subs	r3, #1
 8001636:	041b      	lsls	r3, r3, #16
 8001638:	431a      	orrs	r2, r3
 800163a:	687b      	ldr	r3, [r7, #4]
 800163c:	6adb      	ldr	r3, [r3, #44]	; 0x2c
 800163e:	061b      	lsls	r3, r3, #24
 8001640:	4933      	ldr	r1, [pc, #204]	; (8001710 <HAL_RCC_OscConfig+0x4d8>)
 8001642:	4313      	orrs	r3, r2
 8001644:	604b      	str	r3, [r1, #4]
                                 RCC_OscInitStruct->PLL.PLLM                                                 | \
                                 (RCC_OscInitStruct->PLL.PLLN << RCC_PLLCFGR_PLLN_Pos)             | \
                                 (((RCC_OscInitStruct->PLL.PLLP >> 1U) - 1U) << RCC_PLLCFGR_PLLP_Pos) | \
                                 (RCC_OscInitStruct->PLL.PLLQ << RCC_PLLCFGR_PLLQ_Pos)));
        /* Enable the main PLL. */
        __HAL_RCC_PLL_ENABLE();
 8001646:	4b33      	ldr	r3, [pc, #204]	; (8001714 <HAL_RCC_OscConfig+0x4dc>)
 8001648:	2201      	movs	r2, #1
 800164a:	601a      	str	r2, [r3, #0]

        /* Get Start Tick */
        tickstart = HAL_GetTick();
 800164c:	f7ff fb2e 	bl	8000cac <HAL_GetTick>
 8001650:	6138      	str	r0, [r7, #16]

        /* Wait till PLL is ready */
        while(__HAL_RCC_GET_FLAG(RCC_FLAG_PLLRDY) == RESET)
 8001652:	e008      	b.n	8001666 <HAL_RCC_OscConfig+0x42e>
        {
          if((HAL_GetTick() - tickstart ) > PLL_TIMEOUT_VALUE)
 8001654:	f7ff fb2a 	bl	8000cac <HAL_GetTick>
 8001658:	4602      	mov	r2, r0
 800165a:	693b      	ldr	r3, [r7, #16]
 800165c:	1ad3      	subs	r3, r2, r3
 800165e:	2b02      	cmp	r3, #2
 8001660:	d901      	bls.n	8001666 <HAL_RCC_OscConfig+0x42e>
          {
            return HAL_TIMEOUT;
 8001662:	2303      	movs	r3, #3
 8001664:	e04d      	b.n	8001702 <HAL_RCC_OscConfig+0x4ca>
        while(__HAL_RCC_GET_FLAG(RCC_FLAG_PLLRDY) == RESET)
 8001666:	4b2a      	ldr	r3, [pc, #168]	; (8001710 <HAL_RCC_OscConfig+0x4d8>)
 8001668:	681b      	ldr	r3, [r3, #0]
 800166a:	f003 7300 	and.w	r3, r3, #33554432	; 0x2000000
 800166e:	2b00      	cmp	r3, #0
 8001670:	d0f0      	beq.n	8001654 <HAL_RCC_OscConfig+0x41c>
 8001672:	e045      	b.n	8001700 <HAL_RCC_OscConfig+0x4c8>
        }
      }
      else
      {
        /* Disable the main PLL. */
        __HAL_RCC_PLL_DISABLE();
 8001674:	4b27      	ldr	r3, [pc, #156]	; (8001714 <HAL_RCC_OscConfig+0x4dc>)
 8001676:	2200      	movs	r2, #0
 8001678:	601a      	str	r2, [r3, #0]

        /* Get Start Tick */
        tickstart = HAL_GetTick();
 800167a:	f7ff fb17 	bl	8000cac <HAL_GetTick>
 800167e:	6138      	str	r0, [r7, #16]

        /* Wait till PLL is ready */
        while(__HAL_RCC_GET_FLAG(RCC_FLAG_PLLRDY) != RESET)
 8001680:	e008      	b.n	8001694 <HAL_RCC_OscConfig+0x45c>
        {
          if((HAL_GetTick() - tickstart ) > PLL_TIMEOUT_VALUE)
 8001682:	f7ff fb13 	bl	8000cac <HAL_GetTick>
 8001686:	4602      	mov	r2, r0
 8001688:	693b      	ldr	r3, [r7, #16]
 800168a:	1ad3      	subs	r3, r2, r3
 800168c:	2b02      	cmp	r3, #2
 800168e:	d901      	bls.n	8001694 <HAL_RCC_OscConfig+0x45c>
          {
            return HAL_TIMEOUT;
 8001690:	2303      	movs	r3, #3
 8001692:	e036      	b.n	8001702 <HAL_RCC_OscConfig+0x4ca>
        while(__HAL_RCC_GET_FLAG(RCC_FLAG_PLLRDY) != RESET)
 8001694:	4b1e      	ldr	r3, [pc, #120]	; (8001710 <HAL_RCC_OscConfig+0x4d8>)
 8001696:	681b      	ldr	r3, [r3, #0]
 8001698:	f003 7300 	and.w	r3, r3, #33554432	; 0x2000000
 800169c:	2b00      	cmp	r3, #0
 800169e:	d1f0      	bne.n	8001682 <HAL_RCC_OscConfig+0x44a>
 80016a0:	e02e      	b.n	8001700 <HAL_RCC_OscConfig+0x4c8>
      }
    }
    else
    {
      /* Check if there is a request to disable the PLL used as System clock source */
      if((RCC_OscInitStruct->PLL.PLLState) == RCC_PLL_OFF)
 80016a2:	687b      	ldr	r3, [r7, #4]
 80016a4:	699b      	ldr	r3, [r3, #24]
 80016a6:	2b01      	cmp	r3, #1
 80016a8:	d101      	bne.n	80016ae <HAL_RCC_OscConfig+0x476>
      {
        return HAL_ERROR;
 80016aa:	2301      	movs	r3, #1
 80016ac:	e029      	b.n	8001702 <HAL_RCC_OscConfig+0x4ca>
      }
      else
      {
        /* Do not return HAL_ERROR if request repeats the current configuration */
        pll_config = RCC->PLLCFGR;
 80016ae:	4b18      	ldr	r3, [pc, #96]	; (8001710 <HAL_RCC_OscConfig+0x4d8>)
 80016b0:	685b      	ldr	r3, [r3, #4]
 80016b2:	60fb      	str	r3, [r7, #12]
        if((READ_BIT(pll_config, RCC_PLLCFGR_PLLSRC) != RCC_OscInitStruct->PLL.PLLSource) ||
 80016b4:	68fb      	ldr	r3, [r7, #12]
 80016b6:	f403 0280 	and.w	r2, r3, #4194304	; 0x400000
 80016ba:	687b      	ldr	r3, [r7, #4]
 80016bc:	69db      	ldr	r3, [r3, #28]
 80016be:	429a      	cmp	r2, r3
 80016c0:	d11c      	bne.n	80016fc <HAL_RCC_OscConfig+0x4c4>
           (READ_BIT(pll_config, RCC_PLLCFGR_PLLM) != RCC_OscInitStruct->PLL.PLLM) ||
 80016c2:	68fb      	ldr	r3, [r7, #12]
 80016c4:	f003 023f 	and.w	r2, r3, #63	; 0x3f
 80016c8:	687b      	ldr	r3, [r7, #4]
 80016ca:	6a1b      	ldr	r3, [r3, #32]
        if((READ_BIT(pll_config, RCC_PLLCFGR_PLLSRC) != RCC_OscInitStruct->PLL.PLLSource) ||
 80016cc:	429a      	cmp	r2, r3
 80016ce:	d115      	bne.n	80016fc <HAL_RCC_OscConfig+0x4c4>
           (READ_BIT(pll_config, RCC_PLLCFGR_PLLN) != RCC_OscInitStruct->PLL.PLLN) ||
 80016d0:	68fa      	ldr	r2, [r7, #12]
 80016d2:	f647 73c0 	movw	r3, #32704	; 0x7fc0
 80016d6:	4013      	ands	r3, r2
 80016d8:	687a      	ldr	r2, [r7, #4]
 80016da:	6a52      	ldr	r2, [r2, #36]	; 0x24
           (READ_BIT(pll_config, RCC_PLLCFGR_PLLM) != RCC_OscInitStruct->PLL.PLLM) ||
 80016dc:	4293      	cmp	r3, r2
 80016de:	d10d      	bne.n	80016fc <HAL_RCC_OscConfig+0x4c4>
           (READ_BIT(pll_config, RCC_PLLCFGR_PLLP) != RCC_OscInitStruct->PLL.PLLP) ||
 80016e0:	68fb      	ldr	r3, [r7, #12]
 80016e2:	f403 3240 	and.w	r2, r3, #196608	; 0x30000
 80016e6:	687b      	ldr	r3, [r7, #4]
 80016e8:	6a9b      	ldr	r3, [r3, #40]	; 0x28
           (READ_BIT(pll_config, RCC_PLLCFGR_PLLN) != RCC_OscInitStruct->PLL.PLLN) ||
 80016ea:	429a      	cmp	r2, r3
 80016ec:	d106      	bne.n	80016fc <HAL_RCC_OscConfig+0x4c4>
           (READ_BIT(pll_config, RCC_PLLCFGR_PLLQ) != RCC_OscInitStruct->PLL.PLLQ))
 80016ee:	68fb      	ldr	r3, [r7, #12]
 80016f0:	f003 6270 	and.w	r2, r3, #251658240	; 0xf000000
 80016f4:	687b      	ldr	r3, [r7, #4]
 80016f6:	6adb      	ldr	r3, [r3, #44]	; 0x2c
           (READ_BIT(pll_config, RCC_PLLCFGR_PLLP) != RCC_OscInitStruct->PLL.PLLP) ||
 80016f8:	429a      	cmp	r2, r3
 80016fa:	d001      	beq.n	8001700 <HAL_RCC_OscConfig+0x4c8>
        {
          return HAL_ERROR;
 80016fc:	2301      	movs	r3, #1
 80016fe:	e000      	b.n	8001702 <HAL_RCC_OscConfig+0x4ca>
        }
      }
    }
  }
  return HAL_OK;
 8001700:	2300      	movs	r3, #0
}
 8001702:	4618      	mov	r0, r3
 8001704:	3718      	adds	r7, #24
 8001706:	46bd      	mov	sp, r7
 8001708:	bd80      	pop	{r7, pc}
 800170a:	bf00      	nop
 800170c:	40007000 	.word	0x40007000
 8001710:	40023800 	.word	0x40023800
 8001714:	42470060 	.word	0x42470060

08001718 <HAL_RCC_ClockConfig>:
  *         HPRE[3:0] bits to ensure that HCLK not exceed the maximum allowed frequency
  *         (for more details refer to section above "Initialization/de-initialization functions")
  * @retval None
  */
HAL_StatusTypeDef HAL_RCC_ClockConfig(RCC_ClkInitTypeDef  *RCC_ClkInitStruct, uint32_t FLatency)
{
 8001718:	b580      	push	{r7, lr}
 800171a:	b084      	sub	sp, #16
 800171c:	af00      	add	r7, sp, #0
 800171e:	6078      	str	r0, [r7, #4]
 8001720:	6039      	str	r1, [r7, #0]
  uint32_t tickstart;

  /* Check Null pointer */
  if(RCC_ClkInitStruct == NULL)
 8001722:	687b      	ldr	r3, [r7, #4]
 8001724:	2b00      	cmp	r3, #0
 8001726:	d101      	bne.n	800172c <HAL_RCC_ClockConfig+0x14>
  {
    return HAL_ERROR;
 8001728:	2301      	movs	r3, #1
 800172a:	e0cc      	b.n	80018c6 <HAL_RCC_ClockConfig+0x1ae>
  /* To correctly read data from FLASH memory, the number of wait states (LATENCY)
    must be correctly programmed according to the frequency of the CPU clock
    (HCLK) and the supply voltage of the device. */

  /* Increasing the number of wait states because of higher CPU frequency */
  if(FLatency > __HAL_FLASH_GET_LATENCY())
 800172c:	4b68      	ldr	r3, [pc, #416]	; (80018d0 <HAL_RCC_ClockConfig+0x1b8>)
 800172e:	681b      	ldr	r3, [r3, #0]
 8001730:	f003 030f 	and.w	r3, r3, #15
 8001734:	683a      	ldr	r2, [r7, #0]
 8001736:	429a      	cmp	r2, r3
 8001738:	d90c      	bls.n	8001754 <HAL_RCC_ClockConfig+0x3c>
  {
    /* Program the new number of wait states to the LATENCY bits in the FLASH_ACR register */
    __HAL_FLASH_SET_LATENCY(FLatency);
 800173a:	4b65      	ldr	r3, [pc, #404]	; (80018d0 <HAL_RCC_ClockConfig+0x1b8>)
 800173c:	683a      	ldr	r2, [r7, #0]
 800173e:	b2d2      	uxtb	r2, r2
 8001740:	701a      	strb	r2, [r3, #0]

    /* Check that the new number of wait states is taken into account to access the Flash
    memory by reading the FLASH_ACR register */
    if(__HAL_FLASH_GET_LATENCY() != FLatency)
 8001742:	4b63      	ldr	r3, [pc, #396]	; (80018d0 <HAL_RCC_ClockConfig+0x1b8>)
 8001744:	681b      	ldr	r3, [r3, #0]
 8001746:	f003 030f 	and.w	r3, r3, #15
 800174a:	683a      	ldr	r2, [r7, #0]
 800174c:	429a      	cmp	r2, r3
 800174e:	d001      	beq.n	8001754 <HAL_RCC_ClockConfig+0x3c>
    {
      return HAL_ERROR;
 8001750:	2301      	movs	r3, #1
 8001752:	e0b8      	b.n	80018c6 <HAL_RCC_ClockConfig+0x1ae>
    }
  }

  /*-------------------------- HCLK Configuration --------------------------*/
  if(((RCC_ClkInitStruct->ClockType) & RCC_CLOCKTYPE_HCLK) == RCC_CLOCKTYPE_HCLK)
 8001754:	687b      	ldr	r3, [r7, #4]
 8001756:	681b      	ldr	r3, [r3, #0]
 8001758:	f003 0302 	and.w	r3, r3, #2
 800175c:	2b00      	cmp	r3, #0
 800175e:	d020      	beq.n	80017a2 <HAL_RCC_ClockConfig+0x8a>
  {
    /* Set the highest APBx dividers in order to ensure that we do not go through
       a non-spec phase whatever we decrease or increase HCLK. */
    if(((RCC_ClkInitStruct->ClockType) & RCC_CLOCKTYPE_PCLK1) == RCC_CLOCKTYPE_PCLK1)
 8001760:	687b      	ldr	r3, [r7, #4]
 8001762:	681b      	ldr	r3, [r3, #0]
 8001764:	f003 0304 	and.w	r3, r3, #4
 8001768:	2b00      	cmp	r3, #0
 800176a:	d005      	beq.n	8001778 <HAL_RCC_ClockConfig+0x60>
    {
      MODIFY_REG(RCC->CFGR, RCC_CFGR_PPRE1, RCC_HCLK_DIV16);
 800176c:	4b59      	ldr	r3, [pc, #356]	; (80018d4 <HAL_RCC_ClockConfig+0x1bc>)
 800176e:	689b      	ldr	r3, [r3, #8]
 8001770:	4a58      	ldr	r2, [pc, #352]	; (80018d4 <HAL_RCC_ClockConfig+0x1bc>)
 8001772:	f443 53e0 	orr.w	r3, r3, #7168	; 0x1c00
 8001776:	6093      	str	r3, [r2, #8]
    }

    if(((RCC_ClkInitStruct->ClockType) & RCC_CLOCKTYPE_PCLK2) == RCC_CLOCKTYPE_PCLK2)
 8001778:	687b      	ldr	r3, [r7, #4]
 800177a:	681b      	ldr	r3, [r3, #0]
 800177c:	f003 0308 	and.w	r3, r3, #8
 8001780:	2b00      	cmp	r3, #0
 8001782:	d005      	beq.n	8001790 <HAL_RCC_ClockConfig+0x78>
    {
      MODIFY_REG(RCC->CFGR, RCC_CFGR_PPRE2, (RCC_HCLK_DIV16 << 3));
 8001784:	4b53      	ldr	r3, [pc, #332]	; (80018d4 <HAL_RCC_ClockConfig+0x1bc>)
 8001786:	689b      	ldr	r3, [r3, #8]
 8001788:	4a52      	ldr	r2, [pc, #328]	; (80018d4 <HAL_RCC_ClockConfig+0x1bc>)
 800178a:	f443 4360 	orr.w	r3, r3, #57344	; 0xe000
 800178e:	6093      	str	r3, [r2, #8]
    }

    assert_param(IS_RCC_HCLK(RCC_ClkInitStruct->AHBCLKDivider));
    MODIFY_REG(RCC->CFGR, RCC_CFGR_HPRE, RCC_ClkInitStruct->AHBCLKDivider);
 8001790:	4b50      	ldr	r3, [pc, #320]	; (80018d4 <HAL_RCC_ClockConfig+0x1bc>)
 8001792:	689b      	ldr	r3, [r3, #8]
 8001794:	f023 02f0 	bic.w	r2, r3, #240	; 0xf0
 8001798:	687b      	ldr	r3, [r7, #4]
 800179a:	689b      	ldr	r3, [r3, #8]
 800179c:	494d      	ldr	r1, [pc, #308]	; (80018d4 <HAL_RCC_ClockConfig+0x1bc>)
 800179e:	4313      	orrs	r3, r2
 80017a0:	608b      	str	r3, [r1, #8]
  }

  /*------------------------- SYSCLK Configuration ---------------------------*/
  if(((RCC_ClkInitStruct->ClockType) & RCC_CLOCKTYPE_SYSCLK) == RCC_CLOCKTYPE_SYSCLK)
 80017a2:	687b      	ldr	r3, [r7, #4]
 80017a4:	681b      	ldr	r3, [r3, #0]
 80017a6:	f003 0301 	and.w	r3, r3, #1
 80017aa:	2b00      	cmp	r3, #0
 80017ac:	d044      	beq.n	8001838 <HAL_RCC_ClockConfig+0x120>
  {
    assert_param(IS_RCC_SYSCLKSOURCE(RCC_ClkInitStruct->SYSCLKSource));

    /* HSE is selected as System Clock Source */
    if(RCC_ClkInitStruct->SYSCLKSource == RCC_SYSCLKSOURCE_HSE)
 80017ae:	687b      	ldr	r3, [r7, #4]
 80017b0:	685b      	ldr	r3, [r3, #4]
 80017b2:	2b01      	cmp	r3, #1
 80017b4:	d107      	bne.n	80017c6 <HAL_RCC_ClockConfig+0xae>
    {
      /* Check the HSE ready flag */
      if(__HAL_RCC_GET_FLAG(RCC_FLAG_HSERDY) == RESET)
 80017b6:	4b47      	ldr	r3, [pc, #284]	; (80018d4 <HAL_RCC_ClockConfig+0x1bc>)
 80017b8:	681b      	ldr	r3, [r3, #0]
 80017ba:	f403 3300 	and.w	r3, r3, #131072	; 0x20000
 80017be:	2b00      	cmp	r3, #0
 80017c0:	d119      	bne.n	80017f6 <HAL_RCC_ClockConfig+0xde>
      {
        return HAL_ERROR;
 80017c2:	2301      	movs	r3, #1
 80017c4:	e07f      	b.n	80018c6 <HAL_RCC_ClockConfig+0x1ae>
      }
    }
    /* PLL is selected as System Clock Source */
    else if((RCC_ClkInitStruct->SYSCLKSource == RCC_SYSCLKSOURCE_PLLCLK)   ||
 80017c6:	687b      	ldr	r3, [r7, #4]
 80017c8:	685b      	ldr	r3, [r3, #4]
 80017ca:	2b02      	cmp	r3, #2
 80017cc:	d003      	beq.n	80017d6 <HAL_RCC_ClockConfig+0xbe>
            (RCC_ClkInitStruct->SYSCLKSource == RCC_SYSCLKSOURCE_PLLRCLK))
 80017ce:	687b      	ldr	r3, [r7, #4]
 80017d0:	685b      	ldr	r3, [r3, #4]
    else if((RCC_ClkInitStruct->SYSCLKSource == RCC_SYSCLKSOURCE_PLLCLK)   ||
 80017d2:	2b03      	cmp	r3, #3
 80017d4:	d107      	bne.n	80017e6 <HAL_RCC_ClockConfig+0xce>
    {
      /* Check the PLL ready flag */
      if(__HAL_RCC_GET_FLAG(RCC_FLAG_PLLRDY) == RESET)
 80017d6:	4b3f      	ldr	r3, [pc, #252]	; (80018d4 <HAL_RCC_ClockConfig+0x1bc>)
 80017d8:	681b      	ldr	r3, [r3, #0]
 80017da:	f003 7300 	and.w	r3, r3, #33554432	; 0x2000000
 80017de:	2b00      	cmp	r3, #0
 80017e0:	d109      	bne.n	80017f6 <HAL_RCC_ClockConfig+0xde>
      {
        return HAL_ERROR;
 80017e2:	2301      	movs	r3, #1
 80017e4:	e06f      	b.n	80018c6 <HAL_RCC_ClockConfig+0x1ae>
    }
    /* HSI is selected as System Clock Source */
    else
    {
      /* Check the HSI ready flag */
      if(__HAL_RCC_GET_FLAG(RCC_FLAG_HSIRDY) == RESET)
 80017e6:	4b3b      	ldr	r3, [pc, #236]	; (80018d4 <HAL_RCC_ClockConfig+0x1bc>)
 80017e8:	681b      	ldr	r3, [r3, #0]
 80017ea:	f003 0302 	and.w	r3, r3, #2
 80017ee:	2b00      	cmp	r3, #0
 80017f0:	d101      	bne.n	80017f6 <HAL_RCC_ClockConfig+0xde>
      {
        return HAL_ERROR;
 80017f2:	2301      	movs	r3, #1
 80017f4:	e067      	b.n	80018c6 <HAL_RCC_ClockConfig+0x1ae>
      }
    }

    __HAL_RCC_SYSCLK_CONFIG(RCC_ClkInitStruct->SYSCLKSource);
 80017f6:	4b37      	ldr	r3, [pc, #220]	; (80018d4 <HAL_RCC_ClockConfig+0x1bc>)
 80017f8:	689b      	ldr	r3, [r3, #8]
 80017fa:	f023 0203 	bic.w	r2, r3, #3
 80017fe:	687b      	ldr	r3, [r7, #4]
 8001800:	685b      	ldr	r3, [r3, #4]
 8001802:	4934      	ldr	r1, [pc, #208]	; (80018d4 <HAL_RCC_ClockConfig+0x1bc>)
 8001804:	4313      	orrs	r3, r2
 8001806:	608b      	str	r3, [r1, #8]

    /* Get Start Tick */
    tickstart = HAL_GetTick();
 8001808:	f7ff fa50 	bl	8000cac <HAL_GetTick>
 800180c:	60f8      	str	r0, [r7, #12]

    while (__HAL_RCC_GET_SYSCLK_SOURCE() != (RCC_ClkInitStruct->SYSCLKSource << RCC_CFGR_SWS_Pos))
 800180e:	e00a      	b.n	8001826 <HAL_RCC_ClockConfig+0x10e>
    {
      if ((HAL_GetTick() - tickstart) > CLOCKSWITCH_TIMEOUT_VALUE)
 8001810:	f7ff fa4c 	bl	8000cac <HAL_GetTick>
 8001814:	4602      	mov	r2, r0
 8001816:	68fb      	ldr	r3, [r7, #12]
 8001818:	1ad3      	subs	r3, r2, r3
 800181a:	f241 3288 	movw	r2, #5000	; 0x1388
 800181e:	4293      	cmp	r3, r2
 8001820:	d901      	bls.n	8001826 <HAL_RCC_ClockConfig+0x10e>
      {
        return HAL_TIMEOUT;
 8001822:	2303      	movs	r3, #3
 8001824:	e04f      	b.n	80018c6 <HAL_RCC_ClockConfig+0x1ae>
    while (__HAL_RCC_GET_SYSCLK_SOURCE() != (RCC_ClkInitStruct->SYSCLKSource << RCC_CFGR_SWS_Pos))
 8001826:	4b2b      	ldr	r3, [pc, #172]	; (80018d4 <HAL_RCC_ClockConfig+0x1bc>)
 8001828:	689b      	ldr	r3, [r3, #8]
 800182a:	f003 020c 	and.w	r2, r3, #12
 800182e:	687b      	ldr	r3, [r7, #4]
 8001830:	685b      	ldr	r3, [r3, #4]
 8001832:	009b      	lsls	r3, r3, #2
 8001834:	429a      	cmp	r2, r3
 8001836:	d1eb      	bne.n	8001810 <HAL_RCC_ClockConfig+0xf8>
      }
    }
  }

  /* Decreasing the number of wait states because of lower CPU frequency */
  if(FLatency < __HAL_FLASH_GET_LATENCY())
 8001838:	4b25      	ldr	r3, [pc, #148]	; (80018d0 <HAL_RCC_ClockConfig+0x1b8>)
 800183a:	681b      	ldr	r3, [r3, #0]
 800183c:	f003 030f 	and.w	r3, r3, #15
 8001840:	683a      	ldr	r2, [r7, #0]
 8001842:	429a      	cmp	r2, r3
 8001844:	d20c      	bcs.n	8001860 <HAL_RCC_ClockConfig+0x148>
  {
     /* Program the new number of wait states to the LATENCY bits in the FLASH_ACR register */
    __HAL_FLASH_SET_LATENCY(FLatency);
 8001846:	4b22      	ldr	r3, [pc, #136]	; (80018d0 <HAL_RCC_ClockConfig+0x1b8>)
 8001848:	683a      	ldr	r2, [r7, #0]
 800184a:	b2d2      	uxtb	r2, r2
 800184c:	701a      	strb	r2, [r3, #0]

    /* Check that the new number of wait states is taken into account to access the Flash
    memory by reading the FLASH_ACR register */
    if(__HAL_FLASH_GET_LATENCY() != FLatency)
 800184e:	4b20      	ldr	r3, [pc, #128]	; (80018d0 <HAL_RCC_ClockConfig+0x1b8>)
 8001850:	681b      	ldr	r3, [r3, #0]
 8001852:	f003 030f 	and.w	r3, r3, #15
 8001856:	683a      	ldr	r2, [r7, #0]
 8001858:	429a      	cmp	r2, r3
 800185a:	d001      	beq.n	8001860 <HAL_RCC_ClockConfig+0x148>
    {
      return HAL_ERROR;
 800185c:	2301      	movs	r3, #1
 800185e:	e032      	b.n	80018c6 <HAL_RCC_ClockConfig+0x1ae>
    }
  }

  /*-------------------------- PCLK1 Configuration ---------------------------*/
  if(((RCC_ClkInitStruct->ClockType) & RCC_CLOCKTYPE_PCLK1) == RCC_CLOCKTYPE_PCLK1)
 8001860:	687b      	ldr	r3, [r7, #4]
 8001862:	681b      	ldr	r3, [r3, #0]
 8001864:	f003 0304 	and.w	r3, r3, #4
 8001868:	2b00      	cmp	r3, #0
 800186a:	d008      	beq.n	800187e <HAL_RCC_ClockConfig+0x166>
  {
    assert_param(IS_RCC_PCLK(RCC_ClkInitStruct->APB1CLKDivider));
    MODIFY_REG(RCC->CFGR, RCC_CFGR_PPRE1, RCC_ClkInitStruct->APB1CLKDivider);
 800186c:	4b19      	ldr	r3, [pc, #100]	; (80018d4 <HAL_RCC_ClockConfig+0x1bc>)
 800186e:	689b      	ldr	r3, [r3, #8]
 8001870:	f423 52e0 	bic.w	r2, r3, #7168	; 0x1c00
 8001874:	687b      	ldr	r3, [r7, #4]
 8001876:	68db      	ldr	r3, [r3, #12]
 8001878:	4916      	ldr	r1, [pc, #88]	; (80018d4 <HAL_RCC_ClockConfig+0x1bc>)
 800187a:	4313      	orrs	r3, r2
 800187c:	608b      	str	r3, [r1, #8]
  }

  /*-------------------------- PCLK2 Configuration ---------------------------*/
  if(((RCC_ClkInitStruct->ClockType) & RCC_CLOCKTYPE_PCLK2) == RCC_CLOCKTYPE_PCLK2)
 800187e:	687b      	ldr	r3, [r7, #4]
 8001880:	681b      	ldr	r3, [r3, #0]
 8001882:	f003 0308 	and.w	r3, r3, #8
 8001886:	2b00      	cmp	r3, #0
 8001888:	d009      	beq.n	800189e <HAL_RCC_ClockConfig+0x186>
  {
    assert_param(IS_RCC_PCLK(RCC_ClkInitStruct->APB2CLKDivider));
    MODIFY_REG(RCC->CFGR, RCC_CFGR_PPRE2, ((RCC_ClkInitStruct->APB2CLKDivider) << 3U));
 800188a:	4b12      	ldr	r3, [pc, #72]	; (80018d4 <HAL_RCC_ClockConfig+0x1bc>)
 800188c:	689b      	ldr	r3, [r3, #8]
 800188e:	f423 4260 	bic.w	r2, r3, #57344	; 0xe000
 8001892:	687b      	ldr	r3, [r7, #4]
 8001894:	691b      	ldr	r3, [r3, #16]
 8001896:	00db      	lsls	r3, r3, #3
 8001898:	490e      	ldr	r1, [pc, #56]	; (80018d4 <HAL_RCC_ClockConfig+0x1bc>)
 800189a:	4313      	orrs	r3, r2
 800189c:	608b      	str	r3, [r1, #8]
  }

  /* Update the SystemCoreClock global variable */
  SystemCoreClock = HAL_RCC_GetSysClockFreq() >> AHBPrescTable[(RCC->CFGR & RCC_CFGR_HPRE)>> RCC_CFGR_HPRE_Pos];
 800189e:	f000 f821 	bl	80018e4 <HAL_RCC_GetSysClockFreq>
 80018a2:	4601      	mov	r1, r0
 80018a4:	4b0b      	ldr	r3, [pc, #44]	; (80018d4 <HAL_RCC_ClockConfig+0x1bc>)
 80018a6:	689b      	ldr	r3, [r3, #8]
 80018a8:	091b      	lsrs	r3, r3, #4
 80018aa:	f003 030f 	and.w	r3, r3, #15
 80018ae:	4a0a      	ldr	r2, [pc, #40]	; (80018d8 <HAL_RCC_ClockConfig+0x1c0>)
 80018b0:	5cd3      	ldrb	r3, [r2, r3]
 80018b2:	fa21 f303 	lsr.w	r3, r1, r3
 80018b6:	4a09      	ldr	r2, [pc, #36]	; (80018dc <HAL_RCC_ClockConfig+0x1c4>)
 80018b8:	6013      	str	r3, [r2, #0]

  /* Configure the source of time base considering new system clocks settings */
  HAL_InitTick (uwTickPrio);
 80018ba:	4b09      	ldr	r3, [pc, #36]	; (80018e0 <HAL_RCC_ClockConfig+0x1c8>)
 80018bc:	681b      	ldr	r3, [r3, #0]
 80018be:	4618      	mov	r0, r3
 80018c0:	f7ff f9b0 	bl	8000c24 <HAL_InitTick>

  return HAL_OK;
 80018c4:	2300      	movs	r3, #0
}
 80018c6:	4618      	mov	r0, r3
 80018c8:	3710      	adds	r7, #16
 80018ca:	46bd      	mov	sp, r7
 80018cc:	bd80      	pop	{r7, pc}
 80018ce:	bf00      	nop
 80018d0:	40023c00 	.word	0x40023c00
 80018d4:	40023800 	.word	0x40023800
 80018d8:	080035d8 	.word	0x080035d8
 80018dc:	20000000 	.word	0x20000000
 80018e0:	20000004 	.word	0x20000004

080018e4 <HAL_RCC_GetSysClockFreq>:
  *
  *
  * @retval SYSCLK frequency
  */
__weak uint32_t HAL_RCC_GetSysClockFreq(void)
{
 80018e4:	b5f0      	push	{r4, r5, r6, r7, lr}
 80018e6:	b085      	sub	sp, #20
 80018e8:	af00      	add	r7, sp, #0
  uint32_t pllm = 0U, pllvco = 0U, pllp = 0U;
 80018ea:	2300      	movs	r3, #0
 80018ec:	607b      	str	r3, [r7, #4]
 80018ee:	2300      	movs	r3, #0
 80018f0:	60fb      	str	r3, [r7, #12]
 80018f2:	2300      	movs	r3, #0
 80018f4:	603b      	str	r3, [r7, #0]
  uint32_t sysclockfreq = 0U;
 80018f6:	2300      	movs	r3, #0
 80018f8:	60bb      	str	r3, [r7, #8]

  /* Get SYSCLK source -------------------------------------------------------*/
  switch (RCC->CFGR & RCC_CFGR_SWS)
 80018fa:	4b63      	ldr	r3, [pc, #396]	; (8001a88 <HAL_RCC_GetSysClockFreq+0x1a4>)
 80018fc:	689b      	ldr	r3, [r3, #8]
 80018fe:	f003 030c 	and.w	r3, r3, #12
 8001902:	2b04      	cmp	r3, #4
 8001904:	d007      	beq.n	8001916 <HAL_RCC_GetSysClockFreq+0x32>
 8001906:	2b08      	cmp	r3, #8
 8001908:	d008      	beq.n	800191c <HAL_RCC_GetSysClockFreq+0x38>
 800190a:	2b00      	cmp	r3, #0
 800190c:	f040 80b4 	bne.w	8001a78 <HAL_RCC_GetSysClockFreq+0x194>
  {
    case RCC_CFGR_SWS_HSI:  /* HSI used as system clock source */
    {
      sysclockfreq = HSI_VALUE;
 8001910:	4b5e      	ldr	r3, [pc, #376]	; (8001a8c <HAL_RCC_GetSysClockFreq+0x1a8>)
 8001912:	60bb      	str	r3, [r7, #8]
       break;
 8001914:	e0b3      	b.n	8001a7e <HAL_RCC_GetSysClockFreq+0x19a>
    }
    case RCC_CFGR_SWS_HSE:  /* HSE used as system clock  source */
    {
      sysclockfreq = HSE_VALUE;
 8001916:	4b5e      	ldr	r3, [pc, #376]	; (8001a90 <HAL_RCC_GetSysClockFreq+0x1ac>)
 8001918:	60bb      	str	r3, [r7, #8]
      break;
 800191a:	e0b0      	b.n	8001a7e <HAL_RCC_GetSysClockFreq+0x19a>
    }
    case RCC_CFGR_SWS_PLL:  /* PLL used as system clock  source */
    {
      /* PLL_VCO = (HSE_VALUE or HSI_VALUE / PLLM) * PLLN
      SYSCLK = PLL_VCO / PLLP */
      pllm = RCC->PLLCFGR & RCC_PLLCFGR_PLLM;
 800191c:	4b5a      	ldr	r3, [pc, #360]	; (8001a88 <HAL_RCC_GetSysClockFreq+0x1a4>)
 800191e:	685b      	ldr	r3, [r3, #4]
 8001920:	f003 033f 	and.w	r3, r3, #63	; 0x3f
 8001924:	607b      	str	r3, [r7, #4]
      if(__HAL_RCC_GET_PLL_OSCSOURCE() != RCC_PLLSOURCE_HSI)
 8001926:	4b58      	ldr	r3, [pc, #352]	; (8001a88 <HAL_RCC_GetSysClockFreq+0x1a4>)
 8001928:	685b      	ldr	r3, [r3, #4]
 800192a:	f403 0380 	and.w	r3, r3, #4194304	; 0x400000
 800192e:	2b00      	cmp	r3, #0
 8001930:	d04a      	beq.n	80019c8 <HAL_RCC_GetSysClockFreq+0xe4>
      {
        /* HSE used as PLL clock source */
        pllvco = (uint32_t) ((((uint64_t) HSE_VALUE * ((uint64_t) ((RCC->PLLCFGR & RCC_PLLCFGR_PLLN) >> RCC_PLLCFGR_PLLN_Pos)))) / (uint64_t)pllm);
 8001932:	4b55      	ldr	r3, [pc, #340]	; (8001a88 <HAL_RCC_GetSysClockFreq+0x1a4>)
 8001934:	685b      	ldr	r3, [r3, #4]
 8001936:	099b      	lsrs	r3, r3, #6
 8001938:	f04f 0400 	mov.w	r4, #0
 800193c:	f240 11ff 	movw	r1, #511	; 0x1ff
 8001940:	f04f 0200 	mov.w	r2, #0
 8001944:	ea03 0501 	and.w	r5, r3, r1
 8001948:	ea04 0602 	and.w	r6, r4, r2
 800194c:	4629      	mov	r1, r5
 800194e:	4632      	mov	r2, r6
 8001950:	f04f 0300 	mov.w	r3, #0
 8001954:	f04f 0400 	mov.w	r4, #0
 8001958:	0154      	lsls	r4, r2, #5
 800195a:	ea44 64d1 	orr.w	r4, r4, r1, lsr #27
 800195e:	014b      	lsls	r3, r1, #5
 8001960:	4619      	mov	r1, r3
 8001962:	4622      	mov	r2, r4
 8001964:	1b49      	subs	r1, r1, r5
 8001966:	eb62 0206 	sbc.w	r2, r2, r6
 800196a:	f04f 0300 	mov.w	r3, #0
 800196e:	f04f 0400 	mov.w	r4, #0
 8001972:	0194      	lsls	r4, r2, #6
 8001974:	ea44 6491 	orr.w	r4, r4, r1, lsr #26
 8001978:	018b      	lsls	r3, r1, #6
 800197a:	1a5b      	subs	r3, r3, r1
 800197c:	eb64 0402 	sbc.w	r4, r4, r2
 8001980:	f04f 0100 	mov.w	r1, #0
 8001984:	f04f 0200 	mov.w	r2, #0
 8001988:	00e2      	lsls	r2, r4, #3
 800198a:	ea42 7253 	orr.w	r2, r2, r3, lsr #29
 800198e:	00d9      	lsls	r1, r3, #3
 8001990:	460b      	mov	r3, r1
 8001992:	4614      	mov	r4, r2
 8001994:	195b      	adds	r3, r3, r5
 8001996:	eb44 0406 	adc.w	r4, r4, r6
 800199a:	f04f 0100 	mov.w	r1, #0
 800199e:	f04f 0200 	mov.w	r2, #0
 80019a2:	0262      	lsls	r2, r4, #9
 80019a4:	ea42 52d3 	orr.w	r2, r2, r3, lsr #23
 80019a8:	0259      	lsls	r1, r3, #9
 80019aa:	460b      	mov	r3, r1
 80019ac:	4614      	mov	r4, r2
 80019ae:	4618      	mov	r0, r3
 80019b0:	4621      	mov	r1, r4
 80019b2:	687b      	ldr	r3, [r7, #4]
 80019b4:	f04f 0400 	mov.w	r4, #0
 80019b8:	461a      	mov	r2, r3
 80019ba:	4623      	mov	r3, r4
 80019bc:	f7fe fc60 	bl	8000280 <__aeabi_uldivmod>
 80019c0:	4603      	mov	r3, r0
 80019c2:	460c      	mov	r4, r1
 80019c4:	60fb      	str	r3, [r7, #12]
 80019c6:	e049      	b.n	8001a5c <HAL_RCC_GetSysClockFreq+0x178>
      }
      else
      {
        /* HSI used as PLL clock source */
        pllvco = (uint32_t) ((((uint64_t) HSI_VALUE * ((uint64_t) ((RCC->PLLCFGR & RCC_PLLCFGR_PLLN) >> RCC_PLLCFGR_PLLN_Pos)))) / (uint64_t)pllm);
 80019c8:	4b2f      	ldr	r3, [pc, #188]	; (8001a88 <HAL_RCC_GetSysClockFreq+0x1a4>)
 80019ca:	685b      	ldr	r3, [r3, #4]
 80019cc:	099b      	lsrs	r3, r3, #6
 80019ce:	f04f 0400 	mov.w	r4, #0
 80019d2:	f240 11ff 	movw	r1, #511	; 0x1ff
 80019d6:	f04f 0200 	mov.w	r2, #0
 80019da:	ea03 0501 	and.w	r5, r3, r1
 80019de:	ea04 0602 	and.w	r6, r4, r2
 80019e2:	4629      	mov	r1, r5
 80019e4:	4632      	mov	r2, r6
 80019e6:	f04f 0300 	mov.w	r3, #0
 80019ea:	f04f 0400 	mov.w	r4, #0
 80019ee:	0154      	lsls	r4, r2, #5
 80019f0:	ea44 64d1 	orr.w	r4, r4, r1, lsr #27
 80019f4:	014b      	lsls	r3, r1, #5
 80019f6:	4619      	mov	r1, r3
 80019f8:	4622      	mov	r2, r4
 80019fa:	1b49      	subs	r1, r1, r5
 80019fc:	eb62 0206 	sbc.w	r2, r2, r6
 8001a00:	f04f 0300 	mov.w	r3, #0
 8001a04:	f04f 0400 	mov.w	r4, #0
 8001a08:	0194      	lsls	r4, r2, #6
 8001a0a:	ea44 6491 	orr.w	r4, r4, r1, lsr #26
 8001a0e:	018b      	lsls	r3, r1, #6
 8001a10:	1a5b      	subs	r3, r3, r1
 8001a12:	eb64 0402 	sbc.w	r4, r4, r2
 8001a16:	f04f 0100 	mov.w	r1, #0
 8001a1a:	f04f 0200 	mov.w	r2, #0
 8001a1e:	00e2      	lsls	r2, r4, #3
 8001a20:	ea42 7253 	orr.w	r2, r2, r3, lsr #29
 8001a24:	00d9      	lsls	r1, r3, #3
 8001a26:	460b      	mov	r3, r1
 8001a28:	4614      	mov	r4, r2
 8001a2a:	195b      	adds	r3, r3, r5
 8001a2c:	eb44 0406 	adc.w	r4, r4, r6
 8001a30:	f04f 0100 	mov.w	r1, #0
 8001a34:	f04f 0200 	mov.w	r2, #0
 8001a38:	02a2      	lsls	r2, r4, #10
 8001a3a:	ea42 5293 	orr.w	r2, r2, r3, lsr #22
 8001a3e:	0299      	lsls	r1, r3, #10
 8001a40:	460b      	mov	r3, r1
 8001a42:	4614      	mov	r4, r2
 8001a44:	4618      	mov	r0, r3
 8001a46:	4621      	mov	r1, r4
 8001a48:	687b      	ldr	r3, [r7, #4]
 8001a4a:	f04f 0400 	mov.w	r4, #0
 8001a4e:	461a      	mov	r2, r3
 8001a50:	4623      	mov	r3, r4
 8001a52:	f7fe fc15 	bl	8000280 <__aeabi_uldivmod>
 8001a56:	4603      	mov	r3, r0
 8001a58:	460c      	mov	r4, r1
 8001a5a:	60fb      	str	r3, [r7, #12]
      }
      pllp = ((((RCC->PLLCFGR & RCC_PLLCFGR_PLLP) >> RCC_PLLCFGR_PLLP_Pos) + 1U) *2U);
 8001a5c:	4b0a      	ldr	r3, [pc, #40]	; (8001a88 <HAL_RCC_GetSysClockFreq+0x1a4>)
 8001a5e:	685b      	ldr	r3, [r3, #4]
 8001a60:	0c1b      	lsrs	r3, r3, #16
 8001a62:	f003 0303 	and.w	r3, r3, #3
 8001a66:	3301      	adds	r3, #1
 8001a68:	005b      	lsls	r3, r3, #1
 8001a6a:	603b      	str	r3, [r7, #0]

      sysclockfreq = pllvco/pllp;
 8001a6c:	68fa      	ldr	r2, [r7, #12]
 8001a6e:	683b      	ldr	r3, [r7, #0]
 8001a70:	fbb2 f3f3 	udiv	r3, r2, r3
 8001a74:	60bb      	str	r3, [r7, #8]
      break;
 8001a76:	e002      	b.n	8001a7e <HAL_RCC_GetSysClockFreq+0x19a>
    }
    default:
    {
      sysclockfreq = HSI_VALUE;
 8001a78:	4b04      	ldr	r3, [pc, #16]	; (8001a8c <HAL_RCC_GetSysClockFreq+0x1a8>)
 8001a7a:	60bb      	str	r3, [r7, #8]
      break;
 8001a7c:	bf00      	nop
    }
  }
  return sysclockfreq;
 8001a7e:	68bb      	ldr	r3, [r7, #8]
}
 8001a80:	4618      	mov	r0, r3
 8001a82:	3714      	adds	r7, #20
 8001a84:	46bd      	mov	sp, r7
 8001a86:	bdf0      	pop	{r4, r5, r6, r7, pc}
 8001a88:	40023800 	.word	0x40023800
 8001a8c:	00f42400 	.word	0x00f42400
 8001a90:	007a1200 	.word	0x007a1200

08001a94 <HAL_RCC_GetHCLKFreq>:
  * @note   The SystemCoreClock CMSIS variable is used to store System Clock Frequency
  *         and updated within this function
  * @retval HCLK frequency
  */
uint32_t HAL_RCC_GetHCLKFreq(void)
{
 8001a94:	b480      	push	{r7}
 8001a96:	af00      	add	r7, sp, #0
  return SystemCoreClock;
 8001a98:	4b03      	ldr	r3, [pc, #12]	; (8001aa8 <HAL_RCC_GetHCLKFreq+0x14>)
 8001a9a:	681b      	ldr	r3, [r3, #0]
}
 8001a9c:	4618      	mov	r0, r3
 8001a9e:	46bd      	mov	sp, r7
 8001aa0:	f85d 7b04 	ldr.w	r7, [sp], #4
 8001aa4:	4770      	bx	lr
 8001aa6:	bf00      	nop
 8001aa8:	20000000 	.word	0x20000000

08001aac <HAL_RCC_GetPCLK1Freq>:
  * @note   Each time PCLK1 changes, this function must be called to update the
  *         right PCLK1 value. Otherwise, any configuration based on this function will be incorrect.
  * @retval PCLK1 frequency
  */
uint32_t HAL_RCC_GetPCLK1Freq(void)
{
 8001aac:	b580      	push	{r7, lr}
 8001aae:	af00      	add	r7, sp, #0
  /* Get HCLK source and Compute PCLK1 frequency ---------------------------*/
  return (HAL_RCC_GetHCLKFreq() >> APBPrescTable[(RCC->CFGR & RCC_CFGR_PPRE1)>> RCC_CFGR_PPRE1_Pos]);
 8001ab0:	f7ff fff0 	bl	8001a94 <HAL_RCC_GetHCLKFreq>
 8001ab4:	4601      	mov	r1, r0
 8001ab6:	4b05      	ldr	r3, [pc, #20]	; (8001acc <HAL_RCC_GetPCLK1Freq+0x20>)
 8001ab8:	689b      	ldr	r3, [r3, #8]
 8001aba:	0a9b      	lsrs	r3, r3, #10
 8001abc:	f003 0307 	and.w	r3, r3, #7
 8001ac0:	4a03      	ldr	r2, [pc, #12]	; (8001ad0 <HAL_RCC_GetPCLK1Freq+0x24>)
 8001ac2:	5cd3      	ldrb	r3, [r2, r3]
 8001ac4:	fa21 f303 	lsr.w	r3, r1, r3
}
 8001ac8:	4618      	mov	r0, r3
 8001aca:	bd80      	pop	{r7, pc}
 8001acc:	40023800 	.word	0x40023800
 8001ad0:	080035e8 	.word	0x080035e8

08001ad4 <HAL_RCC_GetPCLK2Freq>:
  * @note   Each time PCLK2 changes, this function must be called to update the
  *         right PCLK2 value. Otherwise, any configuration based on this function will be incorrect.
  * @retval PCLK2 frequency
  */
uint32_t HAL_RCC_GetPCLK2Freq(void)
{
 8001ad4:	b580      	push	{r7, lr}
 8001ad6:	af00      	add	r7, sp, #0
  /* Get HCLK source and Compute PCLK2 frequency ---------------------------*/
  return (HAL_RCC_GetHCLKFreq()>> APBPrescTable[(RCC->CFGR & RCC_CFGR_PPRE2)>> RCC_CFGR_PPRE2_Pos]);
 8001ad8:	f7ff ffdc 	bl	8001a94 <HAL_RCC_GetHCLKFreq>
 8001adc:	4601      	mov	r1, r0
 8001ade:	4b05      	ldr	r3, [pc, #20]	; (8001af4 <HAL_RCC_GetPCLK2Freq+0x20>)
 8001ae0:	689b      	ldr	r3, [r3, #8]
 8001ae2:	0b5b      	lsrs	r3, r3, #13
 8001ae4:	f003 0307 	and.w	r3, r3, #7
 8001ae8:	4a03      	ldr	r2, [pc, #12]	; (8001af8 <HAL_RCC_GetPCLK2Freq+0x24>)
 8001aea:	5cd3      	ldrb	r3, [r2, r3]
 8001aec:	fa21 f303 	lsr.w	r3, r1, r3
}
 8001af0:	4618      	mov	r0, r3
 8001af2:	bd80      	pop	{r7, pc}
 8001af4:	40023800 	.word	0x40023800
 8001af8:	080035e8 	.word	0x080035e8

08001afc <HAL_RCCEx_PeriphCLKConfig>:
  *        domain (RTC and RCC_BDCR register expect BKPSRAM) will be reset
  *
  * @retval HAL status
  */
HAL_StatusTypeDef HAL_RCCEx_PeriphCLKConfig(RCC_PeriphCLKInitTypeDef  *PeriphClkInit)
{
 8001afc:	b580      	push	{r7, lr}
 8001afe:	b086      	sub	sp, #24
 8001b00:	af00      	add	r7, sp, #0
 8001b02:	6078      	str	r0, [r7, #4]
  uint32_t tickstart = 0U;
 8001b04:	2300      	movs	r3, #0
 8001b06:	617b      	str	r3, [r7, #20]
  uint32_t tmpreg1 = 0U;
 8001b08:	2300      	movs	r3, #0
 8001b0a:	613b      	str	r3, [r7, #16]

  /* Check the parameters */
  assert_param(IS_RCC_PERIPHCLOCK(PeriphClkInit->PeriphClockSelection));

  /*---------------------------- I2S configuration ---------------------------*/
  if((((PeriphClkInit->PeriphClockSelection) & RCC_PERIPHCLK_I2S) == RCC_PERIPHCLK_I2S) ||
 8001b0c:	687b      	ldr	r3, [r7, #4]
 8001b0e:	681b      	ldr	r3, [r3, #0]
 8001b10:	f003 0301 	and.w	r3, r3, #1
 8001b14:	2b00      	cmp	r3, #0
 8001b16:	d105      	bne.n	8001b24 <HAL_RCCEx_PeriphCLKConfig+0x28>
     (((PeriphClkInit->PeriphClockSelection) & RCC_PERIPHCLK_PLLI2S) == RCC_PERIPHCLK_PLLI2S))
 8001b18:	687b      	ldr	r3, [r7, #4]
 8001b1a:	681b      	ldr	r3, [r3, #0]
 8001b1c:	f003 0304 	and.w	r3, r3, #4
  if((((PeriphClkInit->PeriphClockSelection) & RCC_PERIPHCLK_I2S) == RCC_PERIPHCLK_I2S) ||
 8001b20:	2b00      	cmp	r3, #0
 8001b22:	d035      	beq.n	8001b90 <HAL_RCCEx_PeriphCLKConfig+0x94>
    assert_param(IS_RCC_PLLI2SN_VALUE(PeriphClkInit->PLLI2S.PLLI2SN));
#if defined(STM32F411xE)
    assert_param(IS_RCC_PLLI2SM_VALUE(PeriphClkInit->PLLI2S.PLLI2SM));
#endif /* STM32F411xE */
    /* Disable the PLLI2S */
    __HAL_RCC_PLLI2S_DISABLE();
 8001b24:	4b62      	ldr	r3, [pc, #392]	; (8001cb0 <HAL_RCCEx_PeriphCLKConfig+0x1b4>)
 8001b26:	2200      	movs	r2, #0
 8001b28:	601a      	str	r2, [r3, #0]
    /* Get tick */
    tickstart = HAL_GetTick();
 8001b2a:	f7ff f8bf 	bl	8000cac <HAL_GetTick>
 8001b2e:	6178      	str	r0, [r7, #20]
    /* Wait till PLLI2S is disabled */
    while(__HAL_RCC_GET_FLAG(RCC_FLAG_PLLI2SRDY)  != RESET)
 8001b30:	e008      	b.n	8001b44 <HAL_RCCEx_PeriphCLKConfig+0x48>
    {
      if((HAL_GetTick() - tickstart ) > PLLI2S_TIMEOUT_VALUE)
 8001b32:	f7ff f8bb 	bl	8000cac <HAL_GetTick>
 8001b36:	4602      	mov	r2, r0
 8001b38:	697b      	ldr	r3, [r7, #20]
 8001b3a:	1ad3      	subs	r3, r2, r3
 8001b3c:	2b02      	cmp	r3, #2
 8001b3e:	d901      	bls.n	8001b44 <HAL_RCCEx_PeriphCLKConfig+0x48>
      {
        /* return in case of Timeout detected */
        return HAL_TIMEOUT;
 8001b40:	2303      	movs	r3, #3
 8001b42:	e0b0      	b.n	8001ca6 <HAL_RCCEx_PeriphCLKConfig+0x1aa>
    while(__HAL_RCC_GET_FLAG(RCC_FLAG_PLLI2SRDY)  != RESET)
 8001b44:	4b5b      	ldr	r3, [pc, #364]	; (8001cb4 <HAL_RCCEx_PeriphCLKConfig+0x1b8>)
 8001b46:	681b      	ldr	r3, [r3, #0]
 8001b48:	f003 6300 	and.w	r3, r3, #134217728	; 0x8000000
 8001b4c:	2b00      	cmp	r3, #0
 8001b4e:	d1f0      	bne.n	8001b32 <HAL_RCCEx_PeriphCLKConfig+0x36>
    __HAL_RCC_PLLI2S_I2SCLK_CONFIG(PeriphClkInit->PLLI2S.PLLI2SM, PeriphClkInit->PLLI2S.PLLI2SN, PeriphClkInit->PLLI2S.PLLI2SR);
#else
    /* Configure the PLLI2S division factors */
    /* PLLI2S_VCO = f(VCO clock) = f(PLLI2S clock input) * (PLLI2SN/PLLM) */
    /* I2SCLK = f(PLLI2S clock output) = f(VCO clock) / PLLI2SR */
    __HAL_RCC_PLLI2S_CONFIG(PeriphClkInit->PLLI2S.PLLI2SN , PeriphClkInit->PLLI2S.PLLI2SR);
 8001b50:	687b      	ldr	r3, [r7, #4]
 8001b52:	685b      	ldr	r3, [r3, #4]
 8001b54:	019a      	lsls	r2, r3, #6
 8001b56:	687b      	ldr	r3, [r7, #4]
 8001b58:	689b      	ldr	r3, [r3, #8]
 8001b5a:	071b      	lsls	r3, r3, #28
 8001b5c:	4955      	ldr	r1, [pc, #340]	; (8001cb4 <HAL_RCCEx_PeriphCLKConfig+0x1b8>)
 8001b5e:	4313      	orrs	r3, r2
 8001b60:	f8c1 3084 	str.w	r3, [r1, #132]	; 0x84
#endif /* STM32F411xE */

    /* Enable the PLLI2S */
    __HAL_RCC_PLLI2S_ENABLE();
 8001b64:	4b52      	ldr	r3, [pc, #328]	; (8001cb0 <HAL_RCCEx_PeriphCLKConfig+0x1b4>)
 8001b66:	2201      	movs	r2, #1
 8001b68:	601a      	str	r2, [r3, #0]
    /* Get tick */
    tickstart = HAL_GetTick();
 8001b6a:	f7ff f89f 	bl	8000cac <HAL_GetTick>
 8001b6e:	6178      	str	r0, [r7, #20]
    /* Wait till PLLI2S is ready */
    while(__HAL_RCC_GET_FLAG(RCC_FLAG_PLLI2SRDY)  == RESET)
 8001b70:	e008      	b.n	8001b84 <HAL_RCCEx_PeriphCLKConfig+0x88>
    {
      if((HAL_GetTick() - tickstart ) > PLLI2S_TIMEOUT_VALUE)
 8001b72:	f7ff f89b 	bl	8000cac <HAL_GetTick>
 8001b76:	4602      	mov	r2, r0
 8001b78:	697b      	ldr	r3, [r7, #20]
 8001b7a:	1ad3      	subs	r3, r2, r3
 8001b7c:	2b02      	cmp	r3, #2
 8001b7e:	d901      	bls.n	8001b84 <HAL_RCCEx_PeriphCLKConfig+0x88>
      {
        /* return in case of Timeout detected */
        return HAL_TIMEOUT;
 8001b80:	2303      	movs	r3, #3
 8001b82:	e090      	b.n	8001ca6 <HAL_RCCEx_PeriphCLKConfig+0x1aa>
    while(__HAL_RCC_GET_FLAG(RCC_FLAG_PLLI2SRDY)  == RESET)
 8001b84:	4b4b      	ldr	r3, [pc, #300]	; (8001cb4 <HAL_RCCEx_PeriphCLKConfig+0x1b8>)
 8001b86:	681b      	ldr	r3, [r3, #0]
 8001b88:	f003 6300 	and.w	r3, r3, #134217728	; 0x8000000
 8001b8c:	2b00      	cmp	r3, #0
 8001b8e:	d0f0      	beq.n	8001b72 <HAL_RCCEx_PeriphCLKConfig+0x76>
      }
    }
  }

  /*---------------------------- RTC configuration ---------------------------*/
  if(((PeriphClkInit->PeriphClockSelection) & RCC_PERIPHCLK_RTC) == (RCC_PERIPHCLK_RTC))
 8001b90:	687b      	ldr	r3, [r7, #4]
 8001b92:	681b      	ldr	r3, [r3, #0]
 8001b94:	f003 0302 	and.w	r3, r3, #2
 8001b98:	2b00      	cmp	r3, #0
 8001b9a:	f000 8083 	beq.w	8001ca4 <HAL_RCCEx_PeriphCLKConfig+0x1a8>
  {
    /* Check for RTC Parameters used to output RTCCLK */
    assert_param(IS_RCC_RTCCLKSOURCE(PeriphClkInit->RTCClockSelection));

    /* Enable Power Clock*/
    __HAL_RCC_PWR_CLK_ENABLE();
 8001b9e:	2300      	movs	r3, #0
 8001ba0:	60fb      	str	r3, [r7, #12]
 8001ba2:	4b44      	ldr	r3, [pc, #272]	; (8001cb4 <HAL_RCCEx_PeriphCLKConfig+0x1b8>)
 8001ba4:	6c1b      	ldr	r3, [r3, #64]	; 0x40
 8001ba6:	4a43      	ldr	r2, [pc, #268]	; (8001cb4 <HAL_RCCEx_PeriphCLKConfig+0x1b8>)
 8001ba8:	f043 5380 	orr.w	r3, r3, #268435456	; 0x10000000
 8001bac:	6413      	str	r3, [r2, #64]	; 0x40
 8001bae:	4b41      	ldr	r3, [pc, #260]	; (8001cb4 <HAL_RCCEx_PeriphCLKConfig+0x1b8>)
 8001bb0:	6c1b      	ldr	r3, [r3, #64]	; 0x40
 8001bb2:	f003 5380 	and.w	r3, r3, #268435456	; 0x10000000
 8001bb6:	60fb      	str	r3, [r7, #12]
 8001bb8:	68fb      	ldr	r3, [r7, #12]

    /* Enable write access to Backup domain */
    PWR->CR |= PWR_CR_DBP;
 8001bba:	4b3f      	ldr	r3, [pc, #252]	; (8001cb8 <HAL_RCCEx_PeriphCLKConfig+0x1bc>)
 8001bbc:	681b      	ldr	r3, [r3, #0]
 8001bbe:	4a3e      	ldr	r2, [pc, #248]	; (8001cb8 <HAL_RCCEx_PeriphCLKConfig+0x1bc>)
 8001bc0:	f443 7380 	orr.w	r3, r3, #256	; 0x100
 8001bc4:	6013      	str	r3, [r2, #0]

    /* Get tick */
    tickstart = HAL_GetTick();
 8001bc6:	f7ff f871 	bl	8000cac <HAL_GetTick>
 8001bca:	6178      	str	r0, [r7, #20]

    while((PWR->CR & PWR_CR_DBP) == RESET)
 8001bcc:	e008      	b.n	8001be0 <HAL_RCCEx_PeriphCLKConfig+0xe4>
    {
      if((HAL_GetTick() - tickstart ) > RCC_DBP_TIMEOUT_VALUE)
 8001bce:	f7ff f86d 	bl	8000cac <HAL_GetTick>
 8001bd2:	4602      	mov	r2, r0
 8001bd4:	697b      	ldr	r3, [r7, #20]
 8001bd6:	1ad3      	subs	r3, r2, r3
 8001bd8:	2b02      	cmp	r3, #2
 8001bda:	d901      	bls.n	8001be0 <HAL_RCCEx_PeriphCLKConfig+0xe4>
      {
        return HAL_TIMEOUT;
 8001bdc:	2303      	movs	r3, #3
 8001bde:	e062      	b.n	8001ca6 <HAL_RCCEx_PeriphCLKConfig+0x1aa>
    while((PWR->CR & PWR_CR_DBP) == RESET)
 8001be0:	4b35      	ldr	r3, [pc, #212]	; (8001cb8 <HAL_RCCEx_PeriphCLKConfig+0x1bc>)
 8001be2:	681b      	ldr	r3, [r3, #0]
 8001be4:	f403 7380 	and.w	r3, r3, #256	; 0x100
 8001be8:	2b00      	cmp	r3, #0
 8001bea:	d0f0      	beq.n	8001bce <HAL_RCCEx_PeriphCLKConfig+0xd2>
      }
    }
    /* Reset the Backup domain only if the RTC Clock source selection is modified from reset value */
    tmpreg1 = (RCC->BDCR & RCC_BDCR_RTCSEL);
 8001bec:	4b31      	ldr	r3, [pc, #196]	; (8001cb4 <HAL_RCCEx_PeriphCLKConfig+0x1b8>)
 8001bee:	6f1b      	ldr	r3, [r3, #112]	; 0x70
 8001bf0:	f403 7340 	and.w	r3, r3, #768	; 0x300
 8001bf4:	613b      	str	r3, [r7, #16]
    if((tmpreg1 != 0x00000000U) && ((tmpreg1) != (PeriphClkInit->RTCClockSelection & RCC_BDCR_RTCSEL)))
 8001bf6:	693b      	ldr	r3, [r7, #16]
 8001bf8:	2b00      	cmp	r3, #0
 8001bfa:	d02f      	beq.n	8001c5c <HAL_RCCEx_PeriphCLKConfig+0x160>
 8001bfc:	687b      	ldr	r3, [r7, #4]
 8001bfe:	68db      	ldr	r3, [r3, #12]
 8001c00:	f403 7340 	and.w	r3, r3, #768	; 0x300
 8001c04:	693a      	ldr	r2, [r7, #16]
 8001c06:	429a      	cmp	r2, r3
 8001c08:	d028      	beq.n	8001c5c <HAL_RCCEx_PeriphCLKConfig+0x160>
    {
      /* Store the content of BDCR register before the reset of Backup Domain */
      tmpreg1 = (RCC->BDCR & ~(RCC_BDCR_RTCSEL));
 8001c0a:	4b2a      	ldr	r3, [pc, #168]	; (8001cb4 <HAL_RCCEx_PeriphCLKConfig+0x1b8>)
 8001c0c:	6f1b      	ldr	r3, [r3, #112]	; 0x70
 8001c0e:	f423 7340 	bic.w	r3, r3, #768	; 0x300
 8001c12:	613b      	str	r3, [r7, #16]
      /* RTC Clock selection can be changed only if the Backup Domain is reset */
      __HAL_RCC_BACKUPRESET_FORCE();
 8001c14:	4b29      	ldr	r3, [pc, #164]	; (8001cbc <HAL_RCCEx_PeriphCLKConfig+0x1c0>)
 8001c16:	2201      	movs	r2, #1
 8001c18:	601a      	str	r2, [r3, #0]
      __HAL_RCC_BACKUPRESET_RELEASE();
 8001c1a:	4b28      	ldr	r3, [pc, #160]	; (8001cbc <HAL_RCCEx_PeriphCLKConfig+0x1c0>)
 8001c1c:	2200      	movs	r2, #0
 8001c1e:	601a      	str	r2, [r3, #0]
      /* Restore the Content of BDCR register */
      RCC->BDCR = tmpreg1;
 8001c20:	4a24      	ldr	r2, [pc, #144]	; (8001cb4 <HAL_RCCEx_PeriphCLKConfig+0x1b8>)
 8001c22:	693b      	ldr	r3, [r7, #16]
 8001c24:	6713      	str	r3, [r2, #112]	; 0x70

      /* Wait for LSE reactivation if LSE was enable prior to Backup Domain reset */
      if(HAL_IS_BIT_SET(RCC->BDCR, RCC_BDCR_LSEON))
 8001c26:	4b23      	ldr	r3, [pc, #140]	; (8001cb4 <HAL_RCCEx_PeriphCLKConfig+0x1b8>)
 8001c28:	6f1b      	ldr	r3, [r3, #112]	; 0x70
 8001c2a:	f003 0301 	and.w	r3, r3, #1
 8001c2e:	2b01      	cmp	r3, #1
 8001c30:	d114      	bne.n	8001c5c <HAL_RCCEx_PeriphCLKConfig+0x160>
      {
        /* Get tick */
        tickstart = HAL_GetTick();
 8001c32:	f7ff f83b 	bl	8000cac <HAL_GetTick>
 8001c36:	6178      	str	r0, [r7, #20]

        /* Wait till LSE is ready */
        while(__HAL_RCC_GET_FLAG(RCC_FLAG_LSERDY) == RESET)
 8001c38:	e00a      	b.n	8001c50 <HAL_RCCEx_PeriphCLKConfig+0x154>
        {
          if((HAL_GetTick() - tickstart ) > RCC_LSE_TIMEOUT_VALUE)
 8001c3a:	f7ff f837 	bl	8000cac <HAL_GetTick>
 8001c3e:	4602      	mov	r2, r0
 8001c40:	697b      	ldr	r3, [r7, #20]
 8001c42:	1ad3      	subs	r3, r2, r3
 8001c44:	f241 3288 	movw	r2, #5000	; 0x1388
 8001c48:	4293      	cmp	r3, r2
 8001c4a:	d901      	bls.n	8001c50 <HAL_RCCEx_PeriphCLKConfig+0x154>
          {
            return HAL_TIMEOUT;
 8001c4c:	2303      	movs	r3, #3
 8001c4e:	e02a      	b.n	8001ca6 <HAL_RCCEx_PeriphCLKConfig+0x1aa>
        while(__HAL_RCC_GET_FLAG(RCC_FLAG_LSERDY) == RESET)
 8001c50:	4b18      	ldr	r3, [pc, #96]	; (8001cb4 <HAL_RCCEx_PeriphCLKConfig+0x1b8>)
 8001c52:	6f1b      	ldr	r3, [r3, #112]	; 0x70
 8001c54:	f003 0302 	and.w	r3, r3, #2
 8001c58:	2b00      	cmp	r3, #0
 8001c5a:	d0ee      	beq.n	8001c3a <HAL_RCCEx_PeriphCLKConfig+0x13e>
          }
        }
      }
    }
    __HAL_RCC_RTC_CONFIG(PeriphClkInit->RTCClockSelection);
 8001c5c:	687b      	ldr	r3, [r7, #4]
 8001c5e:	68db      	ldr	r3, [r3, #12]
 8001c60:	f403 7340 	and.w	r3, r3, #768	; 0x300
 8001c64:	f5b3 7f40 	cmp.w	r3, #768	; 0x300
 8001c68:	d10d      	bne.n	8001c86 <HAL_RCCEx_PeriphCLKConfig+0x18a>
 8001c6a:	4b12      	ldr	r3, [pc, #72]	; (8001cb4 <HAL_RCCEx_PeriphCLKConfig+0x1b8>)
 8001c6c:	689b      	ldr	r3, [r3, #8]
 8001c6e:	f423 12f8 	bic.w	r2, r3, #2031616	; 0x1f0000
 8001c72:	687b      	ldr	r3, [r7, #4]
 8001c74:	68db      	ldr	r3, [r3, #12]
 8001c76:	f023 4370 	bic.w	r3, r3, #4026531840	; 0xf0000000
 8001c7a:	f423 7340 	bic.w	r3, r3, #768	; 0x300
 8001c7e:	490d      	ldr	r1, [pc, #52]	; (8001cb4 <HAL_RCCEx_PeriphCLKConfig+0x1b8>)
 8001c80:	4313      	orrs	r3, r2
 8001c82:	608b      	str	r3, [r1, #8]
 8001c84:	e005      	b.n	8001c92 <HAL_RCCEx_PeriphCLKConfig+0x196>
 8001c86:	4b0b      	ldr	r3, [pc, #44]	; (8001cb4 <HAL_RCCEx_PeriphCLKConfig+0x1b8>)
 8001c88:	689b      	ldr	r3, [r3, #8]
 8001c8a:	4a0a      	ldr	r2, [pc, #40]	; (8001cb4 <HAL_RCCEx_PeriphCLKConfig+0x1b8>)
 8001c8c:	f423 13f8 	bic.w	r3, r3, #2031616	; 0x1f0000
 8001c90:	6093      	str	r3, [r2, #8]
 8001c92:	4b08      	ldr	r3, [pc, #32]	; (8001cb4 <HAL_RCCEx_PeriphCLKConfig+0x1b8>)
 8001c94:	6f1a      	ldr	r2, [r3, #112]	; 0x70
 8001c96:	687b      	ldr	r3, [r7, #4]
 8001c98:	68db      	ldr	r3, [r3, #12]
 8001c9a:	f3c3 030b 	ubfx	r3, r3, #0, #12
 8001c9e:	4905      	ldr	r1, [pc, #20]	; (8001cb4 <HAL_RCCEx_PeriphCLKConfig+0x1b8>)
 8001ca0:	4313      	orrs	r3, r2
 8001ca2:	670b      	str	r3, [r1, #112]	; 0x70
  if(((PeriphClkInit->PeriphClockSelection) & RCC_PERIPHCLK_TIM) == (RCC_PERIPHCLK_TIM))
  {
    __HAL_RCC_TIMCLKPRESCALER(PeriphClkInit->TIMPresSelection);
  }
#endif /* STM32F401xC || STM32F401xE || STM32F411xE */
  return HAL_OK;
 8001ca4:	2300      	movs	r3, #0
}
 8001ca6:	4618      	mov	r0, r3
 8001ca8:	3718      	adds	r7, #24
 8001caa:	46bd      	mov	sp, r7
 8001cac:	bd80      	pop	{r7, pc}
 8001cae:	bf00      	nop
 8001cb0:	42470068 	.word	0x42470068
 8001cb4:	40023800 	.word	0x40023800
 8001cb8:	40007000 	.word	0x40007000
 8001cbc:	42470e40 	.word	0x42470e40

08001cc0 <HAL_RTC_Init>:
  * @param  hrtc pointer to a RTC_HandleTypeDef structure that contains
  *                the configuration information for RTC.
  * @retval HAL status
  */
HAL_StatusTypeDef HAL_RTC_Init(RTC_HandleTypeDef *hrtc)
{
 8001cc0:	b580      	push	{r7, lr}
 8001cc2:	b082      	sub	sp, #8
 8001cc4:	af00      	add	r7, sp, #0
 8001cc6:	6078      	str	r0, [r7, #4]
  /* Check the RTC peripheral state */
  if(hrtc == NULL)
 8001cc8:	687b      	ldr	r3, [r7, #4]
 8001cca:	2b00      	cmp	r3, #0
 8001ccc:	d101      	bne.n	8001cd2 <HAL_RTC_Init+0x12>
  {
     return HAL_ERROR;
 8001cce:	2301      	movs	r3, #1
 8001cd0:	e083      	b.n	8001dda <HAL_RTC_Init+0x11a>
    {
      hrtc->MspDeInitCallback = HAL_RTC_MspDeInit;
    }
  }
#else
  if(hrtc->State == HAL_RTC_STATE_RESET)
 8001cd2:	687b      	ldr	r3, [r7, #4]
 8001cd4:	7f5b      	ldrb	r3, [r3, #29]
 8001cd6:	b2db      	uxtb	r3, r3
 8001cd8:	2b00      	cmp	r3, #0
 8001cda:	d105      	bne.n	8001ce8 <HAL_RTC_Init+0x28>
  {
    /* Allocate lock resource and initialize it */
    hrtc->Lock = HAL_UNLOCKED;
 8001cdc:	687b      	ldr	r3, [r7, #4]
 8001cde:	2200      	movs	r2, #0
 8001ce0:	771a      	strb	r2, [r3, #28]

    /* Initialize RTC MSP */
    HAL_RTC_MspInit(hrtc);
 8001ce2:	6878      	ldr	r0, [r7, #4]
 8001ce4:	f7fe fe60 	bl	80009a8 <HAL_RTC_MspInit>
  }
#endif /* (USE_HAL_RTC_REGISTER_CALLBACKS) */

  /* Set RTC state */
  hrtc->State = HAL_RTC_STATE_BUSY;
 8001ce8:	687b      	ldr	r3, [r7, #4]
 8001cea:	2202      	movs	r2, #2
 8001cec:	775a      	strb	r2, [r3, #29]

  /* Disable the write protection for RTC registers */
  __HAL_RTC_WRITEPROTECTION_DISABLE(hrtc);
 8001cee:	687b      	ldr	r3, [r7, #4]
 8001cf0:	681b      	ldr	r3, [r3, #0]
 8001cf2:	22ca      	movs	r2, #202	; 0xca
 8001cf4:	625a      	str	r2, [r3, #36]	; 0x24
 8001cf6:	687b      	ldr	r3, [r7, #4]
 8001cf8:	681b      	ldr	r3, [r3, #0]
 8001cfa:	2253      	movs	r2, #83	; 0x53
 8001cfc:	625a      	str	r2, [r3, #36]	; 0x24

  /* Set Initialization mode */
  if(RTC_EnterInitMode(hrtc) != HAL_OK)
 8001cfe:	6878      	ldr	r0, [r7, #4]
 8001d00:	f000 faa8 	bl	8002254 <RTC_EnterInitMode>
 8001d04:	4603      	mov	r3, r0
 8001d06:	2b00      	cmp	r3, #0
 8001d08:	d008      	beq.n	8001d1c <HAL_RTC_Init+0x5c>
  {
    /* Enable the write protection for RTC registers */
    __HAL_RTC_WRITEPROTECTION_ENABLE(hrtc);
 8001d0a:	687b      	ldr	r3, [r7, #4]
 8001d0c:	681b      	ldr	r3, [r3, #0]
 8001d0e:	22ff      	movs	r2, #255	; 0xff
 8001d10:	625a      	str	r2, [r3, #36]	; 0x24

    /* Set RTC state */
    hrtc->State = HAL_RTC_STATE_ERROR;
 8001d12:	687b      	ldr	r3, [r7, #4]
 8001d14:	2204      	movs	r2, #4
 8001d16:	775a      	strb	r2, [r3, #29]

    return HAL_ERROR;
 8001d18:	2301      	movs	r3, #1
 8001d1a:	e05e      	b.n	8001dda <HAL_RTC_Init+0x11a>
  }
  else
  {
    /* Clear RTC_CR FMT, OSEL and POL Bits */
    hrtc->Instance->CR &= ((uint32_t)~(RTC_CR_FMT | RTC_CR_OSEL | RTC_CR_POL));
 8001d1c:	687b      	ldr	r3, [r7, #4]
 8001d1e:	681b      	ldr	r3, [r3, #0]
 8001d20:	689b      	ldr	r3, [r3, #8]
 8001d22:	687a      	ldr	r2, [r7, #4]
 8001d24:	6812      	ldr	r2, [r2, #0]
 8001d26:	f423 03e0 	bic.w	r3, r3, #7340032	; 0x700000
 8001d2a:	f023 0340 	bic.w	r3, r3, #64	; 0x40
 8001d2e:	6093      	str	r3, [r2, #8]
    /* Set RTC_CR register */
    hrtc->Instance->CR |= (uint32_t)(hrtc->Init.HourFormat | hrtc->Init.OutPut | hrtc->Init.OutPutPolarity);
 8001d30:	687b      	ldr	r3, [r7, #4]
 8001d32:	681b      	ldr	r3, [r3, #0]
 8001d34:	6899      	ldr	r1, [r3, #8]
 8001d36:	687b      	ldr	r3, [r7, #4]
 8001d38:	685a      	ldr	r2, [r3, #4]
 8001d3a:	687b      	ldr	r3, [r7, #4]
 8001d3c:	691b      	ldr	r3, [r3, #16]
 8001d3e:	431a      	orrs	r2, r3
 8001d40:	687b      	ldr	r3, [r7, #4]
 8001d42:	695b      	ldr	r3, [r3, #20]
 8001d44:	431a      	orrs	r2, r3
 8001d46:	687b      	ldr	r3, [r7, #4]
 8001d48:	681b      	ldr	r3, [r3, #0]
 8001d4a:	430a      	orrs	r2, r1
 8001d4c:	609a      	str	r2, [r3, #8]

    /* Configure the RTC PRER */
    hrtc->Instance->PRER = (uint32_t)(hrtc->Init.SynchPrediv);
 8001d4e:	687b      	ldr	r3, [r7, #4]
 8001d50:	681b      	ldr	r3, [r3, #0]
 8001d52:	687a      	ldr	r2, [r7, #4]
 8001d54:	68d2      	ldr	r2, [r2, #12]
 8001d56:	611a      	str	r2, [r3, #16]
    hrtc->Instance->PRER |= (uint32_t)(hrtc->Init.AsynchPrediv << 16U);
 8001d58:	687b      	ldr	r3, [r7, #4]
 8001d5a:	681b      	ldr	r3, [r3, #0]
 8001d5c:	6919      	ldr	r1, [r3, #16]
 8001d5e:	687b      	ldr	r3, [r7, #4]
 8001d60:	689b      	ldr	r3, [r3, #8]
 8001d62:	041a      	lsls	r2, r3, #16
 8001d64:	687b      	ldr	r3, [r7, #4]
 8001d66:	681b      	ldr	r3, [r3, #0]
 8001d68:	430a      	orrs	r2, r1
 8001d6a:	611a      	str	r2, [r3, #16]

    /* Exit Initialization mode */
    hrtc->Instance->ISR &= (uint32_t)~RTC_ISR_INIT;
 8001d6c:	687b      	ldr	r3, [r7, #4]
 8001d6e:	681b      	ldr	r3, [r3, #0]
 8001d70:	68da      	ldr	r2, [r3, #12]
 8001d72:	687b      	ldr	r3, [r7, #4]
 8001d74:	681b      	ldr	r3, [r3, #0]
 8001d76:	f022 0280 	bic.w	r2, r2, #128	; 0x80
 8001d7a:	60da      	str	r2, [r3, #12]

    /* If  CR_BYPSHAD bit = 0, wait for synchro else this check is not needed */
    if((hrtc->Instance->CR & RTC_CR_BYPSHAD) == RESET)
 8001d7c:	687b      	ldr	r3, [r7, #4]
 8001d7e:	681b      	ldr	r3, [r3, #0]
 8001d80:	689b      	ldr	r3, [r3, #8]
 8001d82:	f003 0320 	and.w	r3, r3, #32
 8001d86:	2b00      	cmp	r3, #0
 8001d88:	d10e      	bne.n	8001da8 <HAL_RTC_Init+0xe8>
    {
      if(HAL_RTC_WaitForSynchro(hrtc) != HAL_OK)
 8001d8a:	6878      	ldr	r0, [r7, #4]
 8001d8c:	f000 fa3a 	bl	8002204 <HAL_RTC_WaitForSynchro>
 8001d90:	4603      	mov	r3, r0
 8001d92:	2b00      	cmp	r3, #0
 8001d94:	d008      	beq.n	8001da8 <HAL_RTC_Init+0xe8>
      {
        /* Enable the write protection for RTC registers */
        __HAL_RTC_WRITEPROTECTION_ENABLE(hrtc);
 8001d96:	687b      	ldr	r3, [r7, #4]
 8001d98:	681b      	ldr	r3, [r3, #0]
 8001d9a:	22ff      	movs	r2, #255	; 0xff
 8001d9c:	625a      	str	r2, [r3, #36]	; 0x24

        hrtc->State = HAL_RTC_STATE_ERROR;
 8001d9e:	687b      	ldr	r3, [r7, #4]
 8001da0:	2204      	movs	r2, #4
 8001da2:	775a      	strb	r2, [r3, #29]

        return HAL_ERROR;
 8001da4:	2301      	movs	r3, #1
 8001da6:	e018      	b.n	8001dda <HAL_RTC_Init+0x11a>
      }
    }

    hrtc->Instance->TAFCR &= (uint32_t)~RTC_TAFCR_ALARMOUTTYPE;
 8001da8:	687b      	ldr	r3, [r7, #4]
 8001daa:	681b      	ldr	r3, [r3, #0]
 8001dac:	6c1a      	ldr	r2, [r3, #64]	; 0x40
 8001dae:	687b      	ldr	r3, [r7, #4]
 8001db0:	681b      	ldr	r3, [r3, #0]
 8001db2:	f422 2280 	bic.w	r2, r2, #262144	; 0x40000
 8001db6:	641a      	str	r2, [r3, #64]	; 0x40
    hrtc->Instance->TAFCR |= (uint32_t)(hrtc->Init.OutPutType);
 8001db8:	687b      	ldr	r3, [r7, #4]
 8001dba:	681b      	ldr	r3, [r3, #0]
 8001dbc:	6c19      	ldr	r1, [r3, #64]	; 0x40
 8001dbe:	687b      	ldr	r3, [r7, #4]
 8001dc0:	699a      	ldr	r2, [r3, #24]
 8001dc2:	687b      	ldr	r3, [r7, #4]
 8001dc4:	681b      	ldr	r3, [r3, #0]
 8001dc6:	430a      	orrs	r2, r1
 8001dc8:	641a      	str	r2, [r3, #64]	; 0x40

    /* Enable the write protection for RTC registers */
    __HAL_RTC_WRITEPROTECTION_ENABLE(hrtc);
 8001dca:	687b      	ldr	r3, [r7, #4]
 8001dcc:	681b      	ldr	r3, [r3, #0]
 8001dce:	22ff      	movs	r2, #255	; 0xff
 8001dd0:	625a      	str	r2, [r3, #36]	; 0x24

    /* Set RTC state */
    hrtc->State = HAL_RTC_STATE_READY;
 8001dd2:	687b      	ldr	r3, [r7, #4]
 8001dd4:	2201      	movs	r2, #1
 8001dd6:	775a      	strb	r2, [r3, #29]

    return HAL_OK;
 8001dd8:	2300      	movs	r3, #0
  }
}
 8001dda:	4618      	mov	r0, r3
 8001ddc:	3708      	adds	r7, #8
 8001dde:	46bd      	mov	sp, r7
 8001de0:	bd80      	pop	{r7, pc}

08001de2 <HAL_RTC_SetTime>:
  *            @arg RTC_FORMAT_BIN: Binary data format
  *            @arg RTC_FORMAT_BCD: BCD data format
  * @retval HAL status
  */
HAL_StatusTypeDef HAL_RTC_SetTime(RTC_HandleTypeDef *hrtc, RTC_TimeTypeDef *sTime, uint32_t Format)
{
 8001de2:	b590      	push	{r4, r7, lr}
 8001de4:	b087      	sub	sp, #28
 8001de6:	af00      	add	r7, sp, #0
 8001de8:	60f8      	str	r0, [r7, #12]
 8001dea:	60b9      	str	r1, [r7, #8]
 8001dec:	607a      	str	r2, [r7, #4]
  uint32_t tmpreg = 0U;
 8001dee:	2300      	movs	r3, #0
 8001df0:	617b      	str	r3, [r7, #20]
  assert_param(IS_RTC_FORMAT(Format));
  assert_param(IS_RTC_DAYLIGHT_SAVING(sTime->DayLightSaving));
  assert_param(IS_RTC_STORE_OPERATION(sTime->StoreOperation));

  /* Process Locked */
  __HAL_LOCK(hrtc);
 8001df2:	68fb      	ldr	r3, [r7, #12]
 8001df4:	7f1b      	ldrb	r3, [r3, #28]
 8001df6:	2b01      	cmp	r3, #1
 8001df8:	d101      	bne.n	8001dfe <HAL_RTC_SetTime+0x1c>
 8001dfa:	2302      	movs	r3, #2
 8001dfc:	e0aa      	b.n	8001f54 <HAL_RTC_SetTime+0x172>
 8001dfe:	68fb      	ldr	r3, [r7, #12]
 8001e00:	2201      	movs	r2, #1
 8001e02:	771a      	strb	r2, [r3, #28]

  hrtc->State = HAL_RTC_STATE_BUSY;
 8001e04:	68fb      	ldr	r3, [r7, #12]
 8001e06:	2202      	movs	r2, #2
 8001e08:	775a      	strb	r2, [r3, #29]

  if(Format == RTC_FORMAT_BIN)
 8001e0a:	687b      	ldr	r3, [r7, #4]
 8001e0c:	2b00      	cmp	r3, #0
 8001e0e:	d126      	bne.n	8001e5e <HAL_RTC_SetTime+0x7c>
  {
    if((hrtc->Instance->CR & RTC_CR_FMT) != (uint32_t)RESET)
 8001e10:	68fb      	ldr	r3, [r7, #12]
 8001e12:	681b      	ldr	r3, [r3, #0]
 8001e14:	689b      	ldr	r3, [r3, #8]
 8001e16:	f003 0340 	and.w	r3, r3, #64	; 0x40
 8001e1a:	2b00      	cmp	r3, #0
 8001e1c:	d102      	bne.n	8001e24 <HAL_RTC_SetTime+0x42>
      assert_param(IS_RTC_HOUR12(sTime->Hours));
      assert_param(IS_RTC_HOURFORMAT12(sTime->TimeFormat));
    }
    else
    {
      sTime->TimeFormat = 0x00U;
 8001e1e:	68bb      	ldr	r3, [r7, #8]
 8001e20:	2200      	movs	r2, #0
 8001e22:	70da      	strb	r2, [r3, #3]
      assert_param(IS_RTC_HOUR24(sTime->Hours));
    }
    assert_param(IS_RTC_MINUTES(sTime->Minutes));
    assert_param(IS_RTC_SECONDS(sTime->Seconds));

    tmpreg = (uint32_t)(((uint32_t)RTC_ByteToBcd2(sTime->Hours) << 16U) | \
 8001e24:	68bb      	ldr	r3, [r7, #8]
 8001e26:	781b      	ldrb	r3, [r3, #0]
 8001e28:	4618      	mov	r0, r3
 8001e2a:	f000 fa3f 	bl	80022ac <RTC_ByteToBcd2>
 8001e2e:	4603      	mov	r3, r0
 8001e30:	041c      	lsls	r4, r3, #16
                        ((uint32_t)RTC_ByteToBcd2(sTime->Minutes) << 8U) | \
 8001e32:	68bb      	ldr	r3, [r7, #8]
 8001e34:	785b      	ldrb	r3, [r3, #1]
 8001e36:	4618      	mov	r0, r3
 8001e38:	f000 fa38 	bl	80022ac <RTC_ByteToBcd2>
 8001e3c:	4603      	mov	r3, r0
 8001e3e:	021b      	lsls	r3, r3, #8
    tmpreg = (uint32_t)(((uint32_t)RTC_ByteToBcd2(sTime->Hours) << 16U) | \
 8001e40:	431c      	orrs	r4, r3
                        ((uint32_t)RTC_ByteToBcd2(sTime->Seconds)) | \
 8001e42:	68bb      	ldr	r3, [r7, #8]
 8001e44:	789b      	ldrb	r3, [r3, #2]
 8001e46:	4618      	mov	r0, r3
 8001e48:	f000 fa30 	bl	80022ac <RTC_ByteToBcd2>
 8001e4c:	4603      	mov	r3, r0
                        ((uint32_t)RTC_ByteToBcd2(sTime->Minutes) << 8U) | \
 8001e4e:	ea44 0203 	orr.w	r2, r4, r3
                        (((uint32_t)sTime->TimeFormat) << 16U));
 8001e52:	68bb      	ldr	r3, [r7, #8]
 8001e54:	78db      	ldrb	r3, [r3, #3]
 8001e56:	041b      	lsls	r3, r3, #16
    tmpreg = (uint32_t)(((uint32_t)RTC_ByteToBcd2(sTime->Hours) << 16U) | \
 8001e58:	4313      	orrs	r3, r2
 8001e5a:	617b      	str	r3, [r7, #20]
 8001e5c:	e018      	b.n	8001e90 <HAL_RTC_SetTime+0xae>
  }
  else
  {
    if((hrtc->Instance->CR & RTC_CR_FMT) != (uint32_t)RESET)
 8001e5e:	68fb      	ldr	r3, [r7, #12]
 8001e60:	681b      	ldr	r3, [r3, #0]
 8001e62:	689b      	ldr	r3, [r3, #8]
 8001e64:	f003 0340 	and.w	r3, r3, #64	; 0x40
 8001e68:	2b00      	cmp	r3, #0
 8001e6a:	d102      	bne.n	8001e72 <HAL_RTC_SetTime+0x90>
      assert_param(IS_RTC_HOUR12(RTC_Bcd2ToByte(sTime->Hours)));
      assert_param(IS_RTC_HOURFORMAT12(sTime->TimeFormat));
    }
    else
    {
      sTime->TimeFormat = 0x00U;
 8001e6c:	68bb      	ldr	r3, [r7, #8]
 8001e6e:	2200      	movs	r2, #0
 8001e70:	70da      	strb	r2, [r3, #3]
      assert_param(IS_RTC_HOUR24(RTC_Bcd2ToByte(sTime->Hours)));
    }
    assert_param(IS_RTC_MINUTES(RTC_Bcd2ToByte(sTime->Minutes)));
    assert_param(IS_RTC_SECONDS(RTC_Bcd2ToByte(sTime->Seconds)));
    tmpreg = (((uint32_t)(sTime->Hours) << 16U) | \
 8001e72:	68bb      	ldr	r3, [r7, #8]
 8001e74:	781b      	ldrb	r3, [r3, #0]
 8001e76:	041a      	lsls	r2, r3, #16
              ((uint32_t)(sTime->Minutes) << 8U) | \
 8001e78:	68bb      	ldr	r3, [r7, #8]
 8001e7a:	785b      	ldrb	r3, [r3, #1]
 8001e7c:	021b      	lsls	r3, r3, #8
    tmpreg = (((uint32_t)(sTime->Hours) << 16U) | \
 8001e7e:	4313      	orrs	r3, r2
              ((uint32_t)sTime->Seconds) | \
 8001e80:	68ba      	ldr	r2, [r7, #8]
 8001e82:	7892      	ldrb	r2, [r2, #2]
              ((uint32_t)(sTime->Minutes) << 8U) | \
 8001e84:	431a      	orrs	r2, r3
              ((uint32_t)(sTime->TimeFormat) << 16U));
 8001e86:	68bb      	ldr	r3, [r7, #8]
 8001e88:	78db      	ldrb	r3, [r3, #3]
 8001e8a:	041b      	lsls	r3, r3, #16
    tmpreg = (((uint32_t)(sTime->Hours) << 16U) | \
 8001e8c:	4313      	orrs	r3, r2
 8001e8e:	617b      	str	r3, [r7, #20]
  }

  /* Disable the write protection for RTC registers */
  __HAL_RTC_WRITEPROTECTION_DISABLE(hrtc);
 8001e90:	68fb      	ldr	r3, [r7, #12]
 8001e92:	681b      	ldr	r3, [r3, #0]
 8001e94:	22ca      	movs	r2, #202	; 0xca
 8001e96:	625a      	str	r2, [r3, #36]	; 0x24
 8001e98:	68fb      	ldr	r3, [r7, #12]
 8001e9a:	681b      	ldr	r3, [r3, #0]
 8001e9c:	2253      	movs	r2, #83	; 0x53
 8001e9e:	625a      	str	r2, [r3, #36]	; 0x24

  /* Set Initialization mode */
  if(RTC_EnterInitMode(hrtc) != HAL_OK)
 8001ea0:	68f8      	ldr	r0, [r7, #12]
 8001ea2:	f000 f9d7 	bl	8002254 <RTC_EnterInitMode>
 8001ea6:	4603      	mov	r3, r0
 8001ea8:	2b00      	cmp	r3, #0
 8001eaa:	d00b      	beq.n	8001ec4 <HAL_RTC_SetTime+0xe2>
  {
    /* Enable the write protection for RTC registers */
    __HAL_RTC_WRITEPROTECTION_ENABLE(hrtc);
 8001eac:	68fb      	ldr	r3, [r7, #12]
 8001eae:	681b      	ldr	r3, [r3, #0]
 8001eb0:	22ff      	movs	r2, #255	; 0xff
 8001eb2:	625a      	str	r2, [r3, #36]	; 0x24

    /* Set RTC state */
    hrtc->State = HAL_RTC_STATE_ERROR;
 8001eb4:	68fb      	ldr	r3, [r7, #12]
 8001eb6:	2204      	movs	r2, #4
 8001eb8:	775a      	strb	r2, [r3, #29]

    /* Process Unlocked */
    __HAL_UNLOCK(hrtc);
 8001eba:	68fb      	ldr	r3, [r7, #12]
 8001ebc:	2200      	movs	r2, #0
 8001ebe:	771a      	strb	r2, [r3, #28]

    return HAL_ERROR;
 8001ec0:	2301      	movs	r3, #1
 8001ec2:	e047      	b.n	8001f54 <HAL_RTC_SetTime+0x172>
  }
  else
  {
    /* Set the RTC_TR register */
    hrtc->Instance->TR = (uint32_t)(tmpreg & RTC_TR_RESERVED_MASK);
 8001ec4:	68fb      	ldr	r3, [r7, #12]
 8001ec6:	681a      	ldr	r2, [r3, #0]
 8001ec8:	697b      	ldr	r3, [r7, #20]
 8001eca:	f003 337f 	and.w	r3, r3, #2139062143	; 0x7f7f7f7f
 8001ece:	f023 43fe 	bic.w	r3, r3, #2130706432	; 0x7f000000
 8001ed2:	6013      	str	r3, [r2, #0]

    /* Clear the bits to be configured */
    hrtc->Instance->CR &= (uint32_t)~RTC_CR_BCK;
 8001ed4:	68fb      	ldr	r3, [r7, #12]
 8001ed6:	681b      	ldr	r3, [r3, #0]
 8001ed8:	689a      	ldr	r2, [r3, #8]
 8001eda:	68fb      	ldr	r3, [r7, #12]
 8001edc:	681b      	ldr	r3, [r3, #0]
 8001ede:	f422 2280 	bic.w	r2, r2, #262144	; 0x40000
 8001ee2:	609a      	str	r2, [r3, #8]

    /* Configure the RTC_CR register */
    hrtc->Instance->CR |= (uint32_t)(sTime->DayLightSaving | sTime->StoreOperation);
 8001ee4:	68fb      	ldr	r3, [r7, #12]
 8001ee6:	681b      	ldr	r3, [r3, #0]
 8001ee8:	6899      	ldr	r1, [r3, #8]
 8001eea:	68bb      	ldr	r3, [r7, #8]
 8001eec:	68da      	ldr	r2, [r3, #12]
 8001eee:	68bb      	ldr	r3, [r7, #8]
 8001ef0:	691b      	ldr	r3, [r3, #16]
 8001ef2:	431a      	orrs	r2, r3
 8001ef4:	68fb      	ldr	r3, [r7, #12]
 8001ef6:	681b      	ldr	r3, [r3, #0]
 8001ef8:	430a      	orrs	r2, r1
 8001efa:	609a      	str	r2, [r3, #8]

    /* Exit Initialization mode */
    hrtc->Instance->ISR &= (uint32_t)~RTC_ISR_INIT;
 8001efc:	68fb      	ldr	r3, [r7, #12]
 8001efe:	681b      	ldr	r3, [r3, #0]
 8001f00:	68da      	ldr	r2, [r3, #12]
 8001f02:	68fb      	ldr	r3, [r7, #12]
 8001f04:	681b      	ldr	r3, [r3, #0]
 8001f06:	f022 0280 	bic.w	r2, r2, #128	; 0x80
 8001f0a:	60da      	str	r2, [r3, #12]

    /* If  CR_BYPSHAD bit = 0, wait for synchro else this check is not needed */
    if((hrtc->Instance->CR & RTC_CR_BYPSHAD) == RESET)
 8001f0c:	68fb      	ldr	r3, [r7, #12]
 8001f0e:	681b      	ldr	r3, [r3, #0]
 8001f10:	689b      	ldr	r3, [r3, #8]
 8001f12:	f003 0320 	and.w	r3, r3, #32
 8001f16:	2b00      	cmp	r3, #0
 8001f18:	d111      	bne.n	8001f3e <HAL_RTC_SetTime+0x15c>
    {
      if(HAL_RTC_WaitForSynchro(hrtc) != HAL_OK)
 8001f1a:	68f8      	ldr	r0, [r7, #12]
 8001f1c:	f000 f972 	bl	8002204 <HAL_RTC_WaitForSynchro>
 8001f20:	4603      	mov	r3, r0
 8001f22:	2b00      	cmp	r3, #0
 8001f24:	d00b      	beq.n	8001f3e <HAL_RTC_SetTime+0x15c>
      {
        /* Enable the write protection for RTC registers */
        __HAL_RTC_WRITEPROTECTION_ENABLE(hrtc);
 8001f26:	68fb      	ldr	r3, [r7, #12]
 8001f28:	681b      	ldr	r3, [r3, #0]
 8001f2a:	22ff      	movs	r2, #255	; 0xff
 8001f2c:	625a      	str	r2, [r3, #36]	; 0x24

        hrtc->State = HAL_RTC_STATE_ERROR;
 8001f2e:	68fb      	ldr	r3, [r7, #12]
 8001f30:	2204      	movs	r2, #4
 8001f32:	775a      	strb	r2, [r3, #29]

        /* Process Unlocked */
        __HAL_UNLOCK(hrtc);
 8001f34:	68fb      	ldr	r3, [r7, #12]
 8001f36:	2200      	movs	r2, #0
 8001f38:	771a      	strb	r2, [r3, #28]

        return HAL_ERROR;
 8001f3a:	2301      	movs	r3, #1
 8001f3c:	e00a      	b.n	8001f54 <HAL_RTC_SetTime+0x172>
      }
    }

    /* Enable the write protection for RTC registers */
    __HAL_RTC_WRITEPROTECTION_ENABLE(hrtc);
 8001f3e:	68fb      	ldr	r3, [r7, #12]
 8001f40:	681b      	ldr	r3, [r3, #0]
 8001f42:	22ff      	movs	r2, #255	; 0xff
 8001f44:	625a      	str	r2, [r3, #36]	; 0x24

   hrtc->State = HAL_RTC_STATE_READY;
 8001f46:	68fb      	ldr	r3, [r7, #12]
 8001f48:	2201      	movs	r2, #1
 8001f4a:	775a      	strb	r2, [r3, #29]

   __HAL_UNLOCK(hrtc);
 8001f4c:	68fb      	ldr	r3, [r7, #12]
 8001f4e:	2200      	movs	r2, #0
 8001f50:	771a      	strb	r2, [r3, #28]

   return HAL_OK;
 8001f52:	2300      	movs	r3, #0
  }
}
 8001f54:	4618      	mov	r0, r3
 8001f56:	371c      	adds	r7, #28
 8001f58:	46bd      	mov	sp, r7
 8001f5a:	bd90      	pop	{r4, r7, pc}

08001f5c <HAL_RTC_GetTime>:
  *        in the higher-order calendar shadow registers to ensure consistency between the time and date values.
  *        Reading RTC current time locks the values in calendar shadow registers until current date is read.
  * @retval HAL status
  */
HAL_StatusTypeDef HAL_RTC_GetTime(RTC_HandleTypeDef *hrtc, RTC_TimeTypeDef *sTime, uint32_t Format)
{
 8001f5c:	b580      	push	{r7, lr}
 8001f5e:	b086      	sub	sp, #24
 8001f60:	af00      	add	r7, sp, #0
 8001f62:	60f8      	str	r0, [r7, #12]
 8001f64:	60b9      	str	r1, [r7, #8]
 8001f66:	607a      	str	r2, [r7, #4]
  uint32_t tmpreg = 0U;
 8001f68:	2300      	movs	r3, #0
 8001f6a:	617b      	str	r3, [r7, #20]

  /* Check the parameters */
  assert_param(IS_RTC_FORMAT(Format));

  /* Get subseconds structure field from the corresponding register */
  sTime->SubSeconds = (uint32_t)(hrtc->Instance->SSR);
 8001f6c:	68fb      	ldr	r3, [r7, #12]
 8001f6e:	681b      	ldr	r3, [r3, #0]
 8001f70:	6a9a      	ldr	r2, [r3, #40]	; 0x28
 8001f72:	68bb      	ldr	r3, [r7, #8]
 8001f74:	605a      	str	r2, [r3, #4]

  /* Get SecondFraction structure field from the corresponding register field*/
  sTime->SecondFraction = (uint32_t)(hrtc->Instance->PRER & RTC_PRER_PREDIV_S);
 8001f76:	68fb      	ldr	r3, [r7, #12]
 8001f78:	681b      	ldr	r3, [r3, #0]
 8001f7a:	691b      	ldr	r3, [r3, #16]
 8001f7c:	f3c3 020e 	ubfx	r2, r3, #0, #15
 8001f80:	68bb      	ldr	r3, [r7, #8]
 8001f82:	609a      	str	r2, [r3, #8]

  /* Get the TR register */
  tmpreg = (uint32_t)(hrtc->Instance->TR & RTC_TR_RESERVED_MASK);
 8001f84:	68fb      	ldr	r3, [r7, #12]
 8001f86:	681b      	ldr	r3, [r3, #0]
 8001f88:	681b      	ldr	r3, [r3, #0]
 8001f8a:	f003 337f 	and.w	r3, r3, #2139062143	; 0x7f7f7f7f
 8001f8e:	f023 43fe 	bic.w	r3, r3, #2130706432	; 0x7f000000
 8001f92:	617b      	str	r3, [r7, #20]

  /* Fill the structure fields with the read parameters */
  sTime->Hours = (uint8_t)((tmpreg & (RTC_TR_HT | RTC_TR_HU)) >> 16U);
 8001f94:	697b      	ldr	r3, [r7, #20]
 8001f96:	0c1b      	lsrs	r3, r3, #16
 8001f98:	b2db      	uxtb	r3, r3
 8001f9a:	f003 033f 	and.w	r3, r3, #63	; 0x3f
 8001f9e:	b2da      	uxtb	r2, r3
 8001fa0:	68bb      	ldr	r3, [r7, #8]
 8001fa2:	701a      	strb	r2, [r3, #0]
  sTime->Minutes = (uint8_t)((tmpreg & (RTC_TR_MNT | RTC_TR_MNU)) >> 8U);
 8001fa4:	697b      	ldr	r3, [r7, #20]
 8001fa6:	0a1b      	lsrs	r3, r3, #8
 8001fa8:	b2db      	uxtb	r3, r3
 8001faa:	f003 037f 	and.w	r3, r3, #127	; 0x7f
 8001fae:	b2da      	uxtb	r2, r3
 8001fb0:	68bb      	ldr	r3, [r7, #8]
 8001fb2:	705a      	strb	r2, [r3, #1]
  sTime->Seconds = (uint8_t)(tmpreg & (RTC_TR_ST | RTC_TR_SU));
 8001fb4:	697b      	ldr	r3, [r7, #20]
 8001fb6:	b2db      	uxtb	r3, r3
 8001fb8:	f003 037f 	and.w	r3, r3, #127	; 0x7f
 8001fbc:	b2da      	uxtb	r2, r3
 8001fbe:	68bb      	ldr	r3, [r7, #8]
 8001fc0:	709a      	strb	r2, [r3, #2]
  sTime->TimeFormat = (uint8_t)((tmpreg & (RTC_TR_PM)) >> 16U);
 8001fc2:	697b      	ldr	r3, [r7, #20]
 8001fc4:	0c1b      	lsrs	r3, r3, #16
 8001fc6:	b2db      	uxtb	r3, r3
 8001fc8:	f003 0340 	and.w	r3, r3, #64	; 0x40
 8001fcc:	b2da      	uxtb	r2, r3
 8001fce:	68bb      	ldr	r3, [r7, #8]
 8001fd0:	70da      	strb	r2, [r3, #3]

  /* Check the input parameters format */
